:020000040000FA
:200000000C9449000C94FC0C0C94FC0C0C94FC0C0C94FC0C0C94FC0C0C94FC0C0C94FC0C5F
:200020000C94FC0C0C94FC0C0C94FC0C0C94F90C0C94FC0C0C94FC0C0C94FC0C0C94FC0C83
:200040000C94FC0C0C94FC0C0C94FC0C0C94FC0C0C94FC0C0C94FC0C0C94FC0C0C94FC0C60
:200060000C94FC0C0C94FC0C0100050080050007A9001A0807A907F18007F107F6001CB1E9
:2000800007F608138008130814001CB60814081B800011241FBECFEFD8E0DEBFCDBFE8E681
:2000A000F0E040E017C0B591A59135912591059107FD0CC095918591EF01F92FE82F05901B
:2000C0000D92A217B307D9F7FE0104C01D92A217B307E1F7E139F40731F70E94C80B0C942F
:2000E000C60CF894FFCF4F925F926F927F928F929F92AF92BF92CF92DF92EF92FF920F9386
:20010000CF93DF934C016B012901642E712CC3010E94C4045C01892B09F4FDC088E290E026
:200120000E94C404EC01892BC1F088E2DE011D928A95E9F7B88EAF8AA30165EA70E0C50184
:200140000E94D10CC30101974F89588D5A01A80EB91EC114D10429F41EC0C5010E945B07B0
:20016000DAC0F6018081898F8081882399F0AE01465E5F4F319688E0C80ED11CCF0121912B
:20018000DA012D93AD01DC018C91882319F0EC15FD05A1F718A2043008F003E00E8B09A3BF
:2001A0006E01B2E0CB0ED11CC6010E94F50CCE010C960E94F50CD987C88784E090E0801BDC
:2001C00091099D878C87DB8BCA8BA201B401C5010E94CA0799838883E114F10409F49DC097
:2001E000F701D183C08399C0D0930708C0930608809119088130E9F589EA97E00E94860C65
:2002000082EB97E00E94860C8BEB97E00E94860C84EC97E00E94860C88EE97E00E94860C69
:200220008FED97E00E94860C86ED97E00E94860C8DEC97E00E94860C88EE97E09093050838
:20024000809304088FED97E0909303088093020810C08091170881110CC0E0910608F091E3
:20026000070896898E89891720F0D0930708C0930608809114088F5F809314088E89909134
:200280001808981710F48093180890E0FC01EE0FFF1FEE0FFF1FEE0FFF1F8E0F9F1FFC0142
:2002A000E755F84F0180F281E02DFD83EC83848195819F838E83A481B5811396DC92CE92AB
:2002C0001297D582C482EE89F0E0CF01880F991F880F991F880F991FE80FF91FE755F84F42
:2002E000FB87EA8780818F5F80830F900FBE80911708882361F0E0910608F0910708968953
:200300008E89981730F40E944B0981E016C081E014C081E012C08FEF10C00FB6F8940F921E
:20032000809119088F5F809319088091060890910708892B09F08DCF57CFDF91CF910F917B
:20034000FF90EF90DF90CF90BF90AF909F908F907F906F905F904F900895EF92FF920F93B8
:200360001F93CF93DF9380911208811104C1C0910008D09101087E018FEFE81AF80AF0922F
:200380000108E0920008E114F104B9F48091040890910508209102083091030830930508A1
:2003A000209304089093030880930208809115088F5F809315080E94060C8091FC079091FE
:2003C000FD07E816F90610F480E0B9C080E061E0E0910408F09105089081911107C02FEFFB
:2003E0003FEF3093FD072093FC07A9C0E0910408F09105080580F681E02D0680F781E02DCA
:2004000022813381E216F30628F43093FD072093FC0795C0A285B38524813581468157814D
:20042000E9015D834C832681378144815581E9015B834A83AF014E5F5F4F11962D913C9157
:2004400012972417350731F42681378112963C932E931197138612869C9191509C93A4897D
:20046000B589109719F12685378500891189E9011D830C832089318906851785E9011B83D8
:200480000A8311960D911C9112979F01245F3F4F0217130731F42089318912963C932E9390
:2004A0001197158A148A9C9191509C93268990911808921710F42093180830E0D901AA0F07
:2004C000BB1FAA0FBB1FAA0FBB1F2A0F3B1FD901A755B84F11960D90BC91A02DB583A483EF
:2004E00014962D913C9115973783268314962D913C911597E9015B834A8315965C934E93C7
:200500001497A689B0E09D01220F331F220F331F220F331FA20FB31FA755B84FB387A28761
:200520009C919F5F9C93A0910608B0910708268956969C91921708F04BCF862F49CFE09111
:200540000608F0910708268930E0F901EE0FFF1FEE0FFF1FEE0FFF1F2E0F3F1FF901E75522
:20056000F84F9081923008F081E090911608992361F081E00AC08091FE079091FF070196BD
:200580009093FF078093FE0780E0DF91CF911F910F91FF90EF900895CF93DF93CDB7DEB702
:2005A0006A970FB6F894DEBF0FBECDBF0F2EF0ECEF2EF12CF02D0F2EF6ECCF2ED12CF02D4D
:2005C0006894552454F8CE0101963C018AE092E00E94C4045C01892B29F0F70180818823A3
:2005E0008CF016C087E097E00E94680C0E94F00C0E94F1088AE00E94DA0C80ED97E00E9404
:20060000220CE4CFF6018081F70180818823D4F30E94E20C8C33E1F7F301252D11922A95C7
:20062000E9F78301912C08C08A3069F08D3059F09394F80181938F010E94E20C8E3319F09A
:20064000FFE09F12F1CFF301E90DF11D108263E277E0C3010E94940C892B19F40E94830533
:20066000ADC047E050E068E277E0C3010E94E70B892B29F4888580530E94A4099FC060E31B
:2006800077E0C3010E94940C892B19F40E94990A95C067E377E0C3010E94940C892B19F43A
:2006A0000E9436088BC045E050E06DE377E0C3010E94E70B892B09F07DC025E0291598F402
:2006C000FE013696D5010AEF090D10E098012A5F3F4F260D371D81918D93E217F307D9F74E
:2006E0000F5F1F4F02C000E010E04501800E911E05C00F5F1F4FF40181934F010E94E20C7F
:200700008E3321F00A30F2E01F0798F30A30110508F44BC0F5018081898B81818A8B8281CE
:200720008B8B848190E0982F88272381822B9D8B8C8B85818E8B1F8A188E198E1A8E83E404
:2007400097E00E94680C89890E94A80B8AE596E00E94680C8A890E94A80B83E696E00E94C1
:20076000680C8B890E94A80B87EA95E00E94680C8C890E94A80B8AE00E94DA0C8C899D8909
:2007800001978115924060F4B501665F7F4FCE0141960E94E30686E597E00E94680C0EC0C5
:2007A00083E697E00E94680C09C088E797E00E94680C04C088E997E00E94680CC5010E9454
:2007C0005B0704CF1F93CF93DF930FB6F8940F928091120881508093120880911208811186
:2007E000CAC08091190881119BC0C8C0DB011596ED91FC9116970680F781E02DA489B58913
:200800008685978520893189EC013D832C838089918926853785EC013B832A83CF010C969E
:2008200011962D913C9112972817390731F48089918912969C938E931197158A148A8C911C
:2008400081508C93A285B3858481958126813781EC013D832C838681978124813581EC010C
:200860003B832A839F012E5F3F4F11968D919C9112978217930731F48681978112969C9369
:200880008E931197138612868C9181508C93868990911808981710F48093180890E0DC01CE
:2008A000AA0FBB1FAA0FBB1FAA0FBB1F8A0F9B1FDC01A755B84F11960D90BC91A02DB583B6
:2008C000A48314968D919C9115979783868314968D919C911597EC013B832A8315963C93BA
:2008E0002E931497A689B0E0CD01880F991F880F991F880F991FA80FB91FA755B84FB38746
:20090000A2878C918F5F8C93A0910608B0910708968956968C91891740F44093160805C043
:20092000E0E0F0E066ED77E041E0DB018C9181115DCFEF2B11F00E94060CC091FE07D0911F
:20094000FF07209761F011E00E94AD018111109316082197C9F71092FF071092FE0780911D
:200960001608882351F080910608909107080E944B0981E003C080E001C080E00F900FBE17
:20098000DF91CF911F9108950F931F93CF93DF939C01215031092B3F3F4F18F4EC0124961F
:2009A00002C0C0E0D0E00E94EA0C8091100890911108892B59F540E051E0A6EFB7E0119604
:2009C0005C934E9313961C921E921297CA01A0E0B0E084509C4FAF4FBF4F9C019093110818
:2009E00080931008FC01138212821182108220503140FA01338322839183808330930D085B
:200A000020930C0830930F0820930E081C161D060CF069C080910E0890910F088C179D074C
:200A200008F464C0E091F607F091F70766EF77E002C0BF01F901228133812C173D0728F487
:200A40002081318121153105A1F72091100830911108E217F30709F44CC0DB010D911C9179
:200A600011970C5F1F4F208131812D933C93228133812C1B3D0B2930310598F0AF014C0F0B
:200A80005D1FDA0113963C932E931297D383C283DB012D913C91DA012D933C93DB014D93F5
:200AA0005C9322813381821B930B90930F0880930E0840910C0850910D088417950720F42C
:200AC00090930D0880930C083068338322831182108280910A0890910B08019690930B087B
:200AE00080930A0808C000E010E005C000E010E002C000E010E00E94E203C801DF91CF91F2
:200B00001F910F910895DF92EF92FF920F931F93CF93DF93CDB7DEB72A970FB6F894DEBF75
:200B20000FBECDBF83E595E00E94680C00E010E0F12CE12CDD24D3944AE050E0B801CE0125
:200B400001960E94480C89818F3F09F478C082E695E00E94680C8F2D0E94A80B89E695E013
:200B60000E94680C8CE695E00E94680C89810E94A80B80E795E00E94680C8A810E94A80BB1
:200B80008A81813049F018F0823059F00FC088E795E00E94680C0EC080E895E00E94680CD3
:200BA00009C087E895E00E94680C04C081E995E00E94680C8BE995E00E94680C8B810E940C
:200BC000A80B87EA95E00E94680C8C810E94A80B80EB95E00E94680C8C819D810E94F10848
:200BE00083EB95E00E94680C8AEB95E00E94680C8E810E94A80B8E81813029F484EC95E0D6
:200C00000E94680C0BC0811105C08FEC95E00E94680C04C089ED95E00E94680C84EE95E0EA
:200C20000E94680C8A850E94A80B89850E94A80B88850E94A80B8F810E94A80BED2CF39470
:200C400000581F4F011584E0180709F075CFE11004C083EF95E00E94680C2A960FB6F89435
:200C6000DEBF0FBECDBFDF91CF911F910F91FF90EF90DF90089580911208882321F081E0FC
:200C800080931608089510921608E0910608F09107080788F08DE02D80819181A281B38134
:200CA000853A954AA54AB54AD9F484819581A681B781853A954AA54AB54A91F48085918535
:200CC000A285B385853A954AA54AB54A49F484859585A685B785853A954AA54AB54A61F085
:200CE00060910608709107088091060890910708675E7F4F0E94AE0C20911808822F90E0B5
:200D0000FC01EE0FFF1FEE0FFF1FEE0FFF1FE80FF91FE755F84F3081311111C02150822F0D
:200D200090E0FC01EE0FFF1FEE0FFF1FEE0FFF1FE80FF91FE755F84F3081332379F3AC0143
:200D4000440F551F440F551F440F551F480F591FFA01E755F84FA181B28112966D917C91E9
:200D60001397728361834455584F6417750779F4FC01EE0FFF1FEE0FFF1FEE0FFF1FE80F07
:200D8000F91FE755F84F4581568152834183FC01EE0FFF1FEE0FFF1FEE0FFF1F8E0F9F1FD9
:200DA000FC01E755F84F0180F281E02D86819781909307088093060820931808809106084E
:200DC000909107080895CF92DF92EF92FF920F931F93CF93DF93CDB7DEB764970FB6F894D5
:200DE000DEBF0FBECDBF7C016B01FC010081F0E80F9F800111244AE050E0B801CE010196E1
:200E00000E94480C89818F3F21F0F70180810E94A4094AE050E0B801C7010E94580CF701D2
:200E200043815481B801665F7F4FC6010E94580C4AE050E0B801CE010B960E94480C8FE315
:200E400096E00E94680C8B850E94A80B8AE596E00E94680C8C850E94A80B83E696E00E94BF
:200E6000680C8D850E94A80B87EA95E00E94680C8E850E94A80B8AE00E94DA0C9B85F70129
:200E80008081981305C080E796E00E94680C04C08AE896E00E94680C64960FB6F894DEBF44
:200EA0000FBECDBFDF91CF911F910F91FF90EF90DF90CF900895CF93DF93009709F467C0B1
:200EC000FC0134972281338133230CF060C040815181452B09F05BC0EF013F773383228369
:200EE0000E94EA0C4A815B8180910E0890910F08840F951F90930F0880930E08E6EFF7E0FE
:200F000001C0FC01808191818C179D07D0F322813381BF01620F731FC617D70729F4240FD1
:200F2000351F33832283EF012A813B81DE01A20FB31F8A179B07C9F48091100890911108E6
:200F4000A817B90779F012968D919C911397280F391F3B832A83A081B1818D919C91998358
:200F6000888305C0B983A88302C099838883EC17FD0711F0D183C08380910808909109085F
:200F8000019690930908809308080E94E203DF91CF91089531E1FC013083319722E220833E
:200FA0003197A3E3A083319760833197708331971082319760E8608331971082319762E0A9
:200FC0006083319763E06083319764E06083319765E06083319766E06083319767E060837E
:200FE000319768E06083319769E06083319760E1608331973083319732E13083319733E139
:201000003083319734E13083319735E13083319736E13083319737E13083319738E1308343
:20102000319739E13083319730E23083319731E2308331972083319723E22083319740839A
:2010400031975083319726E22083319727E22083319728E22083319729E22083319720E358
:201060002083319721E3208386970895EF92FF921F93CF93DF93CDB7DEB72A970FB6F894E1
:20108000DEBF0FBECDBF8FEC96E00E94680CE12CF12C10E04AE050E0B701CE0101960E941F
:2010A000480C8AE00E94DA0C8DED96E00E94680C812F0E94A80B89E695E00E94680C8981DB
:2010C0008F3F29F483EE96E00E94680C1CC089EE96E00E94680C89810E94A80B80E795E00E
:2010E0000E94680C8A810E94A80B83EF96E00E94680C8B810E94A80B8FEF96E00E94680C11
:201100008C810E94A80B1F5F80E8E80EF11C183009F62A960FB6F894DEBF0FBECDBFDF91C6
:20112000CF911F91FF90EF9008950F920FB6F8940F921F9211242F923F924F925F926F9216
:201140007F928F929F92AF92BF92CF92DF92EF92FF920F931F932F933F934F935F936F93F8
:201160007F938F939F93AF93BF93CF93DF93EF93FF93A0910608B09107080DB60D920EB6D8
:201180000D920E94AD0181110E943B06A0910608B0910708CD91CDBFDD91DEBFFF91EF9157
:2011A000DF91CF91BF91AF919F918F917F916F915F914F913F912F911F910F91FF90EF90B1
:2011C000DF90CF90BF90AF909F908F907F906F905F904F903F902F901F900F900FBE0F9041
:2011E00008951F93CF93DF9300D000D000D0CDB7DEB7AC01892B21F480E30E94DA0C41C0E1
:2012000080E011E0180FE1E0F0E0EC0FFD1FE80FF11D9A01ADECBCEC0E94770C9695879561
:2012200096958795969587959C01220F331F880F991F880F991F880F991F820F931F9A0135
:20124000281B390BC901805D80839A010E94770CAC01569547955695479556954795812FEB
:201260004115510571F6112361F01150E1E0F0E0EC0FFD1FE10FF11D80810E94DA0C111124
:20128000F4CF26960FB6F894DEBF0FBECDBFDF91CF911F9108950F920FB6F8940F921F9227
:2012A00011242F923F924F925F926F927F928F929F92AF92BF92CF92DF92EF92FF920F9319
:2012C0001F932F933F934F935F936F937F938F939F93AF93BF93CF93DF93EF93FF93A091DF
:2012E0000608B09107080DB60D920EB60D920E943B06A0910608B0910708CD91CDBFDD9101
:20130000DEBFFF91EF91DF91CF91BF91AF919F918F917F916F915F914F913F912F911F9150
:201320000F91FF90EF90DF90CF90BF90AF909F908F907F906F905F904F903F902F901F903C
:201340000F900FBE0F900895DF92EF92FF920F931F93CF93DF93CDB7DEB764970FB6F894D5
:20136000DEBF0FBECDBFD82E80E8D89E700111244AE050E0B701CE0101960E94480C898175
:201380008F3F41F48BE096E00E94680C8D2D0E94A80B24C0CE010B962AE0FC0111922A9587
:2013A000E9F72FEF2B874AE050E0B7010E94580C8701065F1F4FF0E8EF0EF11C6FEFC80101
:2013C0000E94360C0F5F1F4F0E151F05B9F789E196E00E94680C8D2D0E94A80B64960FB692
:2013E000F894DEBF0FBECDBFDF91CF911F910F91FF90EF90DF900895EF92FF920F93CF931B
:20140000DF93CDB7DEB728970FB6F894DEBF0FBECDBF89E48983E2EFF7E0DE01129629EF7B
:2014200037E081918D93882319F0E217F307C9F70F2EFAEFEF2EF7E0FF2EF02D00E020E0B8
:2014400030E045E5BE016F5F7F4F8AEB9CE00E947300882391F0813081F4F8948FEF9FEF07
:201460009093FD078093FC0781E08093170810920108109200080E94DD0A809113082896D4
:201480000FB6F894DEBF0FBECDBFDF91CF910F91FF90EF900895CF92DF92EF92FF920F9364
:2014A0001F93CF93DF93EC010091000810910108E0900408F0900508C0900208D0900308A8
:2014C000809106089091070802960E94820BC00FD11FE0910608F0910708D383C283C017B6
:2014E000D10750F460910608709107086E5F7F4FC6010E94510B14C060910608709107087E
:201500006E5F7F4FC7010E94510B8091FC079091FD07C817D90720F4D093FD07C093FC07A1
:20152000DF91CF911F910F91FF90EF90DF90CF900895EF92FF920F931F93CF93DF93CDB754
:20154000DEB72A970FB6F894DEBF0FBECDBFFE0131968AE0DF011D928A95E9F78FEF8983A6
:20156000E12CF12C4AE050E0B701CE0101960E94580C8701065F1F4FB0E8EB0EF11C6FEF6C
:20158000C8010E94360C0F5F1F4F0E151F05B9F7E11484E0F80631F78CE296E00E94680C52
:2015A0002A960FB6F894DEBF0FBECDBFDF91CF911F910F91FF90EF9008958DE390E0909356
:2015C000890080938800E0E8F0E080818C7F80838BE080938100EFE6F0E0808182608083B6
:2015E000A0910608B0910708CD91CDBFDD91DEBFFF91EF91DF91CF91BF91AF919F918F91A7
:201600007F916F915F914F913F912F911F910F91FF90EF90DF90CF90BF90AF909F908F9052
:201620007F906F905F904F903F902F901F900F900FBE0F90089581E008950F931F93CF9335
:20164000DF9380911A08882339F10DEC17E00FB6F8940F92D8011596ED91FC911697C681AB
:20166000D781CE0102960E94820B8091190881508093190880911A08815080931A080F906D
:201680000FBE8F89988D0E945B07CE010E945B0780911A088111DBCFDF91CF911F910F91DA
:2016A0000895CF93DF93EB01488159814F3F2FEF520721F4FC01A781B0850DC0DC01139663
:2016C00001C0DF011296ED91FC9113972081318142175307B0F71296ED91FC911397FB8384
:2016E000EA83D583C483BD83AC831396DC93CE93129799878887FC0120812F5F2083DF91DF
:20170000CF910895CF93DF93FC01A085B185C281D381848195819D838C83C481D581828121
:2017200093819B838A8311968D919C911297E817F90731F48481958112969C938E931197F0
:20174000118610868C9181508C93DF91CF910895CF93DF9300D00F92CDB7DEB7E82FE295F6
:20176000EF70F0E0EE5BFA4F908199838F70E82FF0E0EE5BFA4F80818A831B82CE010196F2
:201780000E94680C0F900F900F90DF91CF910895EF92FF920F93229A2A9A0E94A20C82E201
:2017A00095E00E94680CE12CF12C02E020E030E040EC66E375E08CEC92E00E9473000E9417
:2017C000FC0980E090E00F91FF90EF900895CF93DF9341155105A9F0DC01FB01EF018D91E9
:2017E000882351F09191992339F04130510521F041505109891791F390E02881821B9109BF
:2018000002C080E090E0DF91CF910895E0910408F09105088081811107C08FEF9FEF909335
:20182000FD078093FC070895E0910408F09105080580F681E02D808191819093FD07809390
:20184000FC070895CF93DF93EC01892B51F00E94EA0C60E0CE010E944B0A0E94E20381117B
:2018600002C00E944B09DF91CF910895262FF999FECF92BD81BDF89A019700B4021639F0E3
:201880001FBA20BD0FB6F894FA9AF99A0FBE0895DC01CB01FC01F999FECF06C0F2BDE1BD98
:2018A000F89A319600B40D9241505040B8F70895DC01A40FB51F4150504048F0CB01840FF3
:2018C000951F2E910E94370C41505040D0F70895CF93DF93EC018881882331F021960E943C
:2018E000DA0C89918111FBCFDF91CF910895A29FB001B39FC001A39F700D811D1124911DDA
:20190000B29F700D811D1124911D0895FC010396928381832FEF3FEF348323839683858362
:201920009087878310820895DC01FB019D912191921303C09111FACF292F892F90E0821BAE
:20194000910908951092C50083E38093C40088E18093C10086E08093C2000895EB0180E04B
:2019600095E00E94680CCE010E94680C8AE00E94DA0CFFCFC9EAD7E00E941D0B8881823048
:2019800010F00E944B090E94000DF6CFEC010E94020D0E94010DCE010E94030DCE010E949D
:2019A000FE0CFC01480F591FE417F50711F06193FBCF0895E0ECF0E0908195FFFDCF8093DE
:2019C000C6000895E0ECF0E080818823ECF78091C6000895809112088F5F80931208089522
:2019E00080910E0890910F080895FC011186108608950E94950818950C9400000E94710085
:201A000008950895089508950A5B4552524F525D20537461636B206F766572666C6F77203C
:201A2000696E207461736B3A200052544F532069732072756E6E696E672E2E2E0A005265F2
:201A400063656976655461736B0030313233343536373839414243444546004C6973742089
:201A60006F66205461736B733A000A536C6F7420003A200049443D0020547970653A200025
:201A800020284750494F2900202850574D2900202853657269616C29002028437573746F1A
:201AA0006D29002C205072696F726974793D002C2053697A653A2000202800206279746548
:201AC0002900205374617475733A2000202852756E6E696E672900202850617573656429BA
:201AE000002028556E6B6E6F776E29002C20466C617368416464723D3078000A4E6F207391
:201B0000746F726564207461736B7320666F756E642E000A4E6F205461736B2049443A2076
:201B2000000A5461736B2044656C657465642049443A20000A416C6C205461736B7320447D
:201B4000656C65746564000A454550524F4D20577269746520436865636B202D2049443AE3
:201B600020002C20547970653A20002C205072696F726974793A20005461736B2053746F0C
:201B8000726564205375636365737366756C6C790A005461736B2053746F726520457272D2
:201BA0006F72210A004C6F61646564205461736B2049443A20005461736B45786563004EB0
:201BC0006F2073746F726564207461736B7320666F756E642E0A00454550524F4D2044659A
:201BE0006275673A00536C6F742000456D707479005461736B2049443A2000205072696F48
:201C0000726974793A20002053697A653A20004D656D6F727920616C6C6F63206661696C2D
:201C200065642C20667265653A20004C4953540044454C4554453A0044454C455445004473
:201C400045425547005441534B3A00506172736564205461736B202D2049443A20005461D9
:201C6000736B2053746F7265640A00496E76616C69642042696E6172792053697A650A00DA
:201C8000436F72727570746564206F7220546F6F2053686F7274205061796C6F61640A0015
:171CA000556E6B6E6F776E20436F6D6D616E640A0049444C45000333
:207000000C947F391092C50083E38093C40088E18093C10086E08093C2000895E0ECF0E0C3
:20702000908195FFFDCF8093C6000895CF93DF93EC018881882331F021960E940E3889911A
:207040008111FBCFDF91CF910895E0ECF0E080818823ECF78091C60008958F929F92AF9235
:20706000BF92CF92DF92EF92FF92CF93DF934B015C0186EA93E70E941638C8E1D0E07501B5
:2070800064010C2E04C0F694E794D794C7940A94D2F7EC2DE295EF70F0E0E355FC4880811F
:2070A0000E940E388C2D8F70E82FF0E0E355FC4880810E940E382897C83F8FEFD807F9F6D2
:2070C0008EE30E940E38DF91CF91FF90EF90DF90CF90BF90AF909F908F9008958EEB93E73F
:2070E0000E941638E0E0F0E009950895CF92DF92EF92FF92CF93DF936B017C01F999FECFD5
:20710000C60123E0F60120935700E89507B600FCFDCFEA01C058DF4FDA0131E0BC01641B49
:20712000750BAB01FA01EA0FFB1F11968C91119790E0982F88272C91822B0C013093570032
:20714000E89511241296AC17BD0761F785E0F60180935700E89507B600FCFDCF81E18093B9
:207160005700E895DF91CF91FF90EF90DF90CF9008956F927F928F929F92AF92BF92CF929B
:20718000DF92EF92FF920F931F93CF93DF93CDB7DEB7C058D1090FB6F894DEBF0FBECDBFF2
:2071A0006C017B018090000190900101A0900201B0900301672B51F16894662467F8712CE6
:2071C000870181E8E816F10410F0062D172D462D572D6FEF70E0CE0101960E94AB39A8011A
:2071E000B601CE0101960E94A039AE014F5F5F4FC501B4010E94763880E8880E911CA11CB9
:20720000B11CC00ED11EE01AF10AD1F6609100017091010180910201909103010E942D38F3
:207220008092000190920101A0920201B0920301C058DF4F0FB6F894DEBF0FBECDBFDF919F
:20724000CF911F910F91FF90EF90DF90CF90BF90AF909F908F907F906F900895CF93DF9347
:20726000CDB7DEB7D2500FB6F894DEBF0FBECDBF0E9425388C33E1F7CE0101967C0100E033
:2072800010E005C00F5F1F4FF70181937F010E9425388E3321F00F3FF1E01F0799F7E1E06A
:2072A000F0E0EC0FFD1FE00FF11F108243E050E062ED73E7CE0101960E94B439892B11F4AC
:2072C0000E946E3845E050E066ED73E7CE0101960E94B439892B71F4B8016550710929F055
:2072E000CE0106960E94B938C3CF8CED93E70E941638BECF80EF93E70E941638B9CF219A72
:20730000299A0E9402382FEF89E698E1215080409040E1F700C0000081E094E70E94163863
:2073200084E194E70E9416382FEF89E698E1215080409040E1F700C000000E942E39089538
:20734000FB01DC01480F591FA417B50719F021912D93FACF0895FC01480F591FE417F5076A
:2073600011F06193FBCF0895CF93DF9341155105A9F0DC01FB01EF018D91882351F09191A3
:20738000992339F04130510521F041505109891791F390E02881821B910902C080E090E03F
:2073A000DF91CF9108953C414444523A0030313233343536373839414243444546004A756E
:2073C0006D70696E6720746F2052544F532E2E2E0A0052554E005441534B3A00456D70749B
:2073E00079205441534B207061796C6F61640A00556E6B6E6F776E20636F6D6D616E640AB4
:2074000000426F6F746C6F61646572207374617274730A0048656C6C6F20576F726C640A70
:01742000006B
:0B742200010001040074290028000094
:040000050000700087
:00000001FF
