:100000000C943A000C94EB010C94EB010C94EB0172
:100010000C94EB010C94EB010C94EB010C94EB01B0
:100020000C94EB010C94EB010C94EB010C94EB01A0
:100030000C94EB010C94EB010C94EB010C94EB0190
:100040000C94EB010C94EB010C94EB010C94EB0180
:100050000C94EB010C94EB010C94EB010C94EB0170
:100060000C94EB010C94EB01010001B60003E401D8
:10007000B601B88011241FBECFEFD8E0DEBFCDBFE0
:10008000E8E6F0E040E017C0B591A59135912591E3
:10009000059107FD0CC095918591EF01F92FE82F8F
:1000A00005900D92A217B307D9F7FE0104C01D9267
:1000B000A217B307E1F7E437F40731F70E94830191
:0800C0000C94CF01F894FFCF6E
:1000C8008F929F92AF92BF92CF92DF92EF92FF9260
:1000D8000F931F93CF93DF930F2EF5EACF2EF1E006
:1000E800DF2EF02D912C0F2EF5EAAF2EF1E0BF2E6A
:1000F800F02D85B1806C85B98BB180668BB921E014
:10010800921659F0921638F082E0981641F093E072
:10011800991639F007C02E9805C02F9803C05D982E
:1001280001C05E98EFECF7E03197F1F700C00000EE
:100138007601C0E0D0E086B190E00C2E02C0959523
:1001480087950A94E2F78C010170112780FD5AC047
:10015800F701808080E091E00E94C001882D0E9414
:10016800E3018AE00E94E301F0E38F1641F0E8E73B
:10017800F1E081E090E08C012081821235C0F80125
:10018800EE0FFF1F0E0F1F1FF801EB58FE4F0180E7
:10019800F281E02D8081882361F1289A81918E3245
:1001A80051F42FEF81EE94E0215080409040E1F728
:1001B80000C000000BC08D3249F42FEF85EA9EE0A5
:1001C800215080409040E1F700C0000028982FEFB0
:1001D80081EE94E0215080409040E1F700C000009B
:1001E80080818111DACF05C001963396EA15FB05A7
:1001F80011F6EFEFF1EE24E0E150F0402040E1F796
:1002080000C0000021968FEFE81AF80AC430D10523
:1002180009F091CF939494E0C90ED11CE4E09E12AA
:1002280068CFDF91CF911F910F91FF90EF90DF90F2
:0C023800CF90BF90AF909F908F900895E2
:100244008091B6012FEF829FC001112462E370E018
:100254000E9498016093B3008FE19EE40197F1F747
:1002640000C000009091B6018091B501890F809380
:10027400B601823338F082E38093B6018FEF809326
:10028400B5010895811103C081E08093B5010895FB
:100294001092C50083E38093C40088E18093C10079
:1002A40086E08093C20084B18D6084B983E8809332
:1002B400B00082E08093B1001092B30084B1806CEE
:1002C40084B98AB180668AB987B1807F87B988B1D9
:0602D4008F6088B9089557
:1002DA002FEF89E698E1215080409040E1F700C075
:1002EA0000008091B701811105C02A9A81E08093AC
:0C02FA00B70108952A981092B7010895EA
:100306000E944A018EE091E00E94C0010E946D01A8
:100316000E9422010E9464000E94DA018FEC97E09D
:0A0326000197F1F700C00000F1CFCD
:1003300097FB072E16F4009407D077FD09D00E9492
:10034000AC0107FC05D03EF4909581959F4F089530
:08035000709561957F4F08953F
:10035800AA1BBB1B51E107C0AA1FBB1FA617B707E3
:1003680010F0A61BB70B881F991F5A95A9F78095FF
:080378009095BC01CD01089530
:10038000CF93DF93EC018881882331F021960E947E
:0E039000E30189918111FBCFDF91CF91089598
:10039E00EC010E94F0010E94EF01CE010E94F101DA
:0603AE00CE010E94ED01EA
:1003B4008091C000882324F48091C6000E94E30148
:0203C40008959A
:1003C600E0ECF0E0908195FFFDCF8093C6000895A4
:0403D6000C94000083
:0403DA000E9462001B
:0203DE00089580
:0203E00008957E
:0203E20008957C
:1003E4004B657920507265737365643A20004E6FD3
:1003F4006E2D52544F53205365747570205374619D
:1004040072740A002D2D2D2D2D002E2D2D2D2D0035
:100414002E2E2D2D2D002E2E2E2D2D002E2E2E2E59
:100424002D002E2E2E2E2E002D2E2E2E2E002D2D76
:100434002E2E2E002D2D2D2E2E002D2D2D2D2E0069
:100444002E2D002D2E2E2E002D2E2D2E002D2E2E57
:05045400002E002D0048
:10045900302401312A01323001333601343C01356F
:100469004201364801374E01385401395A01416079
:1004790001426301436801446D012A71012373013B
:100489003132334134353642373839432A302344FF
:010499000161
:00000001FF
