:107000000C94F03A0C9400380C9436380C943638C2
:107010000C9436380C9436380C9436380C94363838
:107020000C9436380C9436380C9436380C94363828
:107030000C9436380C9436380C9436380C94363818
:107040000C9436380C9436380C9436380C94363808
:107050000C9436380C9436380C9436380C943638F8
:0C7060000C9436380C9436380C943638FA
:10706C000C9402381092C50083E38093C40088E12D
:10707C008093C10086E08093C2000895E0ECF0E0BC
:10708C00908195FFFDCF8093C6000895CF93DF9339
:10709C00EC012196FC018491882339F00E9444383C
:1070AC00FE01849121968111F9CFDF91CF91089542
:1070BC00CF93DF93EC018881882331F021960E94D5
:1070CC00443889918111FBCFDF91CF910895E0EC89
:1070DC00F0E080818823ECF78091C6000895AC0124
:1070EC0020E030E0E0ECF0E00BC08FEC97E0019793
:1070FC00F1F700C000002F5F3F4F2417350730F425
:10710C009081992394F78091C60008958FEF08958C
:10711C008F929F92AF92BF92CF92DF92EF92FF929B
:10712C00CF93DF934B015C018AE796E70E944C38C2
:10713C00C8E1D0E0750164010C2E04C0F694E7940C
:10714C00D794C7940A94D2F7EC2DE295EF70F0E047
:10715C00EF57F94880810E9444388C2D8F70E82FAE
:10716C00F0E0EF57F94880810E9444382897C83FD7
:10717C008FEFD807F9F68EE30E944438DF91CF9158
:10718C00FF90EF90DF90CF90BF90AF909F908F903B
:10719C00089582E996E70E944C38E0E0F0E009950A
:1071AC000895CF92DF92EF92FF92CF93DF936B0112
:1071BC007C01F999FECFC60123E0F601209357001C
:1071CC00E89507B600FCFDCFEA01C058DF4FDA01A5
:1071DC0031E0BC01641B750BAB01FA01EA0FFB1F1C
:1071EC0011968C91119790E0982F88272C91822BD7
:1071FC000C0130935700E89511241296AC17BD077B
:10720C0061F785E0F60180935700E89507B600FC1E
:10721C00FDCF81E180935700E895DF91CF91FF90EE
:10722C00EF90DF90CF9008956F927F928F929F9204
:10723C00AF92BF92CF92DF92EF92FF920F931F9378
:10724C00CF93DF93CDB7DEB7C058D1090FB6F89402
:10725C00DEBF0FBECDBF6C017B0180908001909092
:10726C008101A0908201B0908301672B51F1689449
:10727C00662467F8712C870181E8E816F10410F098
:10728C00062D172D462D572D6FEF70E0CE01019670
:10729C000E94073BA801B601CE0101960E94FC3A60
:1072AC00AE014F5F5F4FC501B4010E94D73880E833
:1072BC00880E911CA11CB11CC00ED11EE01AF10A43
:1072CC00D1F6609180017091810180918201909141
:1072DC0083010E948E388092800190928101A0924D
:1072EC008201B0928301C058DF4F0FB6F894DEBF15
:1072FC000FBECDBFDF91CF911F910F91FF90EF90FB
:10730C00DF90CF90BF90AF909F908F907F906F90B9
:10731C00089595B182E0892785B92FEF81EE94E02D
:10732C00215080409040E1F700C000000895AF92DA
:10733C00BF92CF92DF92EF92FF920F931F93CF9356
:10734C00DF93CDB7DEB760970FB6F894DEBF0FBEF4
:10735C00CDBFFE01319680E1DF011D928A95E9F7E0
:10736C0080E297E70E944C388091C000882344F457
:10737C00A6ECB0E0E0ECF0E08C9180818823E4F3A3
:10738C0088ED96E70E944C388AE090E00E947538B0
:10739C008F3FD1F38C3319F00E948F39F5CF0F2E1C
:1073AC00F0E0CF2EF1E0DF2EF02D0F2EFFE7AF2E09
:1073BC00F1E0BF2EF02D76010E946D38182F8E3320
:1073CC0009F4E5C0F70181937F018BE50E944438F5
:1073DC00812F0E9444388DE50E944438EA14FB0446
:1073EC0059F7D5C088EC90E00E947538F82EFFEF65
:1073FC008F17A9F08EE3F81691F00F5F1F4FD50190
:10740C00FD925D018BE50E9444388F2D0E9444381B
:10741C008DE50E9444380F37110521F7C6C0299815
:10742C00F801E050FF4F10820115110509F4B8C0A6
:10743C00F801E050FF4F05C01C928901232B09F481
:10744C00AFC09801215031093197DF0180818D3017
:10745C0099F38A3089F3902F0031110508F09FE0E1
:10746C00B92E992371F0FE0131962FEF290F30E0E0
:10747C002F5F3E4FD6018D916D018193A217B307FB
:10748C00C9F7FE01E90FF11D118285E497E70E940F
:10749C004C388981882329F0CE0101960E945E38F0
:1074AC0004C087E397E70E944C388AE00E94443876
:1074BC008FE397E70E944C38BB2049F1FE013196CF
:1074CC007F01BA94CB2CD12CFFEFCF1ADF0ACE0C54
:1074DC00DF1C8BE50E9444385701D701ED917D01EB
:1074EC00E295EF70F0E0EF57F94880810E94443844
:1074FC00D501EC91EF70F0E0EF57F94880810E94D4
:10750C0044388DE50E944438EC14FD0411F78AE0F0
:10751C000E94443866EA76E7CE0101960E94103B41
:10752C00892B59F484EC96E70E944C380E94CF3892
:10753C008091C000882314F13CC045E050E06AEA19
:10754C0076E7CE0101960E941E3B892B91F40550E3
:10755C00110951F08FE097E70E944C38B80185E093
:10756C0091E00E941A39E4CF80EB96E70E944C38E8
:10757C00DFCF8EEF96E70E944C38DACFA6ECB0E066
:10758C00E0ECF0E08C9180818823E4F312C00F2EA4
:10759C00F0E0AF2EF1E0BF2EF02D00E010E022CF96
:1075AC0000E010E0B12C90E06CCF299810927F0194
:1075BC003FCF60960FB6F894DEBF0FBECDBFDF9104
:1075CC00CF911F910F91FF90EF90DF90CF90BF90D4
:1075DC00AF900895219A299A0E9438388CEE96E73C
:1075EC000E944C380E949D39FDCF0895FB01DC01AF
:1075FC00480F591FA417B50719F021912D93FACFF5
:10760C000895FC01480F591FE417F50711F0619319
:10761C00FBCF0895DC01FB019D912191921303C0D6
:10762C009111FACF292F892F90E0821B910908958F
:10763C00CF93DF9341155105A9F0DC01FB01EF015C
:10764C008D91882351F09191992339F04130510556
:10765C0021F041505109891791F390E02881821B48
:10766C00910902C080E090E0DF91CF9108953C41F8
:10767C004444523A0030313233343536373839419C
:10768C004243444546004A756D70696E6720746FBD
:10769C002052544F532E2E2E0A0052554E00544158
:0476AC00534B3A0002
:1076B000456D707479205441534B207061796C6F23
:0476C00061640A00F7
:1076C4004A756D70696E6720746F2052544F532E43
:0476D4002E2E0A004C
:1076D80057616974696E6720666F7220273C272E90
:0476E8002E2E0A0038
:1076EC00426F6F746C6F616465722052656164796E
:0276FC000A0082
:1076FE00556E6B6E6F776E20636F6D6D616E640A83
:01770E00007A
:10770F0053746F72696E67207461736B2E2E2E0A1D
:01771F000069
:107720003C5441534B3E206F72203C52554E3E0A12
:017730000058
:0577320001000184804C
:0877370028656D7074792900CA
:06773F004845583A200005
:06774500434D443A200010
:040000030000700089
:00000001FF
