:107000000C947F391092C50083E38093C40088E11B
:107010008093C10086E08093C2000895E0ECF0E028
:10702000908195FFFDCF8093C6000895CF93DF93A5
:10703000EC018881882331F021960E940E388991D5
:107040008111FBCFDF91CF910895E0ECF0E08081DA
:107050008823ECF78091C60008958F929F92AF929B
:10706000BF92CF92DF92EF92FF92CF93DF934B01CB
:107070005C0186EA93E70E941638C8E1D0E075010A
:1070800064010C2E04C0F694E794D794C7940A9434
:10709000D2F7EC2DE295EF70F0E0E355FC488081EB
:1070A0000E940E388C2D8F70E82FF0E0E355FC48DD
:1070B00080810E940E382897C83F8FEFD807F9F6D5
:1070C0008EE30E940E38DF91CF91FF90EF90DF901A
:1070D000CF90BF90AF909F908F9008958EEB93E7E5
:1070E0000E941638E0E0F0E009950895CF92DF9213
:1070F000EF92FF92CF93DF936B017C01F999FECF62
:10710000C60123E0F60120935700E89507B600FC7E
:10711000FDCFEA01C058DF4FDA0131E0BC01641B4A
:10712000750BAB01FA01EA0FFB1F11968C911197B9
:1071300090E0982F88272C91822B0C0130935700D8
:10714000E89511241296AC17BD0761F785E0F601AA
:1071500080935700E89507B600FCFDCF81E180934E
:107160005700E895DF91CF91FF90EF90DF90CF909F
:1071700008956F927F928F929F92AF92BF92CF921B
:10718000DF92EF92FF920F931F93CF93DF93CDB7D0
:10719000DEB7C058D1090FB6F894DEBF0FBECDBF21
:1071A0006C017B018090000190900101A090020190
:1071B000B0900301672B51F16894662467F8712C35
:1071C000870181E8E816F10410F0062D172D462DF1
:1071D000572D6FEF70E0CE0101960E94AB39A801E8
:1071E000B601CE0101960E94A039AE014F5F5F4FFC
:1071F000C501B4010E94763880E8880E911CA11C5C
:10720000B11CC00ED11EE01AF10AD1F66091000146
:107210007091010180910201909103010E942D382B
:107220008092000190920101A0920201B0920301AC
:10723000C058DF4F0FB6F894DEBF0FBECDBFDF9151
:10724000CF911F910F91FF90EF90DF90CF90BF9063
:10725000AF909F908F907F906F900895CF93DF9322
:10726000CDB7DEB7D2500FB6F894DEBF0FBECDBF9C
:107270000E9425388C33E1F7CE0101967C0100E0B5
:1072800010E005C00F5F1F4FF70181937F010E943F
:1072900025388E3321F00F3FF1E01F0799F7E1E029
:1072A000F0E0EC0FFD1FE00FF11F108243E050E013
:1072B00062ED73E7CE0101960E94B439892B11F477
:1072C0000E946E3845E050E066ED73E7CE0101960E
:1072D0000E94B439892B71F4B8016550710929F005
:1072E000CE0106960E94B938C3CF8CED93E70E9479
:1072F0001638BECF80EF93E70E941638B9CF219A97
:10730000299A0E9402382FEF89E698E121508040A7
:107310009040E1F700C0000081E094E70E94163839
:1073200084E194E70E9416382FEF89E698E1215016
:1073300080409040E1F700C000000E942E3908957F
:10734000FB01DC01480F591FA417B50719F0219163
:107350002D93FACF0895FC01480F591FE417F50744
:1073600011F06193FBCF0895CF93DF934115510541
:10737000A9F0DC01FB01EF018D91882351F091917F
:10738000992339F04130510521F0415051098917B5
:1073900091F390E02881821B910902C080E090E087
:1073A000DF91CF9108953C414444523A003031324C
:1073B00033343536373839414243444546004A75FF
:1073C0006D70696E6720746F2052544F532E2E2EAD
:1073D0000A0052554E005441534B3A00456D7074AB
:1073E00079205441534B207061796C6F61640A00BD
:1073F000556E6B6E6F776E20636F6D6D616E640A94
:1074000000426F6F746C6F61646572207374617297
:1074100074730A0048656C6C6F20576F726C640A55
:01742000006B
:0774220001000104007429C0
:047429000028000037
:040000030000700089
:00000001FF
