:10700000F89414BEA8950FB6F894A89580916000E6
:10701000886180936000109260000FBECFEFD8E0CF
:10702000CDBFDEBF519A599A0E9428388FE292E76D
:107030000E94483880E090E0DC010196A11DB11D5E
:10704000803523EC9207A105B105B8F30C949B3869
:107050001092C50083E38093C40088E18093C1004F
:1070600086E08093C2008091C000882344F4A6EC9F
:10707000B0E0E0ECF0E08C9180818823E4F30895A7
:10708000E0ECF0E0908195FFFDCF8093C60008957D
:10709000CF93DF93EC012196FC018491882339F092
:1070A0000E944038FE01849121968111F9CFDF9131
:1070B000CF910895CF93DF93EC018881882331F03D
:1070C00021960E94403889918111FBCFDF91CF91A9
:1070D0000895CF93DF9300D00F92CDB7DEB7E82F9E
:1070E000E295EF70F0E0E651FE48908199838F7051
:1070F000E82FF0E0E651FE4880818A831B82CE01B2
:1071000001960E945A380F900F900F90DF91CF9107
:1071100008958CE192E70E944838FFCF80E091E02B
:1071200021E08030920730F4FC01119281E0E030E0
:10713000F807D9F70895CDB7DEB78FE392E70E943D
:1071400048388D2F0E9469388C2F0E9469388AE058
:107150000E9440380E948E3880E190E00E94DB3827
:10716000C82F61E0680F80E190E00E94E33884E47A
:1071700092E70E9448388C2F0E9469388AE00E946A
:107180004038219A25E030E092E085B1892785B921
:107190004FEF51EE84E0415050408040E1F700C095
:1071A00000002150310989F781E592E70E944838B3
:1071B0000E9489380895F999FECF92BD81BDF89A51
:1071C000992780B50895262FF999FECF92BD81BDEC
:1071D000F89A019700B4021639F01FBA20BD0FB615
:1071E000F894FA9AF99A0FBE089530313233343553
:1071F00036373839414243444546003C41444452C5
:107200003A004A756D70696E6720746F2052544F52
:10721000532E2E2E0A005441534B3A003C574149FD
:1072200054494E4720434F4D4D414E443E0A005F66
:10723000737461727420726561636865640A0053D7
:10724000503A2000426F6F7420636F756E743A205D
:01725000003D
:10725100426F6F746C6F616465722052656164790D
:027261000A0021
:040000030000700089
:00000001FF
