:107000000C94E1390C9400380C9436380C943638D2
:107010000C9436380C9436380C9436380C94363838
:107020000C9436380C9436380C9436380C94363828
:107030000C9436380C9436380C9436380C94363818
:107040000C9436380C9436380C9436380C94363808
:107050000C9436380C9436380C9436380C943638F8
:0C7060000C9436380C9436380C943638FA
:10706C000C9402381092C50083E38093C40088E12D
:10707C008093C10086E08093C2000895E0ECF0E0BC
:10708C00908195FFFDCF8093C6000895CF93DF9339
:10709C00EC012196FC018491882339F00E9444383C
:1070AC00FE01849121968111F9CFDF91CF91089542
:1070BC00E0ECF0E080818823ECF78091C600089525
:1070CC00AC0120E030E0E0ECF0E00BC08FEC97E09E
:1070DC000197F1F700C000002F5F3F4F24173507D1
:1070EC0030F49081992394F78091C60008958FEF26
:1070FC0008958F929F92AF92BF92CF92DF92EF92B0
:10710C00FF92CF93DF934B015C0180E494E70E94E4
:10711C004C38C8E1D0E0750164010C2E04C0F69423
:10712C00E794D794C7940A94D2F7EC2DE295EF70BC
:10713C00F0E0E95BFB4880810E9444388C2D8F7015
:10714C00E82FF0E0E95BFB4880810E9444382897E7
:10715C00C83F8FEFD807F9F68EE30E944438DF91D1
:10716C00CF91FF90EF90DF90CF90BF90AF909F901A
:10717C008F90089588E594E70E944C38E0E0F0E0A9
:10718C0009950895CF92DF92EF92FF92CF93DF9300
:10719C006B017C01F999FECFC60123E0F601209327
:1071AC005700E89507B600FCFDCFEA01C058DF4F49
:1071BC00DA0131E0BC01641B750BAB01FA01EA0F7B
:1071CC00FB1F11968C91119790E0982F88272C918A
:1071DC00822B0C0130935700E89511241296AC17B2
:1071EC00BD0761F785E0F60180935700E89507B677
:1071FC0000FCFDCF81E180935700E895DF91CF91A2
:10720C00FF90EF90DF90CF9008956F927F928F92C6
:10721C009F92AF92BF92CF92DF92EF92FF920F9319
:10722C001F93CF93DF93CDB7DEB7C058D1090FB6FC
:10723C00F894DEBF0FBECDBF6C017B018090800146
:10724C0090908101A0908201B0908301672B51F145
:10725C006894662467F8712C870181E8E816F104BC
:10726C0010F0062D172D462D572D6FEF70E0CE0127
:10727C0001960E94F839A801B601CE0101960E9430
:10728C00ED39AE014F5F5F4FC501B4010E94C838A4
:10729C0080E8880E911CA11CB11CC00ED11EE01AF6
:1072AC00F10AD1F660918001709181018091820187
:1072BC00909183010E947F3880928001909281018D
:1072CC00A0928201B0928301C058DF4F0FB6F894A0
:1072DC00DEBF0FBECDBFDF91CF911F910F91FF90FD
:1072EC00EF90DF90CF90BF90AF909F908F907F905A
:1072FC006F90089595B182E0892785B92FEF81EEC3
:10730C0094E0215080409040E1F700C000000895C7
:10731C000F931F93CF93DF938DEA94E70E944C3821
:10732C008AE090E00E9466388C3319F00E94803914
:10733C00F7CF299800E011E0C0E0D0E004C021961E
:10734C00F80181938F010E945E388E3319F0CF378C
:10735C00D105A9F7FE01E050FF4F108243E050E049
:10736C006CE674E780E091E00E94013A892B11F4FD
:10737C000E94C03845E050E060E774E780E091E09F
:10738C000E94013A892B71F4BE016550710929F0F4
:10739C0085E091E00E940B3909C086E794E70E94D2
:1073AC004C3804C08CE994E70E944C38DF91CF91A3
:1073BC001F910F910895219A299A0E9438388AE8D2
:1073CC0094E70E944C380E948E39FDCF0895FB0142
:1073DC00DC01480F591FA417B50719F021912D9303
:1073EC00FACF0895FC01480F591FE417F50711F067
:1073FC006193FBCF0895CF93DF9341155105A9F00D
:10740C00DC01FB01EF018D91882351F091919923BF
:10741C0039F04130510521F041505109891791F350
:10742C0090E02881821B910902C080E090E0DF91FE
:10743C00CF9108953C414444523A003031323334B8
:10744C003536373839414243444546004A756D70EC
:10745C00696E6720746F2052544F532E2E2E0A00E3
:0A746C0052554E005441534B3A00B4
:10747600456D707479205441534B207061796C6F5F
:0474860061640A0033
:10748A00426F6F746C6F61646572205265616479D2
:02749A000A00E6
:10749C00556E6B6E6F776E20636F6D6D616E640AE7
:0174AC0000DF
:1074AD003C5441534B3E206F72203C52554E3E0A88
:0174BD0000CE
:0574BE000100018480C3
:040000030000700089
:00000001FF
