:100000000C9449000C94F60C0C94F60C0C94F60C21
:100010000C94F60C0C94F60C0C94F60C0C94F60C58
:100020000C94F60C0C94F60C0C94F60C0C94F30C4B
:100030000C94F60C0C94F60C0C94F60C0C94F60C38
:100040000C94F60C0C94F60C0C94F60C0C94F60C28
:100050000C94F60C0C94F60C0C94F60C0C94F60C18
:100060000C94F60C0C94F60C0100050080050007BA
:10007000A00019FC07A007E88007E807ED001C9C1A
:1000800007ED080A80080A080B001CA1080B0812DB
:10009000800011241FBECFEFD8E0DEBFCDBFE8E661
:1000A000F0E040E017C0B591A591359125910591FB
:1000B00007FD0CC095918591EF01F92FE82F059070
:1000C0000D92A217B307D9F7FE0104C01D92A21723
:1000D000B307E1F7E139F40731F70E94080C0C94FB
:0600E000C50CF894FFCFEF
:1000E6004F925F926F927F928F929F92AF92BF9242
:1000F600CF92DF92EF92FF920F93CF93DF934C0153
:100106006B012901642E712CC3010E94C9045C0194
:10011600892B09F4FDC088E290E00E94C904EC0135
:10012600892BC1F088E2DE011D928A95E9F7B88E27
:10013600AF8AA30165EA70E0C5010E94D00CC30135
:1001460001974F89588D5A01A80EB91EC114D104C2
:1001560029F41EC0C5010E946007DAC0F60180813D
:10016600898F8081882399F0AE01465E5F4F319674
:1001760088E0C80ED11CCF012191DA012D93AD0183
:10018600DC018C91882319F0EC15FD05A1F718A266
:10019600043008F003E00E8B09A36E01B2E0CB0E2B
:1001A600D11CC6010E94EF0CCE010C960E94EF0CEA
:1001B600D987C88784E090E0801B91099D878C874A
:1001C600DB8BCA8BA201B401C5010E94CF079983BC
:1001D6008883E114F10409F49DC0F701D183C0833B
:1001E60099C0D093FE07C093FD0780911008813017
:1001F600E9F580EA97E00E94850C89EA97E00E947B
:10020600850C82EB97E00E94850C8BEB97E00E94B1
:10021600850C8FED97E00E94850C86ED97E00E9495
:10022600850C8DEC97E00E94850C84EC97E00E948B
:10023600850C8FED97E09093FC078093FB0786ED86
:1002460097E09093FA078093F90710C080910E0803
:1002560081110CC0E091FD07F091FE0796898E8909
:10026600891720F0D093FE07C093FD0780910B08F5
:100276008F5F80930B088E8990910F08981710F462
:1002860080930F0890E0FC01EE0FFF1FEE0FFF1F9B
:10029600EE0FFF1F8E0F9F1FFC01E056F84F0180E7
:1002A600F281E02DFD83EC83848195819F838E838B
:1002B600A481B5811396DC92CE921297D582C48220
:1002C600EE89F0E0CF01880F991F880F991F880FDC
:1002D600991FE80FF91FE056F84FFB87EA878081E0
:1002E6008F5F80830F900FBE80910E08882361F088
:1002F600E091FD07F091FE0796898E89981730F4F4
:100306000E94500981E016C081E014C081E012C04D
:100316008FEF10C00FB6F8940F92809110088F5F80
:10032600809310088091FD079091FE07892B09F0B4
:100336008DCF57CFDF91CF910F91FF90EF90DF9048
:10034600CF90BF90AF909F908F907F906F905F906F
:040356004F90089527
:10035A00EF92FF920F931F93CF93DF938091090837
:10036A00811104C1C091F707D091F8077E018FEF80
:10037A00E81AF80AF092F807E092F707E114F10494
:10038A00B9F48091FB079091FC072091F90730910D
:10039A00FA073093FC072093FB079093FA078093A0
:1003AA00F90780910C088F5F80930C080E94EC0B70
:1003BA008091F3079091F407E816F90610F480E0AB
:1003CA00B9C080E061E0E091FB07F091FC07908101
:1003DA00911107C02FEF3FEF3093F4072093F307F3
:1003EA00A9C0E091FB07F091FC070580F681E02D9A
:1003FA000680F781E02D22813381E216F30628F484
:10040A003093F4072093F30795C0A285B38524811E
:10041A00358146815781E9015D834C832681378185
:10042A0044815581E9015B834A83AF014E5F5F4F87
:10043A0011962D913C9112972417350731F4268194
:10044A00378112963C932E931197138612869C91AC
:10045A0091509C93A489B589109719F126853785FF
:10046A0000891189E9011D830C8320893189068558
:10047A001785E9011B830A8311960D911C91129726
:10048A009F01245F3F4F0217130731F420893189F6
:10049A0012963C932E931197158A148A9C91915027
:1004AA009C93268990910F08921710F420930F08B5
:1004BA0030E0D901AA0FBB1FAA0FBB1FAA0FBB1F8F
:1004CA002A0F3B1FD901A056B84F11960D90BC9127
:1004DA00A02DB583A48314962D913C91159737834B
:1004EA00268314962D913C911597E9015B834A83E3
:1004FA0015965C934E931497A689B0E09D01220F3E
:10050A00331F220F331F220F331FA20FB31FA05610
:10051A00B84FB387A2879C919F5F9C93A091FD07D8
:10052A00B091FE07268956969C91921708F04BCFF8
:10053A00862F49CFE091FD07F091FE07268930E02A
:10054A00F901EE0FFF1FEE0FFF1FEE0FFF1F2E0F19
:10055A003F1FF901E056F84F9081923008F081E090
:10056A0090910D08992361F081E00AC08091F50706
:10057A009091F60701969093F6078093F50780E02D
:0E058A00DF91CF911F910F91FF90EF90089598
:10059800CF93DF93CDB7DEB76A970FB6F894DEBF77
:1005A8000FBECDBF0F2EF0ECEF2EF12CF02D0F2E3D
:1005B800F6ECCF2ED12CF02D6894552454F8CE01AA
:1005C80001963C018AE092E00E94C9045C0183EF35
:1005D80096E00E94670C8AE092E00E94F6088AE0A2
:1005E8000E94D90CA114B10429F0F7018081882355
:1005F80054F00FC085E097E00E94670C80ED97E00B
:100608000E94210CDFCFF6018081F70180818823C9
:10061800D4F30E94E10C8C33E1F7F301252D1192FC
:100628002A95E9F78301912C08C08A3069F08D304A
:1006380059F09394F80181938F010E94E10C8E3355
:1006480019F0FFE09F12F1CFF301E90DF11D1082BF
:100658006AE177E0C3010E94930C892B19F40E9488
:100668008805ADC047E050E06FE177E0C3010E9424
:10067800CD0B892B29F4888580530E94A9099FC036
:1006880067E277E0C3010E94930C892B19F40E945A
:100698009E0A95C06EE277E0C3010E94930C892BF5
:1006A80019F40E943B088BC045E050E064E377E012
:1006B800C3010E94CD0B892B09F07DC025E02915C7
:1006C80098F4FE013696D5010AEF090D10E098015D
:1006D8002A5F3F4F260D371D81918D93E217F3074F
:1006E800D9F70F5F1F4F02C000E010E04501800EF0
:1006F800911E05C00F5F1F4FF40181934F010E94A7
:10070800E10C8E3321F00A30F2E01F0798F30A302B
:10071800110508F44BC0F5018081898B81818A8B92
:1007280082818B8B848190E0982F88272381822B6C
:100738009D8B8C8B85818E8B1F8A188E198E1A8EB5
:100748008AE397E00E94670C89890E94AD0B86E4D2
:1007580096E00E94670C8A890E94AD0B8FE496E0B0
:100768000E94670C8B890E94AD0B83E995E00E947B
:10077800670C8C890E94AD0B8AE00E94D90C8C8989
:100788009D8901978115924060F4B501665F7F4F9E
:10079800CE0141960E94E8068DE497E00E94670C1E
:1007A8000EC08AE597E00E94670C09C08FE697E0C3
:1007B8000E94670C04C08FE897E00E94670CC5018F
:0607C8000E946007FFCE55
:1007CE001F93CF93DF930FB6F8940F928091090881
:1007DE00815080930908809109088111CAC08091C7
:1007EE00100881119BC0C8C0DB011596ED91FC91DC
:1007FE0016970680F781E02DA489B58986859785A1
:10080E0020893189EC013D832C838089918926854D
:10081E003785EC013B832A83CF010C9611962D91DF
:10082E003C9112972817390731F4808991891296D5
:10083E009C938E931197158A148A8C9181508C9368
:10084E00A285B3858481958126813781EC013D8314
:10085E002C838681978124813581EC013B832A8309
:10086E009F012E5F3F4F11968D919C91129782178B
:10087E00930731F48681978112969C938E931197EC
:10088E00138612868C9181508C93868990910F08D5
:10089E00981710F480930F0890E0DC01AA0FBB1F8D
:1008AE00AA0FBB1FAA0FBB1F8A0F9B1FDC01A056EE
:1008BE00B84F11960D90BC91A02DB583A4831496BC
:1008CE008D919C9115979783868314968D919C910B
:1008DE001597EC013B832A8315963C932E93149720
:1008EE00A689B0E0CD01880F991F880F991F880F38
:1008FE00991FA80FB91FA056B84FB387A2878C9126
:10090E008F5F8C93A091FD07B091FE079689569646
:10091E008C91891740F440930D0805C0E0E0F0E09B
:10092E006DEC77E041E0DB018C9181115DCFEF2B17
:10093E0011F00E94EC0BC091F507D091F6072097AD
:10094E0061F011E00E94AD01811110930D08219705
:10095E00C9F71092F6071092F50780910D088823BB
:10096E0051F08091FD079091FE070E94500981E0A1
:10097E0003C080E001C080E00F900FBEDF91CF91E9
:04098E001F91089518
:100992000F931F93CF93DF939C01215031092B3F7B
:1009A2003F4F18F4EC01249602C0C0E0D0E00E9450
:1009B200E90C8091070890910808892B59F540E0CD
:1009C20051E0ADEEB7E011965C934E9313961C92F4
:1009D2001E921297CA01A0E0B0E084509C4FAF4F24
:1009E200BF4F9C019093080880930708FC01138273
:1009F20012821182108220503140FA013383228305
:100A0200918380833093040820930308309306086F
:100A1200209305081C161D060CF069C0809105087C
:100A2200909106088C179D0708F464C0E091ED07C9
:100A3200F091EE076DEE77E002C0BF01F90122816D
:100A420033812C173D0728F420813181211531058E
:100A5200A1F72091070830910808E217F30709F47B
:100A62004CC0DB010D911C9111970C5F1F4F20812F
:100A720031812D933C93228133812C1B3D0B2930F4
:100A8200310598F0AF014C0F5D1FDA0113963C93CC
:100A92002E931297D383C283DB012D913C91DA010D
:100AA2002D933C93DB014D935C9322813381821B16
:100AB200930B909306088093050840910308509188
:100AC20004088417950720F4909304088093030880
:100AD20030683383228311821082809101089091C1
:100AE20002080196909302088093010808C000E072
:100AF20010E005C000E010E002C000E010E00E943B
:0E0B0200E703C801DF91CF911F910F91089575
:100B1000DF92EF92FF920F931F93CF93DF93CDB7A6
:100B2000DEB72A970FB6F894DEBF0FBECDBF8FE3B6
:100B300095E00E94670C00E010E0F12CE12CDD2430
:100B4000D3944AE050E0B801CE0101960E94470CD0
:100B500089818F3F09F478C08EE495E00E94670C8C
:100B60008F2D0E94AD0B85E595E00E94670C88E50E
:100B700095E00E94670C89810E94AD0B8CE595E0A1
:100B80000E94670C8A810E94AD0B8A81813049F0F6
:100B900018F0823059F00FC084E695E00E94670C8F
:100BA0000EC08CE695E00E94670C09C083E795E0D3
:100BB0000E94670C04C08DE795E00E94670C87E8EF
:100BC00095E00E94670C8B810E94AD0B83E995E054
:100BD0000E94670C8C810E94AD0B8CE995E00E940D
:100BE000670C8C819D810E94F6088FE995E00E9438
:100BF000670C86EA95E00E94670C8E810E94AD0B1F
:100C00008E81813029F480EB95E00E94670C0BC047
:100C1000811105C08BEB95E00E94670C04C085EC48
:100C200095E00E94670C80ED95E00E94670C8A8534
:100C30000E94AD0B89850E94AD0B88850E94AD0B8B
:100C40008F810E94AD0BED2CF39400581F4F0115BE
:100C500084E0180709F075CFE11004C08FED95E02E
:100C60000E94670C2A960FB6F894DEBF0FBECDBF68
:100C7000DF91CF911F910F91FF90EF90DF9008953A
:100C800080910908882321F081E080930D08089560
:100C900010920D08E091FD07F091FE070788F08D96
:100CA000E02D80819181A281B381853A954AA54A40
:100CB000B54AD9F484819581A681B781853A954A50
:100CC000A54AB54A91F480859185A285B385853A78
:100CD000954AA54AB54A49F484859585A685B78580
:100CE000853A954AA54AB54A61F06091FD07709131
:100CF000FE078091FD079091FE07675E7F4F0E947F
:100D0000AD0C20910F08822F90E0FC01EE0FFF1F29
:100D1000EE0FFF1FEE0FFF1FE80FF91FE056F84F11
:100D20003081311111C02150822F90E0FC01EE0F73
:100D3000FF1FEE0FFF1FEE0FFF1FE80FF91FE0561A
:100D4000F84F3081332379F3AC01440F551F440F22
:100D5000551F440F551F480F591FFA01E056F84F11
:100D6000A181B28112966D917C91139772836183F8
:100D70004D55584F6417750779F4FC01EE0FFF1FAE
:100D8000EE0FFF1FEE0FFF1FE80FF91FE056F84FA1
:100D90004581568152834183FC01EE0FFF1FEE0F08
:100DA000FF1FEE0FFF1F8E0F9F1FFC01E056F84F35
:100DB0000180F281E02D868197819093FE078093D8
:100DC000FD0720930F088091FD079091FE0708957D
:100DD000CF92DF92EF92FF920F931F93CF93DF9307
:100DE000CDB7DEB764970FB6F894DEBF0FBECDBFA8
:100DF0007C016B01FC010081F0E80F9F8001112450
:100E00004AE050E0B801CE0101960E94470C89816A
:100E10008F3F21F0F70180810E94A9094AE050E04C
:100E2000B801C7010E94570CF70143815481B801F2
:100E3000665F7F4FC6010E94570C4AE050E0B80140
:100E4000CE010B960E94470C8BE296E00E94670C45
:100E50008B850E94AD0B86E496E00E94670C8C8522
:100E60000E94AD0B8FE496E00E94670C8D850E9476
:100E7000AD0B83E995E00E94670C8E850E94AD0B57
:100E80008AE00E94D90C9B85F7018081981305C0E8
:100E90008CE596E00E94670C04C086E796E00E940D
:100EA000670C64960FB6F894DEBF0FBECDBFDF911E
:100EB000CF911F910F91FF90EF90DF90CF90089509
:100EC000CF93DF93009709F467C0FC013497228128
:100ED000338133230CF060C040815181452B09F0F0
:100EE0005BC0EF013F77338322830E94E90C4A8184
:100EF0005B818091050890910608840F951F90935F
:100F0000060880930508EDEEF7E001C0FC01808142
:100F100091818C179D07D0F322813381BF01620F2D
:100F2000731FC617D70729F4240F351F3383228375
:100F3000EF012A813B81DE01A20FB31F8A179B07B5
:100F4000C9F48091070890910808A817B90779F0AB
:100F500012968D919C911397280F391F3B832A83FA
:100F6000A081B1818D919C919983888305C0B983BB
:100F7000A88302C099838883EC17FD0711F0D18301
:100F8000C0838091FF07909100080196909300081C
:0E0F90008093FF070E94E703DF91CF91089541
:100F9E0031E1FC013083319722E220833197A3E3C4
:100FAE00A083319760833197708331971082319788
:100FBE0060E8608331971082319762E060833197E9
:100FCE0063E06083319764E06083319765E060830E
:100FDE00319766E06083319767E06083319768E010
:100FEE006083319769E06083319760E16083319768
:100FFE003083319732E13083319733E1308331974B
:10100E0034E13083319735E13083319736E13083E7
:10101E00319737E13083319738E13083319739E1B9
:10102E003083319730E23083319731E2308331971C
:10103E002083319723E22083319740833197508369
:10104E00319726E22083319727E22083319728E2D9
:10105E002083319729E22083319720E32083319733
:08106E0021E320838697089519
:10107600EF92FF921F93CF93DF93CDB7DEB72A97F8
:101086000FB6F894DEBF0FBECDBF8BEB96E00E9485
:10109600670CE12CF12C10E04AE050E0B701CE01DC
:1010A60001960E94470C8AE00E94D90C89EC96E0D2
:1010B6000E94670C812F0E94AD0B85E595E00E948A
:1010C600670C89818F3F29F48FEC96E00E94670CAC
:1010D6001CC085ED96E00E94670C89810E94AD0BCD
:1010E6008CE595E00E94670C8A810E94AD0B8FED1E
:1010F60096E00E94670C8B810E94AD0B8BEE96E00A
:101106000E94670C8C810E94AD0B1F5F80E8E80E81
:10111600F11C183009F62A960FB6F894DEBF0FBEFA
:0E112600CDBFDF91CF911F91FF90EF90089504
:101134000F920FB6F8940F921F9211242F923F92A0
:101144004F925F926F927F928F929F92AF92BF92D3
:10115400CF92DF92EF92FF920F931F932F933F93BF
:101164004F935F936F937F938F939F93AF93BF93AB
:10117400CF93DF93EF93FF93A091FD07B091FE0708
:101184000DB60D920EB60D920E94AD0181110E9412
:101194004006A091FD07B091FE07CD91CDBFDD9132
:1011A400DEBFFF91EF91DF91CF91BF91AF919F91FE
:1011B4008F917F916F915F914F913F912F911F91EB
:1011C4000F91FF90EF90DF90CF90BF90AF909F90E2
:1011D4008F907F906F905F904F903F902F901F90D3
:0811E4000F900FBE0F9008955B
:1011EC001F93CF93DF9300D000D000D0CDB7DEB7E4
:1011FC00AC01892B21F480E30E94D90C41C080E022
:10120C0011E0180FE1E0F0E0EC0FFD1FE80FF11D0D
:10121C009A01ADECBCEC0E94760C96958795969550
:10122C008795969587959C01220F331F880F991FE0
:10123C00880F991F880F991F820F931F9A01281BE3
:10124C00390BC901805D80839A010E94760CAC0138
:10125C00569547955695479556954795812F411527
:10126C00510571F6112361F01150E1E0F0E0EC0F43
:10127C00FD1FE10FF11D80810E94D90C1111F4CFDB
:10128C0026960FB6F894DEBF0FBECDBFDF91CF917F
:04129C001F91089501
:1012A0000F920FB6F8940F921F9211242F923F9233
:1012B0004F925F926F927F928F929F92AF92BF9266
:1012C000CF92DF92EF92FF920F931F932F933F9352
:1012D0004F935F936F937F938F939F93AF93BF933E
:1012E000CF93DF93EF93FF93A091FD07B091FE079B
:1012F0000DB60D920EB60D920E944006A091FD070C
:10130000B091FE07CD91CDBFDD91DEBFFF91EF9192
:10131000DF91CF91BF91AF919F918F917F916F910D
:101320005F914F913F912F911F910F91FF90EF90FF
:10133000DF90CF90BF90AF909F908F907F906F90F5
:101340005F904F903F902F901F900F900FBE0F9087
:021350000895FE
:10135200DF92EF92FF920F931F93CF93DF93CDB75C
:10136200DEB764970FB6F894DEBF0FBECDBFD82E9E
:1013720080E8D89E700111244AE050E0B701CE0106
:1013820001960E94470C89818F3F41F487EF95E0D7
:101392000E94670C8D2D0E94AD0B24C0CE010B96CE
:1013A2002AE0FC0111922A95E9F72FEF2B874AE0F8
:1013B20050E0B7010E94570C8701065F1F4FF0E80B
:1013C200EF0EF11C6FEFC8010E94350C0F5F1F4F2B
:1013D2000E151F05B9F785E096E00E94670C8D2D6A
:1013E2000E94AD0B64960FB6F894DEBF0FBECDBF60
:1013F200DF91CF911F910F91FF90EF90DF900895B1
:10140200EF92FF920F93CF93DF93CDB7DEB728977A
:101412000FB6F894DEBF0FBECDBF89E48983E9EE33
:10142200F7E0DE01129620EF37E081918D93882359
:1014320019F0E217F307C9F70F2EF1EFEF2EF7E0DD
:10144200FF2EF02D00E020E030E045E5BE016F5FA9
:101452007F4F89EB9CE00E947300882391F08130DA
:1014620081F4F8948FEF9FEF9093F4078093F30742
:1014720081E080930E081092F8071092F7070E94FD
:10148200E20A80910A0828960FB6F894DEBF0FBED2
:0E149200CDBFDF91CF910F91FF90EF900895A5
:1014A000CF92DF92EF92FF920F931F93CF93DF9330
:1014B000EC010091F7071091F807E090FB07F0901E
:1014C000FC07C090F907D090FA078091FD07909132
:1014D000FE0702960E94870BC00FD11FE091FD0707
:1014E000F091FE07D383C283C017D10750F46091F7
:1014F000FD077091FE076E5F7F4FC6010E94560B7D
:1015000014C06091FD077091FE076E5F7F4FC701A9
:101510000E94560B8091F3079091F407C817D907E2
:1015200020F4D093F407C093F307DF91CF911F917C
:0C1530000F91FF90EF90DF90CF90089596
:10153C00EF92FF920F931F93CF93DF93CDB7DEB74C
:10154C002A970FB6F894DEBF0FBECDBFFE013196C1
:10155C008AE0DF011D928A95E9F78FEF8983E12CF0
:10156C00F12C4AE050E0B701CE0101960E94570CD5
:10157C008701065F1F4FB0E8EB0EF11C6FEFC8013F
:10158C000E94350C0F5F1F4F0E151F05B9F7E114A4
:10159C0084E0F80631F788E196E00E94670C2A9601
:1015AC000FB6F894DEBF0FBECDBFDF91CF911F9168
:0815BC000F91FF90EF900895DC
:1015C4008DE390E09093890080938800E0E8F0E058
:1015D40080818C7F80838BE080938100EFE6F0E054
:1015E400808182608083A091FD07B091FE07CD9138
:1015F400CDBFDD91DEBFFF91EF91DF91CF91BF9120
:10160400AF919F918F917F916F915F914F913F9196
:101614002F911F910F91FF90EF90DF90CF90BF908B
:10162400AF909F908F907F906F905F904F903F907E
:101634002F901F900F900FBE0F90089581E0089592
:101644000F931F93CF93DF9380911108882339F16F
:1016540004EC17E00FB6F8940F92D8011596ED91AB
:10166400FC911697C681D781CE0102960E94870B02
:101674008091100881508093100880911108815046
:10168400809311080F900FBE8F89988D0E94600778
:10169400CE010E946007809111088111DBCFDF9198
:0816A400CF911F910F910895F1
:1016AC00CF93DF93EB01488159814F3F2FEF5207C6
:1016BC0021F4FC01A781B0850DC0DC01139601C09B
:1016CC00DF011296ED91FC91139720813181421725
:1016DC005307B0F71296ED91FC911397FB83EA83B5
:1016EC00D583C483BD83AC831396DC93CE931297BE
:1016FC0099878887FC0120812F5F2083DF91CF9110
:02170C0008953E
:10170E00CF93DF93FC01A085B185C281D381848103
:10171E0095819D838C83C481D581828193819B83A6
:10172E008A8311968D919C911297E817F90731F4DF
:10173E008481958112969C938E93119711861086B3
:0C174E008C9181508C93DF91CF91089515
:10175A00CF93DF9300D00F92CDB7DEB7E82FE29593
:10176A00EF70F0E0E25DFA4F908199838F70E82F75
:10177A00F0E0E25DFA4F80818A831B82CE010196F6
:10178A000E94670C0F900F900F90DF91CF910895F0
:10179A00CF93DF9341155105A9F0DC01FB01EF015D
:1017AA008D91882351F09191992339F04130510557
:1017BA0021F041505109891791F390E02881821B49
:0E17CA00910902C080E090E0DF91CF91089578
:1017D800E091FB07F091FC078081811107C08FEF32
:1017E8009FEF9093F4078093F3070895E091FB0728
:1017F800F091FC070580F681E02D8081918190931E
:08180800F4078093F307089533
:10181000EF92FF920F930E94A10CE12CF12C02E0B9
:1018200020E030E040EC60E075E08CEC92E00E945B
:1018300073000E94010A80E090E00F91FF90EF900A
:02184000089509
:10184200CF93DF93EC01892B51F00E94E90C60E009
:10185200CE010E94500A0E94E703811102C00E9439
:081862005009DF91CF910895B8
:10186A00262FF999FECF92BD81BDF89A019700B44F
:10187A00021639F01FBA20BD0FB6F894FA9AF99AEF
:04188A000FBE0895F0
:10188E00DC01CB01FC01F999FECF06C0F2BDE1BD32
:10189E00F89A319600B40D9241505040B8F7089521
:1018AE00DC01A40FB51F4150504048F0CB01840F0E
:1018BE00951F2E910E94360C41505040D0F708953E
:1018CE00CF93DF93EC018881882331F021960E941B
:0E18DE00D90C89918111FBCFDF91CF91089534
:1018EC00A29FB001B39FC001A39F700D811D112455
:0E18FC00911DB29F700D811D1124911D089544
:10190A00FC010396928381832FEF3FEF3483238375
:0C191A0096838583908787831082089550
:10192600DC01FB019D912191921303C09111FACF25
:0C193600292F892F90E0821B9109089551
:101942001092C50083E38093C40088E18093C100B4
:0819520086E08093C2000895B5
:10195A00EB018CE095E00E94670CCE010E94670CB7
:08196A008AE00E94D90CFFCFB6
:10197200C0EAD7E00E94220B8881823010F00E94D8
:0819820050090E94FA0CF6CF97
:10198A00EC010E94FC0C0E94FB0CCE010E94FD0C93
:06199A00CE010E94F80CD2
:1019A000FC01480F591FE417F50711F06193FBCFB5
:0219B000089598
:1019B200E0ECF0E0908195FFFDCF8093C6000895A2
:1019C200E0ECF0E080818823ECF78091C600089576
:0C19D200809109088F5F80930908089538
:0819DE00FC011186108608953A
:0619E6000E949A0818950A
:0419EC000C94000057
:0419F0000E947100E0
:0219F400089554
:0219F600089552
:0219F800089550
:0219FA0008954E
:1019FC00526563656976655461736B000A5B455289
:101A0C00524F525D20537461636B206F7665726622
:101A1C006C6F7720696E207461736B3A20003031E3
:101A2C003233343536373839414243444546004C1D
:101A3C00697374206F66205461736B733A000A5398
:101A4C006C6F7420003A200049443D00205479709A
:101A5C00653A200020284750494F2900202850572C
:101A6C004D2900202853657269616C290020284398
:101A7C007573746F6D29002C205072696F726974C4
:101A8C00793D002C2053697A653A200020280020EB
:101A9C00627974652900205374617475733A20005F
:101AAC00202852756E6E696E67290020285061756A
:101ABC0073656429002028556E6B6E6F776E290054
:101ACC002C20466C617368416464723D3078000A66
:101ADC004E6F2073746F726564207461736B732026
:101AEC00666F756E642E000A4E6F205461736B2006
:101AFC0049443A20000A5461736B2044656C657448
:101B0C0065642049443A20000A416C6C205461738E
:101B1C006B732044656C65746564000A45455052CE
:101B2C004F4D20577269746520436865636B202D97
:101B3C002049443A20002C20547970653A20002C1E
:101B4C00205072696F726974793A20005461736B1A
:101B5C002053746F72656420537563636573736689
:101B6C00756C6C790A005461736B2053746F7265D9
:101B7C00204572726F72210A004C6F61646564209B
:101B8C005461736B2049443A20005461736B45785F
:101B9C006563004E6F2073746F726564207461739B
:101BAC006B7320666F756E642E0A00454550524F5C
:101BBC004D2044656275673A00536C6F7420004584
:101BCC006D707479005461736B2049443A20002085
:101BDC005072696F726974793A20002053697A6582
:101BEC003A200052657175657374696E672068657B
:101BFC0061703A20004D656D6F727920616C6C6F6D
:101C0C0063206661696C65640A004C495354004456
:101C1C00454C4554453A0044454C455445004445D3
:101C2C00425547005441534B3A00506172736564FE
:101C3C00205461736B202D2049443A200054617369
:101C4C006B2053746F7265640A00496E76616C691F
:101C5C00642042696E6172792053697A650A004387
:101C6C006F72727570746564206F7220546F6F2080
:101C7C0053686F7274205061796C6F61640A0055FF
:101C8C006E6B6E6F776E20436F6D6D616E640A00C4
:051C9C0049444C450025
:011CA100033F
:00000001FF
