:100000000C943D000C949C060C949C060C949C064D
:100010000C949C060C949C060C949C060C949C06D8
:100020000C949C060C949C060C949C060C949906CB
:100030000C949C060C949C060C949C060C949C06B8
:100040000C949C060C949C060C949C060C949C06A8
:100050000C949C060C949C060C949C060C949C0698
:100060000C949C060C949C0601000724800724072E
:100070002F000D4E072F0744800011241FBECFEF25
:10008000D8E0DEBFCDBFE8E6F0E040E017C0B591B4
:10009000A59135912591059107FD0CC0959185910C
:1000A000EF01F92FE82F05900D92A217B307D9F7AA
:1000B000FE0104C01D92A217B307E1F7E937F40768
:0E00C00031F70E94EF050C947506F894FFCFFF
:1000CE004F925F926F927F928F929F92AF92BF925A
:1000DE00CF92DF92EF92FF920F931F93CF93DF9306
:1000EE004C01EB015A012901C114D10439F4CA01A2
:1000FE000E9438056C01892B09F4DCC086E290E081
:10010E000E9438053C01009779F0FC01D08EC78A19
:10011E00F1E0AF1AB108CA0CDB1C8881F301818FA4
:10012E008881811105C014C0C6010E94A306C2C0F9
:10013E00D3015A96FE0131969E01285F3F4FEF0183
:10014E0081918D938881882319F0E217F307B9F70F
:10015E00F30110A2102F043008F013E0F301168BF8
:10016E00E3012296CE010E949506C3010C960E94D1
:10017E009506F3017186608684E090E0811B9109FB
:10018E0095878487738A628A11A212A213A214A27F
:10019E0015A2A201B401C6010E941F03F3019183AF
:1001AE008083E114F10419F0F701718260820FB6B9
:1001BE00F8940F92809142078F5F8093420780914F
:1001CE00350790913607892BA9F570923607609204
:1001DE003507809142078130E1F58CED96E00E9463
:1001EE00670685EE96E00E9467068EEE96E00E9408
:1001FE00670687EF96E00E9467068BE197E00E9404
:10020E00670682E197E00E94670689E097E00E9408
:10021E00670680E097E00E9467068BE197E0909377
:10022E0034078093330782E197E0909332078093EF
:10023E0031070FC08091400781110BC0E091350747
:10024E00F09136078689081720F070923607609273
:10025E00350780913C078F5F80933C07F3018689B9
:10026E0090914107981710F48093410790E09C01FC
:10027E00220F331F220F331F220F331F820F931FA4
:10028E00BE018452994F0E9413060F900FBE8091AB
:10029E004007882359F0E0913507F091360786899B
:1002AE00801730F40E94E70381E005C081E003C0AF
:1002BE0081E001C08FEFDF91CF911F910F91FF90E1
:1002CE00EF90DF90CF90BF90AF909F908F907F90E8
:0802DE006F905F904F900895AE
:1002E600CF92DF92EF92FF920F931F93CF93DF93FC
:1002F60080913B0781119BC080912F079091300719
:1003060001969093300780932F07E0902F07F09087
:100316003007E114F104B9F4809133079091340762
:1003260020913107309132073093340720933307F9
:10033600909332078093310780913D078F5F8093BA
:100346003D070E94340680912D0790912E07E816EE
:10035600F90610F4D12C53C0D12CCC24C394E091CF
:100366003307F09134078081811107C08FEF9FEF2B
:1003760090932E0780932D0742C0E0913307F091AA
:1003860034070580F681E02DC681D7818A819B815D
:10039600E816F90628F490932E0780932D072FC0B0
:1003A6008E010E5F1F4FC8010E94C9058C899D8969
:1003B600892B21F0CE010C960E94C9058E89909159
:1003C6004107981710F48093410790E09C01220F93
:1003D600331F220F331F220F331F820F931FB801C3
:1003E6008452994F0E941306E0913507F091360723
:1003F6009E898689981708F4B2CFDC2CB0CFE0919D
:100406003507F0913607868990E0FC01EE0FFF1F55
:10041600EE0FFF1FEE0FFF1F8E0F9F1FFC01E45212
:10042600F94F8081823048F0DD24D39406C0809154
:100436003F078F5F80933F07D12C80913E0788232B
:1004460011F0DD24D3948D2DDF91CF911F910F9163
:0A045600FF90EF90DF90CF90089523
:10046000DF92EF92FF920F931F93CF93DF930FB61C
:10047000F8940F9280913B07815080933B078091C5
:100480003B07811162C080914207811133C060C077
:10049000D7011596ED91FC911697C681D781CE01B3
:1004A0000C960E94C9058E010E5F1F4FC8010E9465
:1004B000C9058E8990914107981710F480934107E0
:1004C00090E09C01220F331F220F331F220F331F96
:1004D000820F931FB8018452994F0E941306E09136
:1004E0003507F09136079E898689981758F0D09283
:1004F0003E0708C00F2EF9E0EF2EF7E0FF2EF02D9B
:10050000DD24D394F70180818111C2CF80913F0710
:10051000882399F080913F07882379F0C1E00E94F9
:1005200073018111C0933E0780913F0781508093F2
:100530003F0780913F078111F2CF80913E078130C4
:1005400031F40E94E70381E003C080E001C080E055
:100550000F900FBEDF91CF911F910F91FF90EF9001
:04056000DF9008958B
:1005640080913B07882321F081E080933E07089522
:1005740010923E078091410790E0FC01EE0FFF1FAF
:10058400EE0FFF1FEE0FFF1F8E0F9F1FFC01E452A3
:10059400F94F8081811117C0809141078150809368
:1005A40041078091410790E0FC01EE0FFF1FEE0F21
:1005B400FF1FEE0FFF1F8E0F9F1FFC01E452F94F28
:1005C4008081882349F38091410790E09C01220FA8
:1005D400331F220F331F220F331F280F391FD90156
:1005E400A452B94F1196ED91FC9112970280F381B8
:1005F400E02D1296FC93EE9311972152394FE21796
:10060400F30729F422813381FD0132832183FC0124
:10061400EE0FFF1FEE0FFF1FEE0FFF1F8E0F9F1F2A
:10062400FC01E452F94F0180F281E02D868197812B
:0A0634009093360780933507089570
:10063E0031E1FC013083319722E220833197A3E32D
:10064E00A0833197608331977083319710823197F1
:10065E0060E8608331971082319762E06083319752
:10066E0063E06083319764E06083319765E0608377
:10067E00319766E06083319767E06083319768E079
:10068E006083319769E06083319760E160833197D1
:10069E003083319732E13083319733E130833197B4
:1006AE0034E13083319735E13083319736E1308351
:1006BE00319737E13083319738E13083319739E123
:1006CE003083319730E23083319731E23083319786
:1006DE002083319723E220833197408331975083D3
:1006EE00319726E22083319727E22083319728E243
:1006FE002083319729E22083319720E3208331979D
:08070E0021E320838697089582
:100716000F920FB6F8940F921F9211242F923F92C8
:100726004F925F926F927F928F929F92AF92BF92FB
:10073600CF92DF92EF92FF920F931F932F933F93E7
:100746004F935F936F937F938F939F93AF93BF93D3
:10075600CF93DF93EF93FF93A0913507B0913607C0
:100766000DB60D920EB60D920E94730181110E9474
:10077600B202A0913507B0913607CD91CDBFDD917C
:10078600DEBFFF91EF91DF91CF91BF91AF919F9126
:100796008F917F916F915F914F913F912F911F9113
:1007A6000F91FF90EF90DF90CF90BF90AF909F900A
:1007B6008F907F906F905F904F903F902F901F90FB
:0807C6000F900FBE0F90089583
:1007CE000F920FB6F8940F921F9211242F923F9210
:1007DE004F925F926F927F928F929F92AF92BF9243
:1007EE00CF92DF92EF92FF920F931F932F933F932F
:1007FE004F935F936F937F938F939F93AF93BF931B
:10080E00CF93DF93EF93FF93A0913507B091360707
:10081E000DB60D920EB60D920E94B202A091350742
:10082E00B0913607CD91CDBFDD91DEBFFF91EF9137
:10083E00DF91CF91BF91AF919F918F917F916F91EA
:10084E005F914F913F912F911F910F91FF90EF90DC
:10085E00DF90CF90BF90AF909F908F907F906F90D2
:10086E005F904F903F902F901F900F900FBE0F9064
:02087E000895DB
:100880000F931F93CF93DF938C01EB010E948A0695
:1008900020912F0730913007F80180819181C80F96
:1008A000D91F2817390748F4C817D90710F5D1837D
:1008B000C0832C173D0790F407C0C817D907A8F0CC
:1008C0002C173D0790F015C08091350790913607A1
:1008D00002960E94C905CE010E9401050E943002C5
:1008E00081110BC00E94E70308C0F801D183C083C7
:1008F000EBCFF801D183C083F1CFDF91CF911F916E
:040900000F910895B6
:100904008CE790E09093890080938800E0E8F0E021
:1009140080818C7F80838BE080938100EFE6F0E020
:10092400808182608083A0913507B0913607CD9194
:10093400CDBFDD91DEBFFF91EF91DF91CF91BF91EC
:10094400AF919F918F917F916F915F914F913F9163
:100954002F911F910F91FF90EF90DF90CF90BF9058
:10096400AF909F908F907F906F905F904F903F904B
:100974002F901F900F900FBE0F90089581E008955F
:1009840000E017E00F2EFCEDEF2EF6E0FF2EF02D29
:1009940029C00E948A06D801CC910E943002CC233F
:1009A40009F10FB6F8940F92D8011596ED91FC91C8
:1009B4001697C681D781CE0102960E94C9058091FF
:1009C400420781508093420780914307815080936E
:1009D40043070F900FBE8F89988D0E94A306CE0106
:1009E4000E94A306809143078111D3CFF701808130
:0E09F400823010F00E94E7030E94A206F3CFAB
:100A0200CF93DF93EC01E0913507F09136079383A2
:100A1200828380912F0790913007C817D90768F415
:100A220060913507709136078091310790913207B6
:100A32006E5F7F4F0E946D0517C060913507709100
:100A4200360780913307909134076E5F7F4F0E9483
:100A52006D0580912D0790912E07C817D90720F4B4
:0E0A6200D0932E07C0932D07DF91CF910895FA
:100A7000CF93DF93EC010E948A0680913707909113
:100A80003807892B31F481E091E090933807809307
:100A900037072091390730913A07C9018C0F9D1F04
:100AA0008B3D45E0940770F42817390770F4C09126
:100AB0003707D0913807C20FD31F90933A0780931E
:100AC000390705C0C0E0D0E002C0C0E0D0E00E941D
:0A0AD0003002CE01DF91CF910895AE
:100ADA00CF93DF93EB01488159814F3F2FEF5207A4
:100AEA0021F4FC01A781B0850DC0DC01139601C079
:100AFA00DF011296ED91FC91139720813181421703
:100B0A005307B0F71296ED91FC911397FB83EA8392
:100B1A00D583C483BD83AC831396DC93CE9312979B
:100B2A0099878887FC0120812F5F2083DF91CF91ED
:020B3A0008951C
:100B3C00AF92BF92CF92DF92EF92FF920F93A12CC4
:100B4C00B12CC12CD12CE12CF12C00E020E030E0B8
:100B5C0045E550E064E277E082EC94E00E946700A7
:100B6C00813049F4F894809340071092300710922A
:100B7C002F070E9482040F91FF90EF90DF90CF908F
:060B8C00BF90AF90089538
:100B9200CF93DF93FC01A085B185C281D38184818B
:100BA20095819D838C83C481D581828193819B832E
:100BB2008A8311968D919C911297E817F90731F467
:100BC2008481958112969C938E931197118610863B
:0C0BD2008C9181508C93DF91CF9108959D
:100BDE00AF92BF92CF92DF92EF92FF920F93A12C22
:100BEE00B12CC12CD12CE12CF12C01E020E030E015
:100BFE0045E550E069E277E083E596E00E94670004
:100C0E000E949E0580E090E00F91FF90EF90DF90A4
:080C1E00CF90BF90AF90089544
:100C2600CF93DF939C01FB01DC011196CD91DC9102
:100C36001297D383C2838C819D81958384838C8113
:100C46009D81DC0113967C936E9312977D836C8352
:100C560031872087F90180818F5F8083DF91CF9173
:020C66000895EF
:100C6800E0913307F09134078081811107C08FEF3D
:100C78009FEF90932E0780932D070895E0913307F7
:100C8800F09134070580F681E02D0680F781E02D8C
:0E0C98008281938190932E0780932D070895FB
:100CA600CF93DF9300D0CDB7DEB70E949E060E9499
:100CB60080069A8389830E94900668EE73E0CE01CF
:080CC60001960E944004F7CFE3
:100CCE00FC010396928381832FEF3FEF34832383BE
:0C0CDE0096838583908787831082089599
:100CEA00EC010E94A5060E94A406CE010E94A60657
:060CFA00CE010E94A006DD
:100D00000FB6F8940F9280912F07909130070F90B3
:040D10000FBE089575
:0C0D140080913B078F5F80933B070895A0
:0A0D200095B180E2892785B9089596
:080D2A00FC01118610860895FA
:060D32000E948B031895DE
:040D38000C94000017
:040D3C00259A089557
:040D40000E946500A8
:020D4400089510
:020D460008950E
:020D480008950C
:020D4A0008950A
:020D4C00089508
:050D4E0049444C450082
:040D53004C454400C7
:020D5700FFFF9C
:00000001FF
