:100000000C944F000C94850F0C94850F0C94850F65
:100010000C94850F0C94850F0C94850F0C94850F10
:100020000C94850F0C94850F0C94850F0C94820F03
:100030000C94850F0C94850F0C94850F0C94850FF0
:100040000C94850F0C94850F0C94850F0C94850FE0
:100050000C94850F0C94850F0C94850F0C94850FD0
:100060000C94850F0C94850F010007008007000891
:100070005F001F1A085F08A78008A708AC00207956
:1000800008AC08B28008B208B400207E08B408CDDD
:100090008008CD08CE00208008CE08D5800011242D
:1000A0001FBECFEFD8E0DEBFCDBFE8E6F0E040E016
:1000B00017C0B591A59135912591059107FD0CC00B
:1000C00095918591EF01F92FE82F05900D92A217D8
:1000D000B307D9F7FE0104C01D92A217B307E1F7D9
:1000E000ED39F40731F70E940E0B0C94430FF8948E
:0200F000FFCF40
:1000F2004F925F926F927F928F929F92AF92BF9236
:10010200CF92DF92EF92FF920F93CF93DF934C0146
:100112006B012901642E712CC3010E947A045C01D7
:10012200892B09F4FDC088E290E00E947A04EC0178
:10013200892BC1F088E2DE011D928A95E9F7B88E1B
:10014200AF8AA30165EA70E0C5010E94630FC30193
:1001520001974F89588D5A01A80EB91EC114D104B6
:1001620029F41EC0C5010E945908DAC0F601808137
:10017200898F8081882399F0AE01465E5F4F319668
:1001820088E0C80ED11CCF012191DA012D93AD0177
:10019200DC018C91882319F0EC15FD05A1F718A25A
:1001A200043008F003E00E8B09A36E01B2E0CB0E1F
:1001B200D11CC6010E947A0FCE010C960E947A0FC2
:1001C200D987C88784E090E0801B91099D878C873E
:1001D200DB8BCA8BA201B401C5010E94C8089983B6
:1001E2008883E114F10409F49DC0F701D183C0832F
:1001F20099C0D093C108C093C0088091D3088130C0
:10020200E9F58FE598E00E94FB0E88E698E00E94EF
:10021200FB0E81E798E00E94FB0E8AE798E00E94BD
:10022200FB0E8EE998E00E94FB0E85E998E00E94A1
:10023200FB0E8CE898E00E94FB0E83E898E00E9497
:10024200FB0E8EE998E09093BF088093BE0885E983
:1002520098E09093BD088093BC0810C08091D108AB
:1002620081110CC0E091C008F091C10896898E8975
:10027200891720F0D093C108C093C0088091CE089E
:100282008F5F8093CE088E899091D208981710F4D0
:100292008093D20890E0FC01EE0FFF1FEE0FFF1FCC
:1002A200EE0FFF1F8E0F9F1FFC01E15AF74F0180D7
:1002B200F281E02DFD83EC83848195819F838E837F
:1002C200A481B5811396DC92CE921297D582C48214
:1002D200EE89F0E0CF01880F991F880F991F880FD0
:1002E200991FE80FF91FE15AF74FFB87EA878081D0
:1002F2008F5F80830F900FBE8091D108882361F0B9
:10030200E091C008F091C10896898E89981730F45F
:100312000E94B50A81E016C081E014C081E012C0DB
:100322008FEF10C00FB6F8940F928091D3088F5FB1
:100332008093D3088091C0089091C108892B09F05D
:100342008DCF57CFDF91CF910F91FF90EF90DF903C
:10035200CF90BF90AF909F908F907F906F905F9063
:040362004F9008951B
:10036600EF92FF920F931F93CF93DF938091CC0868
:10037600811104C1C091BA08D091BB087E018FEFEC
:10038600E81AF80AF092BB08E092BA08E114F10400
:10039600B9F48091BE089091BF082091BC083091B5
:1003A600BD083093BF082093BE089093BD08809384
:1003B600BC088091CF088F5F8093CF080E94430EC0
:1003C6008091B6089091B708E816F90610F480E017
:1003D600B9C080E061E0E091BE08F091BF0890816D
:1003E600911107C02FEF3FEF3093B7082093B6085F
:1003F600A9C0E091BE08F091BF080580F681E02D06
:100406000680F781E02D22813381E216F30628F477
:100416003093B7082093B60895C0A285B38524818A
:10042600358146815781E9015D834C832681378179
:1004360044815581E9015B834A83AF014E5F5F4F7B
:1004460011962D913C9112972417350731F4268188
:10045600378112963C932E931197138612869C91A0
:1004660091509C93A489B589109719F126853785F3
:1004760000891189E9011D830C832089318906854C
:100486001785E9011B830A8311960D911C9112971A
:100496009F01245F3F4F0217130731F420893189EA
:1004A60012963C932E931197158A148A9C9191501B
:1004B6009C9326899091D208921710F42093D20823
:1004C60030E0D901AA0FBB1FAA0FBB1FAA0FBB1F83
:1004D6002A0F3B1FD901A15AB74F11960D90BC9117
:1004E600A02DB583A48314962D913C91159737833F
:1004F600268314962D913C911597E9015B834A83D7
:1005060015965C934E931497A689B0E09D01220F31
:10051600331F220F331F220F331FA20FB31FA15AFF
:10052600B74FB387A2879C919F5F9C93A091C00809
:10053600B091C108268956969C91921708F04BCF28
:10054600862F49CFE091C008F091C108268930E096
:10055600F901EE0FFF1FEE0FFF1FEE0FFF1F2E0F0D
:100566003F1FF901E15AF74F9081923008F081E080
:100576009091D008992361F081E00AC08091B80873
:100586009091B90801969093B9088093B80880E0D5
:0E059600DF91CF911F910F91FF90EF9008958C
:1005A4001F93CF93DF930FB6F8940F928091CC08EA
:1005B40081508093CC088091CC088111CAC080916D
:1005C400D30881119BC0C8C0DB011596ED91FC9145
:1005D40016970680F781E02DA489B58986859785CD
:1005E40020893189EC013D832C838089918926857A
:1005F4003785EC013B832A83CF010C9611962D910C
:100604003C9112972817390731F480899189129601
:100614009C938E931197158A148A8C9181508C9394
:10062400A285B3858481958126813781EC013D8340
:100634002C838681978124813581EC013B832A8335
:100644009F012E5F3F4F11968D919C9112978217B7
:10065400930731F48681978112969C938E93119718
:10066400138612868C9181508C9386899091D2083E
:10067400981710F48093D20890E0DC01AA0FBB1FF6
:10068400AA0FBB1FAA0FBB1F8A0F9B1FDC01A15A15
:10069400B74F11960D90BC91A02DB583A4831496E9
:1006A4008D919C9115979783868314968D919C9137
:1006B4001597EC013B832A8315963C932E9314974C
:1006C400A689B0E0CD01880F991F880F991F880F64
:1006D400991FA80FB91FA15AB74FB387A2878C914E
:1006E4008F5F8C93A091C008B091C10896895696EB
:1006F4008C91891740F44093D00805C0E0E0F0E005
:100704006CE878E041E0DB018C9181115DCFEF2B47
:1007140011F00E94430EC091B808D091B9082097F7
:1007240061F011E00E94B30181111093D008219768
:10073400C9F71092B9081092B8088091D00888239C
:1007440051F08091C0089091C1080E94B50A81E0DF
:1007540003C080E001C080E00F900FBEDF91CF9115
:040764001F91089544
:10076800CF93DF93CDB7DEB766970FB6F894DEBFA9
:100778000FBECDBF84B1806C84B98AB180668AB956
:1007880087B1807F87B988B18F6088B9209A80E166
:10079800E1E4F7E0DE01119601900D928A95E1F708
:1007A800198A1A8A1B8A1C8A612C512C4E0181E1F4
:1007B800880E911C6894332432F8282C9E8A44248D
:1007C8004394FE0131965F0100E085B1806C85B9E4
:1007D8008BB180668BB9013041F028F0023039F0D6
:1007E800033039F007C02E9805C02F9803C05D98D4
:1007F80001C05E9881E090E00E94930E650111E3CC
:10080800E12CF12C0F2EF1E37F2EF02D700E86B126
:1008180090E00E2C02C0959587950A94E2F780FD2A
:100828004FC0F60180818D8B82E397E00E94DD0E38
:10083800872D0E946C0F87E397E00E94DD0E812FC1
:100848000E946C0F8EE397E00E94DD0E8D890E9456
:100858006C0F8AE00E946C0F20E04FEF5FEFBE0143
:100868006B5E7F4F8091B0089091B1080E949F06FF
:100878008D898A3241F4F401832D11928A95E9F722
:10088800642C512C19C06620B9F090ED980F9A305D
:1008980048F492E0951530F0F401E50DF11D8083E0
:1008A80053940AC0833239F4652D822D9E890E94A3
:1008B800D907612C01C0612C88EE93E00E94930E49
:1008C800EFEFEE1AFE0AFFEFCF1ADF0A1F5F1533AC
:1008D80009F09DCF0F5F84E0A80EB11C043009F029
:0C08E80074CF8AE090E00E94930E6BCF6A
:1008F4000F931F93CF93DF939C01215031092B3F1A
:100904003F4F18F4EC01249602C0C0E0D0E00E94EE
:10091400740F8091CA089091CB08892B59F540E057
:1009240051E0ACEAB8E011965C934E9313961C9296
:100934001E921297CA01A0E0B0E084509A4FAF4FC4
:10094400BF4F9C019093CB088093CA08FC0113828B
:1009540012821182108220503140FA0133832283A3
:10096400918380833093C7082093C6083093C908C5
:100974002093C8081C161D060CF069C08091C80895
:100984009091C9088C179D0708F464C0E091AC08E5
:10099400F091AD086CEA78E002C0BF01F901228150
:1009A40033812C173D0728F420813181211531052D
:1009B400A1F72091CA083091CB08E217F30709F494
:1009C4004CC0DB010D911C9111970C5F1F4F2081CE
:1009D40031812D933C93228133812C1B3D0B293093
:1009E400310598F0AF014C0F5D1FDA0113963C936B
:1009F4002E931297D383C283DB012D913C91DA01AC
:100A04002D933C93DB014D935C9322813381821BB4
:100A1400930B9093C9088093C8084091C6085091DD
:100A2400C7088417950720F49093C7088093C608D5
:100A3400306833832283118210828091C40890919C
:100A4400C50801969093C5088093C40808C000E0C7
:100A540010E005C000E010E002C000E010E00E94D9
:0E0A6400D202C801DF91CF911F910F9108952A
:100A7200CF93DF93DC011596ED91FC9116970680DA
:100A8200F781E02DA489B589C685D78580899189AA
:100A92009D838C83C089D189868597859B838A8330
:100AA2009F01245F3F4F11968D919C91129782175F
:100AB200930731F48089918912969C938E931197B2
:100AC200158A148A8C9181508C938091CC08811163
:100AD20060C0A285B385C481D581868197819D83BB
:100AE2008C83C681D781848195819B838A839F0170
:100AF2002E5F3F4F11968D919C911297821793070B
:100B020031F48681978112969C938E931197138666
:100B120012868C9181508C9386899091D208981775
:100B220010F48093D20890E0DC01AA0FBB1FAA0F39
:100B3200BB1FAA0FBB1F8A0F9B1FDC01A15AB74F15
:100B420011960D90BC91A02DB583A48314968D911E
:100B52009C911597978386831496CD91DC91159776
:100B62003B832A8315963C932E931497A689B0E073
:100B7200CD01880F991F880F991F880F991FA80F01
:100B8200B91FA15AB74FB387A2878C918F5F8C93FD
:100B92001CC04CE858E0DA011196CD91DC91129715
:100BA200D787C6878C819D81918B808B8C819D811B
:100BB200DC0113963C932E9312973D832C83558B25
:100BC200448BDA018C918F5F8C93A091C008B09115
:100BD200C108968956968C91891720F481E08093FA
:0C0BE200D00801C080E0DF91CF910895A1
:100BEE008091CC08882321F081E08093D00808956D
:100BFE001092D008E091C008F091C1080788F08DDE
:100C0E00E02D80819181A281B381853A954AA54AD2
:100C1E00B54AD9F484819581A681B781853A954AE2
:100C2E00A54AB54A91F480859185A285B385853A0A
:100C3E00954AA54AB54A49F484859585A685B78512
:100C4E00853A954AA54AB54A61F06091C0087091FF
:100C5E00C1088091C0089091C108675E7F4F0E94C5
:100C6E00150F2091D208822F90E0FC01EE0FFF1F8E
:100C7E00EE0FFF1FEE0FFF1FE80FF91FE15AF74FA0
:100C8E003081311111C02150822F90E0FC01EE0F06
:100C9E00FF1FEE0FFF1FEE0FFF1FE80FF91FE15AA8
:100CAE00F74F3081332379F3AC01440F551F440FB6
:100CBE00551F440F551F480F591FFA01E15AF74FA0
:100CCE00A181B28112966D917C911397728361838B
:100CDE004E59574F6417750779F4FC01EE0FFF1F3D
:100CEE00EE0FFF1FEE0FFF1FE80FF91FE15AF74F30
:100CFE004581568152834183FC01EE0FFF1FEE0F9B
:100D0E00FF1FEE0FFF1F8E0F9F1FFC01E15AF74FC3
:100D1E000180F281E02D868197819093C1088093A6
:100D2E00C0082093D2088091C0089091C108089500
:100D3E009F92AF92BF92CF92DF92EF92FF920F935C
:100D4E001F93CF93DF9300D000D00F92CDB7DEB7B5
:100D5E008C016B015D834C83A22EB12C992493944C
:100D6E007C0188E0E80EF11C0FB6F8940F92F801A2
:100D7E00928D838D981718F0F2E0AF1219C04A2D9C
:100D8E00B601C8010E94FA09F8019189992349F028
:100D9E00C80141960E943905882331F00E94B50A98
:100DAE0003C081110E94B50A0F900FBE81E050C0A2
:100DBE008C819D81892B21F40F900FBE80E048C05D
:100DCE00B11005C0CE0101960E94380FB92C0F90BC
:100DDE000FBE0E94740F0FB6F8940F92F801858D16
:100DEE008F3F09F4158EF801868D8F3F09F4168E0C
:100DFE000F900FBEBE016C5F7F4FCE0101960E9419
:100E0E00A40D81111FC00FB6F8940F92F801928DA8
:100E1E000F900FBE838D98130FC06C817D81C7011B
:100E2E000E94BB0EC8010E94FA0B0E94D2028111D1
:100E3E009BCF0E94B50A98CFC8010E94FA0B0E9460
:100E4E00D20292CFC8010E94FA0B0E94D20280E019
:100E5E000F900F900F900F900F90DF91CF911F91E9
:100E6E000F91FF90EF90DF90CF90BF90AF909F903B
:020E7E000895D5
:100E80009F92AF92BF92CF92DF92EF92FF920F9319
:100E90001F93CF93DF9300D000D00F92CDB7DEB772
:100EA0008C015B015D834C83E12C992493946C014C
:100EB00081E1C80ED11C0FB6F8940F92F801F28CA4
:100EC000FF20A9F0B501C8010E94790EFA94F8013B
:100ED000F28E8085882339F0C80108960E94390572
:100EE00081110E94B50A0F900FBE81E051C08C8124
:100EF0009D81892B21F40F900FBE80E049C0E11045
:100F000005C0CE0101960E94380FE92C0F900FBE4C
:100F10000E94740F0FB6F8940F92F801858D8F3FE1
:100F200009F4158EF801868D8F3F09F4168E0F9007
:100F30000FBEBE016C5F7F4FCE0101960E94A40DD3
:100F400081111AC0C8010E942D0F882379F06C818D
:100F50007D81C6010E94BB0EC8010E94FA0B0E944F
:100F6000D2028111A8CF0E94B50AA5CFC8010E9464
:100F7000FA0B0E94D2029FCFC8010E94FA0B0E9476
:100F8000D202C8010E942D0F882309F494CF80E07B
:100F90000F900F900F900F900F90DF91CF911F91B6
:100FA0000F91FF90EF90DF90CF90BF90AF909F9008
:020FB0000895A2
:100FB2000F931F93CF93DF9361110BC080E091E0F9
:100FC2009093B3088093B20880E097E00E94DD0E10
:100FD2006AC00E94060DEC018F3F910511F008F0E6
:100FE2005EC09093B3088093B20881E197E00E94BB
:100FF200DD0E9E013695279536952795ABE7B4E130
:101002000E94EC0E96958795805D0E946C0F9E0162
:10101200ADECBCEC0E94EC0E8C0116950795169572
:1010220007951695079598010E94EC0E969587955F
:1010320096958795969587959C01220F331F880F69
:10104200991F880F991F880F991F820F931F98016C
:10105200281B390BC901805D0E946C0FC801880FE3
:10106200991F000F111F000F111F000F111F080FF2
:10107200191FCE01801B910B805D0E946C0F8AE0CC
:101082000E946C0F8DE197E00E94FB0D8DE197E0CD
:101092000E94FB0D8DE197E00E94FB0D04C08FE1E1
:1010A20097E00E94DD0EDF91CF911F910F9108957D
:1010B200CF93DF93009709F467C0FC013497228134
:1010C200338133230CF060C040815181452B09F0FC
:1010D2005BC0EF013F77338322830E94740F4A8102
:1010E2005B818091C8089091C908840F951F9093E5
:1010F200C9088093C808ECEAF8E001C0FC018081CD
:1011020091818C179D07D0F322813381BF01620F39
:10111200731FC617D70729F4240F351F3383228381
:10112200EF012A813B81DE01A20FB31F8A179B07C1
:10113200C9F48091CA089091CB08A817B90779F031
:1011420012968D919C911397280F391F3B832A8306
:10115200A081B1818D919C919983888305C0B983C7
:10116200A88302C099838883EC17FD0711F0D1830D
:10117200C0838091C2089091C30801969093C308DE
:0E1182008093C2080E94D202DF91CF9108959F
:1011900031E1FC013083319722E220833197A3E3D0
:1011A000A083319760833197708331971082319794
:1011B00060E8608331971082319762E060833197F5
:1011C00063E06083319764E06083319765E060831A
:1011D000319766E06083319767E06083319768E01C
:1011E0006083319769E06083319760E16083319774
:1011F0003083319732E13083319733E13083319757
:1012000034E13083319735E13083319736E13083F3
:10121000319737E13083319738E13083319739E1C5
:101220003083319730E23083319731E23083319728
:101230002083319723E22083319740833197508375
:10124000319726E22083319727E22083319728E2E5
:101250002083319729E22083319720E3208331973F
:0812600021E320838697089525
:10126800EF92FF920F931F93CF93DF93FC01362FDA
:10127800892B09F44CC0238D222309F44AC0022F7C
:1012880010E0448DE42EF12C8FEF9FEFB8010E94FF
:10129800A70E6E157F0508F43EC0EF010FB6F8944F
:1012A8000F9260817181CB01249F800D911D1124C3
:1012B80095838483128E73836283015011090E9D76
:1012C800C0010F9D900D1E9D900D1124860F971F34
:1012D800978386838FEF858F868F31110CC0808529
:1012E800882389F0CF0108960E943905882359F090
:1012F8000E94B50A08C0CF0108960E94FB0ECE01D5
:1013080041960E94FB0E0F900FBE81E005C080E061
:1013180003C080E001C080E0DF91CF911F910F9161
:06132800FF90EF90089514
:10132E000F931F93CF93DF93FC01892B09F451C0C8
:10133E0082A1815082A3268991A1291709F44BC05D
:10134E0081114BC0EF018F010E5F1F4FC8010E942C
:10135E00D50D89A18E8B24E030E0281B31093D8705
:10136E002C879091D208981710F48093D20890E0B1
:10137E00FC01EE0FFF1FEE0FFF1FEE0FFF1F8E0F74
:10138E009F1FFC01E15AF74F0180F281E02DFD8392
:10139E00EC83848195819F838E83A481B58113967E
:1013AE001C930E93129715830483EE89F0E0CF0100
:1013BE00880F991F880F991F880F991FE80FF91F23
:1013CE00E15AF74FFB87EA8780818F5F808381E048
:1013DE0005C080E003C080E001C080E0DF91CF91C6
:0613EE001F910F9108950C
:1013F4000F931F93CF93DF93EC01042F1A8D4C8D21
:1014040041110CC088819981892B09F042C08C81DB
:101414009D810E9497091D821C8242C0011117C040
:1014240050E08A819B810E944E0F2C8D8A819B8182
:10143400820F911D9B838A832C813D8182179307A0
:1014440050F1888199819B838A8380E029C050E090
:101454008E819F810E944E0F8C8D90E09195819595
:1014640091092E813F81280F391F3F832E834881A4
:1014740059812417350730F42C813D81820F931F45
:101484009F838E83023049F4112349F0115080E088
:1014940007C080E005C080E003C080E001C080E0B8
:0E14A4001F5F1A8FDF91CF911F910F91089556
:1014B2000F920FB6F8940F921F9211242F923F921F
:1014C2004F925F926F927F928F929F92AF92BF9252
:1014D200CF92DF92EF92FF920F931F932F933F933E
:1014E2004F935F936F937F938F939F93AF93BF932A
:1014F200CF93DF93EF93FF93A091C008B091C108FF
:101502000DB60D920EB60D920E94B30181110E948A
:10151200F705A091C008B091C108CD91CDBFDD9172
:10152200DEBFFF91EF91DF91CF91BF91AF919F917C
:101532008F917F916F915F914F913F912F911F9169
:101542000F91FF90EF90DF90CF90BF90AF909F9060
:101552008F907F906F905F904F903F902F901F9051
:081562000F900FBE0F900895D9
:10156A000F920FB6F8940F921F9211242F923F9266
:10157A004F925F926F927F928F929F92AF92BF9299
:10158A00CF92DF92EF92FF920F931F932F933F9385
:10159A004F935F936F937F938F939F93AF93BF9371
:1015AA00CF93DF93EF93FF93A091C008B091C10846
:1015BA000DB60D920EB60D920E94F705A091C008C5
:1015CA00B091C108CD91CDBFDD91DEBFFF91EF9102
:1015DA00DF91CF91BF91AF919F918F917F916F9141
:1015EA005F914F913F912F911F910F91FF90EF9033
:1015FA00DF90CF90BF90AF909F908F907F906F9029
:10160A005F904F903F902F901F900F900FBE0F90BA
:02161A00089531
:10161C00EF92FF920F93E1E6F0E080E88083108276
:10162C000E94090F82EC97E00E94DD0E40E061E021
:10163C0080E10E94470C9093B1088093B008E12C94
:10164C00F12C01E020E030E040E866ED77E089E540
:10165C009FE00E94790020E030E040E860EE77E007
:10166C0089EC9CE00E94790020E030E040EC68EED0
:10167C0077E084EB93E00E94790020E030E040ECCE
:10168C0063EF77E08FE59EE00E94790020E030E088
:10169C0040EC69EF77E08DEC9EE00E9479000E94AF
:0E16AC005D0B80E090E00F91FF90EF900895AD
:1016BA00EF92FF920F93CF93DF93CDB7DEB72897C0
:1016CA000FB6F894DEBF0FBECDBF89E48983E8EA7E
:1016DA00F8E0DE0112962FEA38E081918D93882393
:1016EA0019F0E217F307C9F70F2EF4EBEF2EF8E023
:1016FA00FF2EF02D00E020E030E040E4BE016F5FF5
:10170A007F4F81E29FE00E947900882391F0813027
:10171A0081F4F8948FEF9FEF9093B7088093B608FF
:10172A0081E08093D1081092BB081092BA080E94F7
:10173A00890C8091CD0828960FB6F894DEBF0FBEAB
:0E174A00CDBFDF91CF910F91FF90EF900895EA
:10175800CF92DF92EF92FF920F931F93CF93DF9375
:10176800EC010091BA081091BB08E090BE08F09017
:10177800BF08C090BC08D090BD088091C008909167
:10178800C10802960E94D50DC00FD11FE091C00874
:10179800F091C108D383C283C017D10750F4609178
:1017A800C0087091C1086E5F7F4FC6010E94730D1B
:1017B80014C06091C0087091C1086E5F7F4FC70167
:1017C8000E94730D8091B6089091B708C817D90781
:1017D80020F4D093B708C093B608DF91CF911F913A
:0C17E8000F91FF90EF90DF90CF900895DC
:1017F400EF92FF920F931F93CF938C010FB6F8943F
:101804000F92FC01C68D1C16ACF48189811106C0AF
:1018140011C0F8018189811105C00CC07801F1E182
:10182400EF0EF11CC7010E94390581110E947E0F41
:10183400C15079F78FEFF801868F0F900FBE0FB666
:10184400F8940F92C58D1C16ACF48085811106C0E6
:1018540011C0F8018085811105C00CC07801F8E041
:10186400EF0EF11CC7010E94390581110E947E0F01
:10187400C15079F78FEFF801858F0F900FBECF918C
:0A1884001F910F91FF90EF9008955F
:10188E000F931F93CF93DF93282F362F882361F169
:10189E00082F10E0E62FF0E08FEF9FEFB8010E94C7
:1018AE00A70E6E177F0718F1239FC0011124813EEA
:1018BE00910504F5D32FC22F4F960E947A048C0106
:1018CE000097D1F0D11104C0FC019183808304C034
:1018DE004F96F80191838083F801C38FD48F61E016
:1018EE00C8010E94340908C000E010E005C000E005
:1018FE0010E002C000E010E0C801DF91CF911F910F
:04190E000F91089598
:1019120089EF90E09093890080938800E0E8F0E0FE
:1019220080818C7F80838BE080938100EFE6F0E002
:10193200808182608083A091C008B091C108CD915E
:10194200CDBFDD91DEBFFF91EF91DF91CF91BF91CE
:10195200AF919F918F917F916F915F914F913F9145
:101962002F911F910F91FF90EF90DF90CF90BF903A
:10197200AF909F908F907F906F905F904F903F902D
:101982002F901F900F900FBE0F90089581E0089541
:10199200219A81E8809380008AE080938100C1E0EF
:1019A200D1E00F2EF5E0EF2EF02DF12C08E810E03B
:1019B2008091B2089091B3088115914061F48F2D06
:1019C20090E0F80191838083FE0C8FEF8F0D8E3FA4
:1019D200B8F0E19415C08091B2089091B308C8178D
:1019E200D90769F0C091B208D091B3088091B208CA
:1019F2009091B3089927F8019183808301C0EC018B
:0A1A020082E390E00E94930ED3CF20
:101A0C00AC01FA0190814F5F5F4F9032D1F3292FD7
:101A1C00092E000C330B295031092530310588F380
:101A2C009B3209F540E050E0319602C040E050E0B6
:101A3C0080E090E06AE02191022E000C330B2053E1
:101A4C0031092A30310548F4689FD001699FB00DE7
:101A5C001124CD01821B930BEECF452B49F49195AC
:101A6C008195910908959D3209F741E050E0DCCF52
:021A7C000895CB
:101A7E000F931F93CF93DF938091D408882339F16E
:101A8E0003E818E00FB6F8940F92D8011596ED9171
:101A9E00FC911697C681D781CE0102960E94D50D74
:101AAE008091D30881508093D3088091D4088150BF
:101ABE008093D4080F900FBE8F89988D0E9459087D
:101ACE00CE010E9459088091D4088111DBCFDF919D
:081ADE00CF911F910F910895B3
:101AE600CF93DF93EB01488159814F3F2FEF520788
:101AF60021F4FC01A781B0850DC0DC01139601C05D
:101B0600DF011296ED91FC911397208131814217E6
:101B16005307B0F71296ED91FC911397FB83EA8376
:101B2600D583C483BD83AC831396DC93CE9312977F
:101B360099878887FC0120812F5F2083DF91CF91D1
:021B4600089500
:101B48000FB6F8940F922091BA083091BB08DC01C7
:101B580011964D915C911297E091CF08FC91FE1778
:101B680041F02417350728F0FB011182108281E02B
:101B780015C0241B350BDB014D915C9124173507EB
:101B880048F4FB01421B530B518340830E94380FDA
:101B980080E004C0FB011182108281E00F900FBE2B
:021BA80008959E
:101BAA00CF93DF93FC01A085B185C281D381848163
:101BBA0095819D838C83C481D581828193819B8306
:101BCA008A8311968D919C911297E817F90731F43F
:101BDA008481958112969C938E9311971186108613
:0C1BEA008C9181508C93DF91CF91089575
:101BF600CF93DF93FC0120812223C1F0EC01289AC8
:101C060089918E3229F488EC90E00E94930E06C0EA
:101C16008D3221F488E592E00E94930E289888EC94
:101C260090E00E94930E88818111E9CF80E293E0D3
:0A1C36000E94930EDF91CF910895F4
:101C4000803359F0E2E3F8E06FE578E021E030E03E
:101C5000A901908198130EC002C040E050E0FA0143
:101C6000EE0FFF1F4E0F5F1FFA01E15DF74F8181FD
:101C7000928108952F5F3F4F3396E617F70741F79C
:061C800080E090E00895F1
:101C8600E091BE08F091BF088081811107C08FEFF7
:101C96009FEF9093B7088093B6080895E091BE0829
:101CA600F091BF080580F681E02D808191819093A7
:081CB600B7088093B6080895F9
:101CBE00CF93DF930F92CDB7DEB74FEF5FEFBE013D
:101CCE006F5F7F4F8091B0089091B1080E944007DE
:101CDE00813099F789810E94200E009771F30E943E
:041CEE00FB0DEBCF30
:101CF200FC01448D4423A9F050E026813781240F52
:101D0200351F37832683848195812817390720F070
:101D12008081918197838683CB01668177810E943E
:041D22004E0F0895C3
:101D2600CF93DF93EC01892B51F00E94740F60E092
:101D3600CE010E94AC0B0E94D202811102C00E9409
:081D4600B50ADF91CF91089569
:101D4E00AA1BBB1B51E107C0AA1FBB1FA617B707D3
:101D5E0010F0A61BB70B881F991F5A95A9F78095EF
:081D6E009095BC01CD01089520
:101D7600CF93DF93EB016091C0087091C108645F57
:101D86007F4F0E94730D61E0CE010E94AC0BDF9184
:041D9600CF9108954C
:101D9A0085E098E00E94DD0EC0ECD0E006EC10E091
:101DAA0088818823ECF7F80180810E946C0FF8CFB4
:101DBA00CF93DF93EC018881882331F021960E942A
:0E1DCA006C0F89918111FBCFDF91CF910895AD
:101DD800A29FB001B39FC001A39F700D811D112464
:0E1DE800911DB29F700D811D1124911D089553
:101DF600FC010396928381832FEF3FEF3483238385
:0C1E06009683858390878783108208955F
:101E12001092C50083E38093C40088E18093C100DF
:081E220086E08093C2000895E0
:101E2A00EB0180EA97E00E94DD0ECE010E94DD0EF2
:081E3A008AE00E946C0FFFCF4B
:101E4200CFE5D8E00E943F0D8881823010F00E94D9
:081E5200B50A0E94890FF6CFCA
:101E5A000FB6F8940F92FC01928D0F900FBE81E09D
:061E6A00911180E00895D3
:101E70002091CF08FC0120832091BA083091BB0843
:061E800032832183089566
:101E8600EC010E948B0F0E948A0FCE010E948C0FDC
:061E9600CE010E94870F3F
:101E9C00FB01DC01480F591FA417B50719F021915C
:061EAC002D93FACF08950A
:101EB200229AC4E085B18C2785B980ED97E00E9413
:041EC200930EF8CFB4
:101EC600FC01480F591FE417F50711F06193FBCF8A
:021ED60008956D
:101ED800E0ECF0E0908195FFFDCF8093C600089577
:0C1EE8008091CC088F5F8093CC08089597
:081EF400FC011186108608951F
:081EFC0081E08093D0080895F5
:061F04000E94590A189525
:041F0A000C94000033
:041F0E000E947700B6
:021F1200089530
:021F140008952E
:021F160008952C
:021F180008952A
:101F1A0050574D2073657420746F204155544F0AF1
:101F2A000050574D2073657420746F20002E0049AD
:101F3A006E76616C69642050574D2076616C7565C8
:101F4A000A00526F7720002C20436F6C20003A2041
:101F5A00003132334134353642373839432A302357
:101F6A00442D2D2D2D2D002E2D2D2D2D002E2E2DD7
:101F7A002D2D002E2E2E2D2D002E2E2E2E2D002E06
:101F8A002E2E2E2E002D2E2E2E2E002D2D2E2E2EC6
:101F9A00002D2D2D2E2E002D2D2D2D2E002E2D0017
:101FAA002D2E2E2E002D2E2D2E002D2E2E002D0004
:101FBA000A5B4552524F525D20537461636B206F26
:101FCA00766572666C6F7720696E207461736B3AFE
:101FDA00200052544F532069732072756E6E696ED9
:101FEA00672E2E2E0A00426C696E6B5461736B0069
:101FFA0050574D5461736B004E756D706164546136
:10200A00736B004D6F72736500554152544D6F6E7C
:10201A0069746F720055415254204D6F6E69746F26
:10202A007220537461727465642E2E2E0A00303148
:0F203A0032333435363738394142434445460056
:10204900305107315707325D073363073469073564
:102059006F07367507377B07388107398707418D41
:1020690007429007439507449A072A1D07239E07AD
:0520790049444C450044
:02207E0000015F
:01208000035C
:00000001FF
