:100000000C944F000C94800F0C94800F0C94800F74
:100010000C94800F0C94800F0C94800F0C94800F24
:100020000C94800F0C94800F0C94800F0C947D0F17
:100030000C94800F0C94800F0C94800F0C94800F04
:100040000C94800F0C94800F0C94800F0C94800FF4
:100050000C94800F0C94800F0C94800F0C94800FE4
:100060000C94800F0C94800F0100050080050006A1
:100070005E001F10065E06A68006A606AB00206E78
:1000800006AB06B18006B106B300207306B306CCFA
:100090008006CC06CD00207506CD06D48000112444
:1000A0001FBECFEFD8E0DEBFCDBFE8E6F0E040E016
:1000B00017C0B591A59135912591059107FD0CC00B
:1000C00095918591EF01F92FE82F05900D92A217D8
:1000D000B307D9F7FE0104C01D92A217B307E1F7D9
:1000E000ED39F40731F70E940E0B0C943E0FF89493
:0200F000FFCF40
:1000F2004F925F926F927F928F929F92AF92BF9236
:10010200CF92DF92EF92FF920F93CF93DF934C0146
:100112006B012901642E712CC3010E947A045C01D7
:10012200892B09F4FDC088E290E00E947A04EC0178
:10013200892BC1F088E2DE011D928A95E9F7B88E1B
:10014200AF8AA30165EA70E0C5010E945E0FC30198
:1001520001974F89588D5A01A80EB91EC114D104B6
:1001620029F41EC0C5010E945908DAC0F601808137
:10017200898F8081882399F0AE01465E5F4F319668
:1001820088E0C80ED11CCF012191DA012D93AD0177
:10019200DC018C91882319F0EC15FD05A1F718A25A
:1001A200043008F003E00E8B09A36E01B2E0CB0E1F
:1001B200D11CC6010E94750FCE010C960E94750FCC
:1001C200D987C88784E090E0801B91099D878C873E
:1001D200DB8BCA8BA201B401C5010E94C8089983B6
:1001E2008883E114F10409F49DC0F701D183C0832F
:1001F20099C0D093C006C093BF068091D2068130C9
:10020200E9F58EE596E00E94F60E87E696E00E94FA
:10021200F60E80E796E00E94F60E89E796E00E94CD
:10022200F60E8DE996E00E94F60E84E996E00E94B1
:10023200F60E8BE896E00E94F60E82E896E00E94A7
:10024200F60E8DE996E09093BE068093BD0684E992
:1002520096E09093BC068093BB0610C08091D006B6
:1002620081110CC0E091BF06F091C00696898E897B
:10027200891720F0D093C006C093BF068091CD06A7
:100282008F5F8093CD068E899091D106981710F4D6
:100292008093D10690E0FC01EE0FFF1FEE0FFF1FCF
:1002A200EE0FFF1F8E0F9F1FFC01E25AF94F0180D4
:1002B200F281E02DFD83EC83848195819F838E837F
:1002C200A481B5811396DC92CE921297D582C48214
:1002D200EE89F0E0CF01880F991F880F991F880FD0
:1002E200991FE80FF91FE25AF94FFB87EA878081CD
:1002F2008F5F80830F900FBE8091D006882361F0BC
:10030200E091BF06F091C00696898E89981730F465
:100312000E94B50A81E016C081E014C081E012C0DB
:100322008FEF10C00FB6F8940F928091D2068F5FB4
:100332008093D2068091BF069091C006892B09F066
:100342008DCF57CFDF91CF910F91FF90EF90DF903C
:10035200CF90BF90AF909F908F907F906F905F9063
:040362004F9008951B
:10036600EF92FF920F931F93CF93DF938091CB066B
:10037600811104C1C091B906D091BA067E018FEFF2
:10038600E81AF80AF092BA06E092B906E114F10406
:10039600B9F48091BD069091BE062091BB063091BE
:1003A600BC063093BE062093BD069093BC06809390
:1003B600BB068091CE068F5F8093CE060E943E0ECE
:1003C6008091B5069091B606E816F90610F480E01D
:1003D600B9C080E061E0E091BD06F091BE06908173
:1003E600911107C02FEF3FEF3093B6062093B50665
:1003F600A9C0E091BD06F091BE060580F681E02D0C
:100406000680F781E02D22813381E216F30628F477
:100416003093B6062093B50695C0A285B385248190
:10042600358146815781E9015D834C832681378179
:1004360044815581E9015B834A83AF014E5F5F4F7B
:1004460011962D913C9112972417350731F4268188
:10045600378112963C932E931197138612869C91A0
:1004660091509C93A489B589109719F126853785F3
:1004760000891189E9011D830C832089318906854C
:100486001785E9011B830A8311960D911C9112971A
:100496009F01245F3F4F0217130731F420893189EA
:1004A60012963C932E931197158A148A9C9191501B
:1004B6009C9326899091D106921710F42093D10629
:1004C60030E0D901AA0FBB1FAA0FBB1FAA0FBB1F83
:1004D6002A0F3B1FD901A25AB94F11960D90BC9114
:1004E600A02DB583A48314962D913C91159737833F
:1004F600268314962D913C911597E9015B834A83D7
:1005060015965C934E931497A689B0E09D01220F31
:10051600331F220F331F220F331FA20FB31FA25AFE
:10052600B94FB387A2879C919F5F9C93A091BF060A
:10053600B091C006268956969C91921708F04BCF2B
:10054600862F49CFE091BF06F091C006268930E09C
:10055600F901EE0FFF1FEE0FFF1FEE0FFF1F2E0F0D
:100566003F1FF901E25AF94F9081923008F081E07D
:100576009091CF06992361F081E00AC08091B70679
:100586009091B80601969093B8068093B70680E0DE
:0E059600DF91CF911F910F91FF90EF9008958C
:1005A4001F93CF93DF930FB6F8940F928091CB06ED
:1005B40081508093CB068091CB068111CAC0809173
:1005C400D20681119BC0C8C0DB011596ED91FC9148
:1005D40016970680F781E02DA489B58986859785CD
:1005E40020893189EC013D832C838089918926857A
:1005F4003785EC013B832A83CF010C9611962D910C
:100604003C9112972817390731F480899189129601
:100614009C938E931197158A148A8C9181508C9394
:10062400A285B3858481958126813781EC013D8340
:100634002C838681978124813581EC013B832A8335
:100644009F012E5F3F4F11968D919C9112978217B7
:10065400930731F48681978112969C938E93119718
:10066400138612868C9181508C9386899091D10641
:10067400981710F48093D10690E0DC01AA0FBB1FF9
:10068400AA0FBB1FAA0FBB1F8A0F9B1FDC01A25A14
:10069400B94F11960D90BC91A02DB583A4831496E7
:1006A4008D919C9115979783868314968D919C9137
:1006B4001597EC013B832A8315963C932E9314974C
:1006C400A689B0E0CD01880F991F880F991F880F64
:1006D400991FA80FB91FA25AB94FB387A2878C914B
:1006E4008F5F8C93A091BF06B091C00696895696F1
:1006F4008C91891740F44093CF0605C0E0E0F0E008
:100704006BE876E041E0DB018C9181115DCFEF2B4A
:1007140011F00E943E0EC091B706D091B806209702
:1007240061F011E00E94B30181111093CF0621976B
:10073400C9F71092B8061092B7068091CF068823A5
:1007440051F08091BF069091C0060E94B50A81E0E5
:1007540003C080E001C080E00F900FBEDF91CF9115
:040764001F91089544
:10076800CF93DF93CDB7DEB766970FB6F894DEBFA9
:100778000FBECDBF84B1806C84B98AB180668AB956
:1007880087B1807F87B988B18F6088B9209A80E166
:10079800E1E4F5E0DE01119601900D928A95E1F70A
:1007A800198A1A8A1B8A1C8A612C512C4E0181E1F4
:1007B800880E911C6894332432F8282C9E8A44248D
:1007C8004394FE0131965F0100E085B1806C85B9E4
:1007D8008BB180668BB9013041F028F0023039F0D6
:1007E800033039F007C02E9805C02F9803C05D98D4
:1007F80001C05E9881E090E00E948E0E650111E3D1
:10080800E12CF12C0F2EF1E37F2EF02D700E86B126
:1008180090E00E2C02C0959587950A94E2F780FD2A
:100828004FC0F60180818D8B82E395E00E94D80E3F
:10083800872D0E94670F87E395E00E94D80E812FCD
:100848000E94670F8EE395E00E94D80E8D890E9462
:10085800670F8AE00E94670F20E04FEF5FEFBE014D
:100868006B5E7F4F8091AF069091B0060E949F0605
:100878008D898A3241F4F401832D11928A95E9F722
:10088800642C512C19C06620B9F090ED980F9A305D
:1008980048F492E0951530F0F401E50DF11D8083E0
:1008A80053940AC0833239F4652D822D9E890E94A3
:1008B800D907612C01C0612C88EC90E00E948E0E53
:1008C800EFEFEE1AFE0AFFEFCF1ADF0A1F5F1533AC
:1008D80009F09DCF0F5F84E0A80EB11C043009F029
:0C08E80074CF8AE090E00E948E0E6BCF6F
:1008F4000F931F93CF93DF939C01215031092B3F1A
:100904003F4F18F4EC01249602C0C0E0D0E00E94EE
:100914006F0F8091C9069091CA06892B59F540E062
:1009240051E0ABEAB6E011965C934E9313961C9299
:100934001E921297CA01A0E0B0E084509C4FAF4FC2
:10094400BF4F9C019093CA068093C906FC01138291
:1009540012821182108220503140FA0133832283A3
:10096400918380833093C6062093C5063093C806CE
:100974002093C7061C161D060CF069C08091C7069B
:100984009091C8068C179D0708F464C0E091AB06EB
:10099400F091AC066BEA76E002C0BF01F901228156
:1009A40033812C173D0728F420813181211531052D
:1009B400A1F72091C9063091CA06E217F30709F49A
:1009C4004CC0DB010D911C9111970C5F1F4F2081CE
:1009D40031812D933C93228133812C1B3D0B293093
:1009E400310598F0AF014C0F5D1FDA0113963C936B
:1009F4002E931297D383C283DB012D913C91DA01AC
:100A04002D933C93DB014D935C9322813381821BB4
:100A1400930B9093C8068093C7064091C5065091E6
:100A2400C6068417950720F49093C6068093C506DE
:100A3400306833832283118210828091C30690919F
:100A4400C40601969093C4068093C30608C000E0D0
:100A540010E005C000E010E002C000E010E00E94D9
:0E0A6400D202C801DF91CF911F910F9108952A
:100A7200CF93DF93DC011596ED91FC9116970680DA
:100A8200F781E02DA489B589C685D78580899189AA
:100A92009D838C83C089D189868597859B838A8330
:100AA2009F01245F3F4F11968D919C91129782175F
:100AB200930731F48089918912969C938E931197B2
:100AC200158A148A8C9181508C938091CB06811166
:100AD20060C0A285B385C481D581868197819D83BB
:100AE2008C83C681D781848195819B838A839F0170
:100AF2002E5F3F4F11968D919C911297821793070B
:100B020031F48681978112969C938E931197138666
:100B120012868C9181508C9386899091D106981778
:100B220010F48093D10690E0DC01AA0FBB1FAA0F3C
:100B3200BB1FAA0FBB1F8A0F9B1FDC01A25AB94F12
:100B420011960D90BC91A02DB583A48314968D911E
:100B52009C911597978386831496CD91DC91159776
:100B62003B832A8315963C932E931497A689B0E073
:100B7200CD01880F991F880F991F880F991FA80F01
:100B8200B91FA25AB94FB387A2878C918F5F8C93FA
:100B92001CC04BE856E0DA011196CD91DC91129718
:100BA200D787C6878C819D81918B808B8C819D811B
:100BB200DC0113963C932E9312973D832C83558B25
:100BC200448BDA018C918F5F8C93A091BF06B09118
:100BD200C006968956968C91891720F481E08093FD
:0C0BE200CF0601C080E0DF91CF910895A4
:100BEE008091CB06882321F081E08093CF06089573
:100BFE001092CF06E091BF06F091C0060788F08DE7
:100C0E00E02D80819181A281B381853A954AA54AD2
:100C1E00B54AD9F484819581A681B781853A954AE2
:100C2E00A54AB54A91F480859185A285B385853A0A
:100C3E00954AA54AB54A49F484859585A685B78512
:100C4E00853A954AA54AB54A61F06091BF06709102
:100C5E00C0068091BF069091C006675E7F4F0E94CE
:100C6E00100F2091D106822F90E0FC01EE0FFF1F96
:100C7E00EE0FFF1FEE0FFF1FE80FF91FE25AF94F9D
:100C8E003081311111C02150822F90E0FC01EE0F06
:100C9E00FF1FEE0FFF1FEE0FFF1FE80FF91FE25AA7
:100CAE00F94F3081332379F3AC01440F551F440FB4
:100CBE00551F440F551F480F591FFA01E25AF94F9D
:100CCE00A181B28112966D917C911397728361838B
:100CDE004F59594F6417750779F4FC01EE0FFF1F3A
:100CEE00EE0FFF1FEE0FFF1FE80FF91FE25AF94F2D
:100CFE004581568152834183FC01EE0FFF1FEE0F9B
:100D0E00FF1FEE0FFF1F8E0F9F1FFC01E25AF94FC0
:100D1E000180F281E02D868197819093C0068093A9
:100D2E00BF062093D1068091BF069091C00608950C
:100D3E009F92AF92BF92CF92DF92EF92FF920F935C
:100D4E001F93CF93DF9300D000D00F92CDB7DEB7B5
:100D5E008C016B015D834C83A22EB12C992493944C
:100D6E007C0188E0E80EF11C0FB6F8940F92F801A2
:100D7E00928D838D981718F0F2E0AF1219C04A2D9C
:100D8E00B601C8010E94FA09F8019189992349F028
:100D9E00C80141960E943905882331F00E94B50A98
:100DAE0003C081110E94B50A0F900FBE81E050C0A2
:100DBE008C819D81892B21F40F900FBE80E048C05D
:100DCE00B11005C0CE0101960E94330FB92C0F90C1
:100DDE000FBE0E946F0F0FB6F8940F92F801858D1B
:100DEE008F3F09F4158EF801868D8F3F09F4168E0C
:100DFE000F900FBEBE016C5F7F4FCE0101960E9419
:100E0E009F0D81111FC00FB6F8940F92F801928DAD
:100E1E000F900FBE838D98130FC06C817D81C7011B
:100E2E000E94B60EC8010E94FA0B0E94D2028111D6
:100E3E009BCF0E94B50A98CFC8010E94FA0B0E9460
:100E4E00D20292CFC8010E94FA0B0E94D20280E019
:100E5E000F900F900F900F900F90DF91CF911F91E9
:100E6E000F91FF90EF90DF90CF90BF90AF909F903B
:020E7E000895D5
:100E80009F92AF92BF92CF92DF92EF92FF920F9319
:100E90001F93CF93DF9300D000D00F92CDB7DEB772
:100EA0008C015B015D834C83E12C992493946C014C
:100EB00081E1C80ED11C0FB6F8940F92F801F28CA4
:100EC000FF20A9F0B501C8010E94740EFA94F80140
:100ED000F28E8085882339F0C80108960E94390572
:100EE00081110E94B50A0F900FBE81E051C08C8124
:100EF0009D81892B21F40F900FBE80E049C0E11045
:100F000005C0CE0101960E94330FE92C0F900FBE51
:100F10000E946F0F0FB6F8940F92F801858D8F3FE6
:100F200009F4158EF801868D8F3F09F4168E0F9007
:100F30000FBEBE016C5F7F4FCE0101960E949F0DD8
:100F400081111AC0C8010E94280F882379F06C8192
:100F50007D81C6010E94B60EC8010E94FA0B0E9454
:100F6000D2028111A8CF0E94B50AA5CFC8010E9464
:100F7000FA0B0E94D2029FCFC8010E94FA0B0E9476
:100F8000D202C8010E94280F882309F494CF80E080
:100F90000F900F900F900F900F90DF91CF911F91B6
:100FA0000F91FF90EF90DF90CF90BF90AF909F9008
:020FB0000895A2
:100FB2000F931F93CF93DF9361110BC080E091E0F9
:100FC2009093B2068093B10680E095E00E94D80E1D
:100FD2006AC00E94C90CEC018F3F910511F008F024
:100FE2005EC09093B2068093B10681E195E00E94C3
:100FF200D80E9E013695279536952795ABE7B4E135
:101002000E94E70E96958795805D0E94670F9E016C
:10101200ADECBCEC0E94E70E8C0116950795169577
:1010220007951695079598010E94E70E9695879564
:1010320096958795969587959C01220F331F880F69
:10104200991F880F991F880F991F820F931F98016C
:10105200281B390BC901805D0E94670FC801880FE8
:10106200991F000F111F000F111F000F111F080FF2
:10107200191FCE01801B910B805D0E94670F8AE0D1
:101082000E94670F8DE195E00E94F60D8DE195E0DB
:101092000E94F60D8DE195E00E94F60D04C08FE1ED
:1010A20095E00E94D80EDF91CF911F910F91089584
:1010B200CF93DF93009709F467C0FC013497228134
:1010C200338133230CF060C040815181452B09F0FC
:1010D2005BC0EF013F77338322830E946F0F4A8107
:1010E2005B818091C7069091C806840F951F9093EB
:1010F200C8068093C706EBEAF6E001C0FC018081D6
:1011020091818C179D07D0F322813381BF01620F39
:10111200731FC617D70729F4240F351F3383228381
:10112200EF012A813B81DE01A20FB31F8A179B07C1
:10113200C9F48091C9069091CA06A817B90779F037
:1011420012968D919C911397280F391F3B832A8306
:10115200A081B1818D919C919983888305C0B983C7
:10116200A88302C099838883EC17FD0711F0D1830D
:10117200C0838091C1069091C20601969093C206E7
:0E1182008093C1060E94D202DF91CF910895A2
:1011900031E1FC013083319722E220833197A3E3D0
:1011A000A083319760833197708331971082319794
:1011B00060E8608331971082319762E060833197F5
:1011C00063E06083319764E06083319765E060831A
:1011D000319766E06083319767E06083319768E01C
:1011E0006083319769E06083319760E16083319774
:1011F0003083319732E13083319733E13083319757
:1012000034E13083319735E13083319736E13083F3
:10121000319737E13083319738E13083319739E1C5
:101220003083319730E23083319731E23083319728
:101230002083319723E22083319740833197508375
:10124000319726E22083319727E22083319728E2E5
:101250002083319729E22083319720E3208331973F
:0812600021E320838697089525
:10126800EF92FF920F931F93CF93DF93FC01362FDA
:10127800892B09F44CC0238D222309F44AC0022F7C
:1012880010E0448DE42EF12C8FEF9FEFB8010E94FF
:10129800A20E6E157F0508F43EC0EF010FB6F89454
:1012A8000F9260817181CB01249F800D911D1124C3
:1012B80095838483128E73836283015011090E9D76
:1012C800C0010F9D900D1E9D900D1124860F971F34
:1012D800978386838FEF858F868F31110CC0808529
:1012E800882389F0CF0108960E943905882359F090
:1012F8000E94B50A08C0CF0108960E94F60ECE01DA
:1013080041960E94F60E0F900FBE81E005C080E066
:1013180003C080E001C080E0DF91CF911F910F9161
:06132800FF90EF90089514
:10132E000F931F93CF93DF93FC01892B09F451C0C8
:10133E0082A1815082A3268991A1291709F44BC05D
:10134E0081114BC0EF018F010E5F1F4FC8010E942C
:10135E00D00D89A18E8B24E030E0281B31093D870A
:10136E002C879091D106981710F48093D10690E0B7
:10137E00FC01EE0FFF1FEE0FFF1FEE0FFF1F8E0F74
:10138E009F1FFC01E25AF94F0180F281E02DFD838F
:10139E00EC83848195819F838E83A481B58113967E
:1013AE001C930E93129715830483EE89F0E0CF0100
:1013BE00880F991F880F991F880F991FE80FF91F23
:1013CE00E25AF94FFB87EA8780818F5F808381E045
:1013DE0005C080E003C080E001C080E0DF91CF91C6
:0613EE001F910F9108950C
:1013F4000F931F93CF93DF93EC01042F1A8D4C8D21
:1014040041110CC088819981892B09F042C08C81DB
:101414009D810E9497091D821C8242C0011117C040
:1014240050E08A819B810E94490F2C8D8A819B8187
:10143400820F911D9B838A832C813D8182179307A0
:1014440050F1888199819B838A8380E029C050E090
:101454008E819F810E94490F8C8D90E0919581959A
:1014640091092E813F81280F391F3F832E834881A4
:1014740059812417350730F42C813D81820F931F45
:101484009F838E83023049F4112349F0115080E088
:1014940007C080E005C080E003C080E001C080E0B8
:0E14A4001F5F1A8FDF91CF911F910F91089556
:1014B2000F920FB6F8940F921F9211242F923F921F
:1014C2004F925F926F927F928F929F92AF92BF9252
:1014D200CF92DF92EF92FF920F931F932F933F933E
:1014E2004F935F936F937F938F939F93AF93BF932A
:1014F200CF93DF93EF93FF93A091BF06B091C00605
:101502000DB60D920EB60D920E94B30181110E948A
:10151200F705A091BF06B091C006CD91CDBFDD9178
:10152200DEBFFF91EF91DF91CF91BF91AF919F917C
:101532008F917F916F915F914F913F912F911F9169
:101542000F91FF90EF90DF90CF90BF90AF909F9060
:101552008F907F906F905F904F903F902F901F9051
:081562000F900FBE0F900895D9
:10156A000F920FB6F8940F921F9211242F923F9266
:10157A004F925F926F927F928F929F92AF92BF9299
:10158A00CF92DF92EF92FF920F931F932F933F9385
:10159A004F935F936F937F938F939F93AF93BF9371
:1015AA00CF93DF93EF93FF93A091BF06B091C0064C
:1015BA000DB60D920EB60D920E94F705A091BF06C8
:1015CA00B091C006CD91CDBFDD91DEBFFF91EF9105
:1015DA00DF91CF91BF91AF919F918F917F916F9141
:1015EA005F914F913F912F911F910F91FF90EF9033
:1015FA00DF90CF90BF90AF909F908F907F906F9029
:10160A005F904F903F902F901F900F900FBE0F90BA
:02161A00089531
:10161C00EF92FF920F93E1E6F0E080E88083108276
:10162C000E94040F81EC95E00E94D80E40E061E02E
:10163C008AE00E94470C9093B0068093AF06E12C91
:10164C00F12C01E020E030E040E465ED75E084E54C
:10165C009FE00E94790020E030E040E46FED75E0FF
:10166C0082E09DE00E94790020E030E040E867EEE7
:10167C0075E084EB93E00E94790020E030E040E6D6
:10168C0062EF75E08AE59EE00E94790020E030E090
:10169C0040E668EF75E088EC9EE00E9479000E94BD
:0E16AC005D0B80E090E00F91FF90EF900895AD
:1016BA00EF92FF920F93CF93DF93CDB7DEB72897C0
:1016CA000FB6F894DEBF0FBECDBF89E48983E7EA7F
:1016DA00F6E0DE0112962EEA36E081918D93882398
:1016EA0019F0E217F307C9F70F2EF3EBEF2EF6E026
:1016FA00FF2EF02D00E020E030E040E8BE016F5FF1
:10170A007F4F8CE19FE00E947900882391F081301D
:10171A0081F4F8948FEF9FEF9093B6068093B50605
:10172A0081E08093D0061092BA061092B9060E9400
:10173A00890C8091CC0628960FB6F894DEBF0FBEAE
:0E174A00CDBFDF91CF910F91FF90EF900895EA
:10175800CF92DF92EF92FF920F931F93CF93DF9375
:10176800EC010091B9061091BA06E090BD06F09020
:10177800BE06C090BB06D090BC068091BF06909173
:10178800C00602960E94D00DC00FD11FE091BF067F
:10179800F091C006D383C283C017D10750F460917B
:1017A800BF067091C0066E5F7F4FC6010E946E0D26
:1017B80014C06091BF067091C0066E5F7F4FC7016D
:1017C8000E946E0D8091B5069091B606C817D9078C
:1017D80020F4D093B606C093B506DF91CF911F9140
:0C17E8000F91FF90EF90DF90CF900895DC
:1017F400EF92FF920F931F93CF938C010FB6F8943F
:101804000F92FC01C68D1C16ACF48189811106C0AF
:1018140011C0F8018189811105C00CC07801F1E182
:10182400EF0EF11CC7010E94390581110E94790F46
:10183400C15079F78FEFF801868F0F900FBE0FB666
:10184400F8940F92C58D1C16ACF48085811106C0E6
:1018540011C0F8018085811105C00CC07801F8E041
:10186400EF0EF11CC7010E94390581110E94790F06
:10187400C15079F78FEFF801858F0F900FBECF918C
:0A1884001F910F91FF90EF9008955F
:10188E000F931F93CF93DF93282F362F882361F169
:10189E00082F10E0E62FF0E08FEF9FEFB8010E94C7
:1018AE00A20E6E177F0718F1239FC0011124813EEF
:1018BE00910504F5D32FC22F4F960E947A048C0106
:1018CE000097D1F0D11104C0FC019183808304C034
:1018DE004F96F80191838083F801C38FD48F61E016
:1018EE00C8010E94340908C000E010E005C000E005
:1018FE0010E002C000E010E0C801DF91CF911F910F
:04190E000F91089598
:101912008CE790E09093890080938800E0E8F0E003
:1019220080818C7F80838BE080938100EFE6F0E002
:10193200808182608083A091BF06B091C006CD9164
:10194200CDBFDD91DEBFFF91EF91DF91CF91BF91CE
:10195200AF919F918F917F916F915F914F913F9145
:101962002F911F910F91FF90EF90DF90CF90BF903A
:10197200AF909F908F907F906F905F904F903F902D
:101982002F901F900F900FBE0F90089581E0089541
:10199200AC01FA0190814F5F5F4F9032D1F3292F52
:1019A200092E000C330B295031092530310588F3FB
:1019B2009B3209F540E050E0319602C040E050E031
:1019C20080E090E06AE02191022E000C330B20535C
:1019D20031092A30310548F4689FD001699FB00D62
:1019E2001124CD01821B930BEECF452B49F4919527
:1019F2008195910908959D3209F741E050E0DCCFCD
:021A0200089545
:101A0400239A83E88093B00082E08093B100C1E020
:101A1400D1E005E010E00F2EF3EBEF2EF12CF02DCA
:101A24008091B1069091B2068115914049F4F70175
:101A34001083100F8FEF810F8E3FA8F0019513C014
:101A44008091B1069091B206C817D90759F0C09198
:101A5400B106D091B2068091B1069091B206F70119
:101A6400808301C0EC0182E390E00E948E0ED8CF07
:101A74000F931F93CF93DF938091D306882339F17B
:101A840002E816E00FB6F8940F92D8011596ED917E
:101A9400FC911697C681D781CE0102960E94D00D83
:101AA4008091D20681508093D2068091D3068150D2
:101AB4008093D3060F900FBE8F89988D0E9459088A
:101AC400CE010E9459088091D3068111DBCFDF91AA
:081AD400CF911F910F910895BD
:101ADC00CF93DF93EB01488159814F3F2FEF520792
:101AEC0021F4FC01A781B0850DC0DC01139601C067
:101AFC00DF011296ED91FC911397208131814217F1
:101B0C005307B0F71296ED91FC911397FB83EA8380
:101B1C00D583C483BD83AC831396DC93CE93129789
:101B2C0099878887FC0120812F5F2083DF91CF91DB
:021B3C0008950A
:101B3E000FB6F8940F922091B9063091BA06DC01D7
:101B4E0011964D915C911297E091CE06FC91FE1785
:101B5E0041F02417350728F0FB011182108281E035
:101B6E0015C0241B350BDB014D915C9124173507F5
:101B7E0048F4FB01421B530B518340830E94330FE9
:101B8E0080E004C0FB011182108281E00F900FBE35
:021B9E000895A8
:101BA000CF93DF93FC01A085B185C281D38184816D
:101BB00095819D838C83C481D581828193819B8310
:101BC0008A8311968D919C911297E817F90731F449
:101BD0008481958112969C938E931197118610861D
:0C1BE0008C9181508C93DF91CF9108957F
:101BEC00CF93DF93FC0120812223C1F0EC01289AD2
:101BFC0089918E3229F488EC90E00E948E0E06C0FA
:101C0C008D3221F488E592E00E948E0E289888ECA3
:101C1C0090E00E948E0E88818111E9CF80E293E0E2
:0A1C2C000E948E0EDF91CF91089503
:101C3600803359F0E1E3F6E06EE576E021E030E04E
:101C4600A901908198130EC002C040E050E0FA014D
:101C5600EE0FFF1F4E0F5F1FFA01E25DF94F818104
:101C6600928108952F5F3F4F3396E617F70741F7A6
:061C760080E090E00895FB
:101C7C00E091BD06F091BE068081811107C08FEF07
:101C8C009FEF9093B6068093B5060895E091BD063C
:101C9C00F091BE060580F681E02D808191819093B4
:081CAC00B6068093B506089509
:101CB400CF93DF930F92CDB7DEB74FEF5FEFBE0147
:101CC4006F5F7F4F8091AF069091B0060E944007EE
:101CD400813099F789810E941B0E009771F30E944D
:041CE400F60DEBCF3F
:101CE800FC01448D4423A9F050E026813781240F5C
:101CF800351F37832683848195812817390720F07B
:101D08008081918197838683CB01668177810E9448
:041D1800490F0895D2
:101D1C00CF93DF93EC01892B51F00E946F0F60E0A1
:101D2C00CE010E94AC0B0E94D202811102C00E9413
:081D3C00B50ADF91CF91089573
:101D4400AA1BBB1B51E107C0AA1FBB1FA617B707DD
:101D540010F0A61BB70B881F991F5A95A9F78095F9
:081D64009095BC01CD0108952A
:101D6C00CF93DF93EB016091BF067091C006645F67
:101D7C007F4F0E946E0D61E0CE010E94AC0BDF9193
:041D8C00CF91089556
:101D900084E096E00E94D80EC0ECD0E006EC10E0A3
:101DA00088818823ECF7F80180810E94670FF8CFC3
:101DB000CF93DF93EC018881882331F021960E9434
:0E1DC000670F89918111FBCFDF91CF910895BC
:101DCE00A29FB001B39FC001A39F700D811D11246E
:0E1DDE00911DB29F700D811D1124911D08955D
:101DEC00FC010396928381832FEF3FEF348323838F
:0C1DFC009683858390878783108208956A
:101E08001092C50083E38093C40088E18093C100E9
:081E180086E08093C2000895EA
:101E2000EB0180EA95E00E94D80ECE010E94D80E08
:081E30008AE00E94670FFFCF5A
:101E3800CEE5D6E00E943A0D8881823010F00E94EB
:081E4800B50A0E94840FF6CFD9
:101E50000FB6F8940F92FC01928D0F900FBE81E0A7
:061E6000911180E00895DD
:101E66002091CE06FC0120832091B9063091BA0656
:061E760032832183089570
:101E7C00EC010E94860F0E94850FCE010E94870FF5
:061E8C00CE010E94820F4E
:101E9200FB01DC01480F591FA417B50719F0219166
:061EA2002D93FACF089514
:101EA800229AC4E085B18C2785B988EE93E00E9418
:041EB8008E0EF8CFC3
:101EBC00FC01480F591FE417F50711F06193FBCF94
:021ECC00089577
:101ECE00E0ECF0E0908195FFFDCF8093C600089581
:0C1EDE008091CB068F5F8093CB060895A7
:081EEA00FC0111861086089529
:081EF20081E08093CF06089502
:061EFA000E94590A189530
:041F00000C9400003D
:041F04000E947700C0
:021F080008953A
:021F0A00089538
:021F0C00089536
:021F0E00089534
:101F100050574D2073657420746F204155544F0AFB
:101F20000050574D2073657420746F20002E0049B7
:101F30006E76616C69642050574D2076616C7565D2
:101F40000A00526F7720002C20436F6C20003A204B
:101F5000003132334134353642373839432A302361
:101F6000442D2D2D2D2D002E2D2D2D2D002E2E2DE1
:101F70002D2D002E2E2E2D2D002E2E2E2E2D002E10
:101F80002E2E2E2E002D2E2E2E2E002D2D2E2E2ED0
:101F9000002D2D2D2E2E002D2D2D2D2E002E2D0021
:101FA0002D2E2E2E002D2E2D2E002D2E2E002D000E
:101FB0005B4552524F525D20537461636B206F76C4
:101FC0006572666C6F7720696E207461736B3A205E
:101FD0000052544F532069732072756E6E696E679C
:101FE0002E2E2E0A00426C696E6B5461736B00508A
:101FF000574D5461736B004E756D7061645461731D
:102000006B004D6F72736500554152544D6F6E6990
:10201000746F720055415254204D6F6E69746F7227
:1020200020537461727465642E2E2E0A0030313292
:0E203000333435363738394142434445460093
:10203E00305105315705325D053363053469053579
:10204E006F05367505377B05388105398705418D56
:10205E0005429005439505449A052A1D05239E05C4
:05206E0049444C45004F
:0220730000016A
:012075000367
:00000001FF
