:100000000C9449000C946B0E0C946B0E0C946B0EBC
:100010000C946B0E0C946B0E0C946B0E0C946B0E7C
:100020000C946B0E0C946B0E0C946B0E0C94680E6F
:100030000C946B0E0C946B0E0C946B0E0C946B0E5C
:100040000C946B0E0C946B0E0C946B0E0C946B0E4C
:100050000C946B0E0C946B0E0C946B0E0C946B0E3C
:100060000C946B0E0C946B0E0100070080070008C7
:100070002F001CE6082F0877800877087C001E15E3
:10008000087C089B80089B089C001E1A089C08A3FB
:10009000800011241FBECFEFD8E0DEBFCDBFE8E661
:1000A000F0E040E017C0B591A591359125910591FB
:1000B00007FD0CC095918591EF01F92FE82F059070
:1000C0000D92A217B307D9F7FE0104C01D92A21723
:1000D000B307E1F7E139F40731F70E94590A0C94AC
:0600E000290EF894FFCF89
:1000E6004F925F926F927F928F929F92AF92BF9242
:1000F600CF92DF92EF92FF920F93CF93DF934C0153
:100106006B012901642E712CC3010E94AE035C01B0
:10011600892B09F4FDC088E290E00E94AE03EC0151
:10012600892BC1F088E2DE011D928A95E9F7B88E27
:10013600AF8AA30165EA70E0C5010E94490EC301BA
:1001460001974F89588D5A01A80EB91EC114D104C2
:1001560029F41EC0C5010E94A407DAC0F6018081F9
:10016600898F8081882399F0AE01465E5F4F319674
:1001760088E0C80ED11CCF012191DA012D93AD0183
:10018600DC018C91882319F0EC15FD05A1F718A266
:10019600043008F003E00E8B09A36E01B2E0CB0E2B
:1001A600D11CC6010E94600ECE010C960E94600E04
:1001B600D987C88784E090E0801B91099D878C874A
:1001C600DB8BCA8BA201B401C5010E941308998377
:1001D6008883E114F10409F49DC0F701D183C0833B
:1001E60099C0D0938F08C0938E088091A108813062
:1001F600E9F58FE298E00E94E10D88E398E00E941D
:10020600E10D81E498E00E94E10D8AE498E00E9405
:10021600E10D8EE698E00E94E10D85E698E00E94E9
:10022600E10D8CE598E00E94E10D83E598E00E94DF
:10023600E10D8EE698E090938D0880938C0885E614
:1002460098E090938B0880938A0810C080919F084D
:1002560081110CC0E0918E08F0918F0896898E89E5
:10026600891720F0D0938F08C0938E0880919C0840
:100276008F5F80939C088E899091A008981710F440
:100286008093A00890E0FC01EE0FFF1FEE0FFF1F0A
:10029600EE0FFF1F8E0F9F1FFC01E15DF74F0180E0
:1002A600F281E02DFD83EC83848195819F838E838B
:1002B600A481B5811396DC92CE921297D582C48220
:1002C600EE89F0E0CF01880F991F880F991F880FDC
:1002D600991FE80FF91FE15DF74FFB87EA878081D9
:1002E6008F5F80830F900FBE80919F08882361F0F7
:1002F600E0918E08F0918F0896898E89981730F4D0
:100306000E94000A81E016C081E014C081E012C09C
:100316008FEF10C00FB6F8940F928091A1088F5FEF
:100326008093A10880918E0890918F08892B09F0FF
:100336008DCF57CFDF91CF910F91FF90EF90DF9048
:10034600CF90BF90AF909F908F907F906F905F906F
:040356004F90089527
:10035A00EF92FF920F931F93CF93DF9380919A08A6
:10036A00811104C1C0918808D09189087E018FEF5C
:10037A00E81AF80AF0928908E0928808E114F10470
:10038A00B9F480918C0890918D0820918A08309157
:10039A008B0830938D0820938C0890938B08809358
:1003AA008A0880919D088F5F80939D080E94380D6E
:1003BA008091840890918508E816F90610F480E087
:1003CA00B9C080E061E0E0918C08F0918D089081DD
:1003DA00911107C02FEF3FEF3093850820938408CF
:1003EA00A9C0E0918C08F0918D080580F681E02D76
:1003FA000680F781E02D22813381E216F30628F484
:10040A00309385082093840895C0A285B3852481FA
:10041A00358146815781E9015D834C832681378185
:10042A0044815581E9015B834A83AF014E5F5F4F87
:10043A0011962D913C9112972417350731F4268194
:10044A00378112963C932E931197138612869C91AC
:10045A0091509C93A489B589109719F126853785FF
:10046A0000891189E9011D830C8320893189068558
:10047A001785E9011B830A8311960D911C91129726
:10048A009F01245F3F4F0217130731F420893189F6
:10049A0012963C932E931197158A148A9C91915027
:1004AA009C9326899091A008921710F42093A00893
:1004BA0030E0D901AA0FBB1FAA0FBB1FAA0FBB1F8F
:1004CA002A0F3B1FD901A15DB74F11960D90BC9120
:1004DA00A02DB583A48314962D913C91159737834B
:1004EA00268314962D913C911597E9015B834A83E3
:1004FA0015965C934E931497A689B0E09D01220F3E
:10050A00331F220F331F220F331FA20FB31FA15D08
:10051A00B74FB387A2879C919F5F9C93A0918E0847
:10052A00B0918F08268956969C91921708F04BCF66
:10053A00862F49CFE0918E08F0918F08268930E006
:10054A00F901EE0FFF1FEE0FFF1FEE0FFF1F2E0F19
:10055A003F1FF901E15DF74F9081923008F081E089
:10056A0090919E08992361F081E00AC080918608E3
:10057A00909187080196909387088093860880E077
:0E058A00DF91CF911F910F91FF90EF90089598
:100598001F93CF93DF930FB6F8940F9280919A0828
:1005A800815080939A0880919A088111CAC08091DD
:1005B800A10881119BC0C8C0DB011596ED91FC9183
:1005C80016970680F781E02DA489B58986859785D9
:1005D80020893189EC013D832C8380899189268586
:1005E8003785EC013B832A83CF010C9611962D9118
:1005F8003C9112972817390731F48089918912960E
:100608009C938E931197158A148A8C9181508C93A0
:10061800A285B3858481958126813781EC013D834C
:100628002C838681978124813581EC013B832A8341
:100638009F012E5F3F4F11968D919C9112978217C3
:10064800930731F48681978112969C938E93119724
:10065800138612868C9181508C9386899091A0087C
:10066800981710F48093A00890E0DC01AA0FBB1F34
:10067800AA0FBB1FAA0FBB1F8A0F9B1FDC01A15D1E
:10068800B74F11960D90BC91A02DB583A4831496F5
:100698008D919C9115979783868314968D919C9143
:1006A8001597EC013B832A8315963C932E93149758
:1006B800A689B0E0CD01880F991F880F991F880F70
:1006C800991FA80FB91FA15DB74FB387A2878C9157
:1006D8008F5F8C93A0918E08B0918F08968956965B
:1006E8008C91891740F440939E0805C0E0E0F0E043
:1006F8006CE578E041E0DB018C9181115DCFEF2B57
:1007080011F00E94380DC0918608D0918708209773
:1007180061F011E00E94AD01811110939E082197AC
:10072800C9F7109287081092860880919E0888233E
:1007380051F080918E0890918F080E94000A81E004
:1007480003C080E001C080E00F900FBEDF91CF9121
:040758001F91089550
:10075C000F931F93CF93DF939C01215031092B3FB3
:10076C003F4F18F4EC01249602C0C0E0D0E00E9488
:10077C005A0E8091980890919908892B59F540E070
:10078C0051E0ACE7B8E011965C934E9313961C9233
:10079C001E921297CA01A0E0B0E084509A4FAF4F5E
:1007AC00BF4F9C019093990880939808FC01138289
:1007BC0012821182108220503140FA01338322833D
:1007CC0091838083309395082093940830939708F5
:1007DC00209396081C161D060CF069C08091960893
:1007EC00909197088C179D0708F464C0E0917C08E1
:1007FC00F0917D086CE778E002C0BF01F90122811D
:10080C0033812C173D0728F42081318121153105C6
:10081C00A1F72091980830919908E217F30709F491
:10082C004CC0DB010D911C9111970C5F1F4F208167
:10083C0031812D933C93228133812C1B3D0B29302C
:10084C00310598F0AF014C0F5D1FDA0113963C9304
:10085C002E931297D383C283DB012D913C91DA0145
:10086C002D933C93DB014D935C9322813381821B4E
:10087C00930B90939708809396084091940850910D
:10088C0095088417950720F4909395088093940805
:10089C003068338322831182108280919208909168
:1008AC0093080196909393088093920808C000E0F7
:1008BC0010E005C000E010E002C000E010E00E9473
:0E08CC00CC02C801DF91CF911F910F910895CA
:1008DA00CF93DF93DC011596ED91FC911697068074
:1008EA00F781E02DA489B589C685D7858089918944
:1008FA009D838C83C089D189868597859B838A83CA
:10090A009F01245F3F4F11968D919C9112978217F8
:10091A00930731F48089918912969C938E9311974B
:10092A00158A148A8C9181508C9380919A0881112E
:10093A0060C0A285B385C481D581868197819D8354
:10094A008C83C681D781848195819B838A839F0109
:10095A002E5F3F4F11968D919C91129782179307A4
:10096A0031F48681978112969C938E931197138600
:10097A0012868C9181508C9386899091A008981741
:10098A0010F48093A00890E0DC01AA0FBB1FAA0F05
:10099A00BB1FAA0FBB1F8A0F9B1FDC01A15DB74FAC
:1009AA0011960D90BC91A02DB583A48314968D91B8
:1009BA009C911597978386831496CD91DC91159710
:1009CA003B832A8315963C932E931497A689B0E00D
:1009DA00CD01880F991F880F991F880F991FA80F9B
:1009EA00B91FA15DB74FB387A2878C918F5F8C9394
:1009FA001CC04CE558E0DA011196CD91DC911297B2
:100A0A00D787C6878C819D81918B808B8C819D81B4
:100A1A00DC0113963C932E9312973D832C83558BBE
:100A2A00448BDA018C918F5F8C93A0918E08B091E0
:100A3A008F08968956968C91891720F481E08093C5
:0C0A4A009E0801C080E0DF91CF9108956C
:100A560080919A08882321F081E080939E0808956A
:100A660010929E08E0918E08F0918F080788F08D0D
:100A7600E02D80819181A281B381853A954AA54A6C
:100A8600B54AD9F484819581A681B781853A954A7C
:100A9600A54AB54A91F480859185A285B385853AA4
:100AA600954AA54AB54A49F484859585A685B785AC
:100AB600853A954AA54AB54A61F060918E087091CB
:100AC6008F0880918E0890918F08675E7F4F0E94F5
:100AD600FB0D2091A008822F90E0FC01EE0FFF1F76
:100AE600EE0FFF1FEE0FFF1FE80FF91FE15DF74F37
:100AF6003081311111C02150822F90E0FC01EE0FA0
:100B0600FF1FEE0FFF1FEE0FFF1FE80FF91FE15D3E
:100B1600F74F3081332379F3AC01440F551F440F4F
:100B2600551F440F551F480F591FFA01E15DF74F36
:100B3600A181B28112966D917C9113977283618324
:100B46004E5C574F6417750779F4FC01EE0FFF1FD3
:100B5600EE0FFF1FEE0FFF1FE80FF91FE15DF74FC6
:100B66004581568152834183FC01EE0FFF1FEE0F34
:100B7600FF1FEE0FFF1F8E0F9F1FFC01E15DF74F5A
:100B86000180F281E02D8681978190938F08809372
:100B96008E082093A00880918E0890918F08089562
:100BA6009F92AF92BF92CF92DF92EF92FF920F93F6
:100BB6001F93CF93DF9300D000D00F92CDB7DEB74F
:100BC6008C016B015D834C83A22EB12C99249394E6
:100BD6007C0188E0E80EF11C0FB6F8940F92F8013C
:100BE600928D838D981718F0F2E0AF1219C04A2D36
:100BF600B601C8010E944509F8019189992349F077
:100C0600C80141960E946D04882331F00E94000AB3
:100C160003C081110E94000A0F900FBE81E050C0F0
:100C26008C819D81892B21F40F900FBE80E048C0F6
:100C3600B11005C0CE0101960E941E0EB92C0F9070
:100C46000FBE0E945A0E0FB6F8940F92F801858DCA
:100C56008F3F09F4158EF801868D8F3F09F4168EA5
:100C66000F900FBEBE016C5F7F4FCE0101960E94B2
:100C7600790C81111FC00FB6F8940F92F801928D6E
:100C86000F900FBE838D98130FC06C817D81C701B5
:100C96000E94B00DC8010E94450B0E94CC02811132
:100CA6009BCF0E94000A98CFC8010E94450B0E9464
:100CB600CC0292CFC8010E94450B0E94CC0280E074
:100CC6000F900F900F900F900F90DF91CF911F9183
:100CD6000F91FF90EF90DF90CF90BF90AF909F90D5
:020CE60008956F
:100CE8009F92AF92BF92CF92DF92EF92FF920F93B3
:100CF8001F93CF93DF9300D000D00F92CDB7DEB70C
:100D08008C015B015D834C83E12C992493946C01E5
:100D180081E1C80ED11C0FB6F8940F92F801F28C3D
:100D2800FF20A9F0B501C8010E946E0DFA94F801E0
:100D3800F28E8085882339F0C80108960E946D04D8
:100D480081110E94000A0F900FBE81E051C08C8172
:100D58009D81892B21F40F900FBE80E049C0E110DE
:100D680005C0CE0101960E941E0EE92C0F900FBE01
:100D78000E945A0E0FB6F8940F92F801858D8F3F96
:100D880009F4158EF801868D8F3F09F4168E0F90A1
:100D98000FBEBE016C5F7F4FCE0101960E94790C99
:100DA80081111AC0C8010E94130E882379F06C8142
:100DB8007D81C6010E94B00DC8010E94450B0E94AA
:100DC800CC028111A8CF0E94000AA5CFC8010E94B9
:100DD800450B0E94CC029FCFC8010E94450B0E9480
:100DE800CC02C8010E94130E882309F494CF80E036
:100DF8000F900F900F900F900F90DF91CF911F9150
:100E08000F91FF90EF90DF90CF90BF90AF909F90A1
:020E180008953B
:100E1A00CF93DF93CDB7DEB761970FB6F894DEBFF5
:100E2A000FBECDBF84B1806C84B98AB180668AB99D
:100E3A0087B1807F87B988B18F6088B9209A80E1AD
:100E4A00EEE9F7E0DE01119601900D928A95E1F73D
:100E5A00CE0101966C01A12C85B1806C85B98BB14C
:100E6A0080668BB991E0A91659F0A91638F0E2E02C
:100E7A00AE1641F0F3E0AF1639F007C02E9805C060
:100E8A002F9803C05D9801C05E9881E090E00E94AF
:100E9A00880D76010F2EF1E3BF2EF02D00E010E051
:100EAA000F2EF1E39F2EF02D9A0C86B190E0002EC2
:100EBA0002C0959587950A94E2F780FD2BC0F70149
:100ECA008081898B8FE897E00E94D20D892D0E943C
:100EDA00520E84E997E00E94D20D8B2D0E94520E89
:100EEA008BE997E00E94D20D89890E94520E8AE00E
:100EFA000E94520E20E04FEF5FEFBE016F5E7F4F00
:100F0A0080918008909181080E94D30588EE93E031
:100F1A000E94880D0F5F1F4FFFEFEF1AFF0AB3946D
:100F2A0085E3B812C2CFA39494E0C90ED11CE4E0C1
:0E0F3A00AE1292CF8AE090E00E94880D89CF1F
:100F4800CF93DF93009709F467C0FC01349722819F
:100F5800338133230CF060C040815181452B09F067
:100F68005BC0EF013F77338322830E945A0E4A8188
:100F78005B818091960890919708840F951F9093B4
:100F8800970880939608ECE7F8E001C0FC0180819F
:100F980091818C179D07D0F322813381BF01620FA5
:100FA800731FC617D70729F4240F351F33832283ED
:100FB800EF012A813B81DE01A20FB31F8A179B072D
:100FC800C9F48091980890919908A817B90779F001
:100FD80012968D919C911397280F391F3B832A8372
:100FE800A081B1818D919C919983888305C0B98333
:100FF800A88302C099838883EC17FD0711F0D18379
:10100800C0838091900890919108019690939108DF
:0E101800809390080E94CC02DF91CF91089542
:1010260031E1FC013083319722E220833197A3E33B
:10103600A0833197608331977083319710823197FF
:1010460060E8608331971082319762E06083319760
:1010560063E06083319764E06083319765E0608385
:10106600319766E06083319767E06083319768E087
:101076006083319769E06083319760E160833197DF
:101086003083319732E13083319733E130833197C2
:1010960034E13083319735E13083319736E130835F
:1010A600319737E13083319738E13083319739E131
:1010B6003083319730E23083319731E23083319794
:1010C6002083319723E220833197408331975083E1
:1010D600319726E22083319727E22083319728E251
:1010E6002083319729E22083319720E320833197AB
:0810F60021E320838697089591
:1010FE00EF92FF920F931F93CF93DF93FC01362F46
:10110E00892B09F44CC0238D222309F44AC0022FE7
:10111E0010E0448DE42EF12C8FEF9FEFB8010E946A
:10112E009C0D6E157F0508F43EC0EF010FB6F894C6
:10113E000F9260817181CB01249F800D911D11242E
:10114E0095838483128E73836283015011090E9DE1
:10115E00C0010F9D900D1E9D900D1124860F971F9F
:10116E00978386838FEF858F868F31110CC0808594
:10117E00882389F0CF0108960E946D04882359F0C8
:10118E000E94000A08C0CF0108960E94E10DCE0110
:10119E0041960E94E10D0F900FBE81E005C080E0E8
:1011AE0003C080E001C080E0DF91CF911F910F91CD
:0611BE00FF90EF90089580
:1011C4000F931F93CF93DF93FC01892B09F451C034
:1011D40082A1815082A3268991A1291709F44BC0C9
:1011E40081114BC0EF018F010E5F1F4FC8010E9498
:1011F400AA0C89A18E8B24E030E0281B31093D879D
:101204002C879091A008981710F48093A00890E080
:10121400FC01EE0FFF1FEE0FFF1FEE0FFF1F8E0FDF
:101224009F1FFC01E15DF74F0180F281E02DFD83FA
:10123400EC83848195819F838E83A481B5811396E9
:101244001C930E93129715830483EE89F0E0CF016B
:10125400880F991F880F991F880F991FE80FF91F8E
:10126400E15DF74FFB87EA8780818F5F808381E0B0
:1012740005C080E003C080E001C080E0DF91CF9131
:061284001F910F91089577
:10128A000F931F93CF93DF93EC01042F1A8D4C8D8C
:10129A0041110CC088819981892B09F042C08C8147
:1012AA009D810E94E2081D821C8242C0011117C062
:1012BA0050E08A819B810E94340E2C8D8A819B8109
:1012CA00820F911D9B838A832C813D81821793070C
:1012DA0050F1888199819B838A8380E029C050E0FC
:1012EA008E819F810E94340E8C8D90E0919581951C
:1012FA0091092E813F81280F391F3F832E83488110
:10130A0059812417350730F42C813D81820F931FB0
:10131A009F838E83023049F4112349F0115080E0F3
:10132A0007C080E005C080E003C080E001C080E023
:0E133A001F5F1A8FDF91CF911F910F910895C1
:101348000F920FB6F8940F921F9211242F923F928A
:101358004F925F926F927F928F929F92AF92BF92BD
:10136800CF92DF92EF92FF920F931F932F933F93A9
:101378004F935F936F937F938F939F93AF93BF9395
:10138800CF93DF93EF93FF93A0918E08B0918F08CE
:101398000DB60D920EB60D920E94AD0181110E94FC
:1013A8002B05A0918E08B0918F08CD91CDBFDD910E
:1013B800DEBFFF91EF91DF91CF91BF91AF919F91E8
:1013C8008F917F916F915F914F913F912F911F91D5
:1013D8000F91FF90EF90DF90CF90BF90AF909F90CC
:1013E8008F907F906F905F904F903F902F901F90BD
:0813F8000F900FBE0F90089545
:101400000F920FB6F8940F921F9211242F923F92D1
:101410004F925F926F927F928F929F92AF92BF9204
:10142000CF92DF92EF92FF920F931F932F933F93F0
:101430004F935F936F937F938F939F93AF93BF93DC
:10144000CF93DF93EF93FF93A0918E08B0918F0815
:101450000DB60D920EB60D920E942B05A0918E082E
:10146000B0918F08CD91CDBFDD91DEBFFF91EF919F
:10147000DF91CF91BF91AF919F918F917F916F91AC
:101480005F914F913F912F911F910F91FF90EF909E
:10149000DF90CF90BF90AF909F908F907F906F9094
:1014A0005F904F903F902F901F900F900FBE0F9026
:0214B00008959D
:1014B200EF92FF920F93E1E6F0E080E880831082E2
:1014C2000E94EF0D82E297E00E94D20D40E061E0BF
:1014D20080E10E94920B9093810880938008E12C16
:1014E200F12C01E020E030E040E866E377E08FE3B2
:1014F2009EE00E94730020E030E040E860E477E084
:1015020088E19DE00E94730020E030E040EC68E456
:1015120077E08DE097E00E94730020E030E040EC3D
:1015220063E577E084E59DE00E94730020E030E00F
:1015320040EC69E577E082EC9DE00E9473000E9436
:0E154200A80A80E090E00F91FF90EF900895CE
:10155000EF92FF920F93CF93DF93CDB7DEB728972B
:101560000FB6F894DEBF0FBECDBF89E48983E8E7EC
:10157000F8E0DE0112962FE738E081918D93882301
:1015800019F0E217F307C9F70F2EF2E8EF2EF8E093
:10159000FF2EF02D00E020E030E040E4BE016F5F60
:1015A0007F4F87E09EE00E947300882391F0813096
:1015B00081F4F8948FEF9FEF9093850880938408CF
:1015C00081E080939F0810928908109288080E94F9
:1015D000D40B80919B0828960FB6F894DEBF0FBEFF
:0E15E000CDBFDF91CF910F91FF90EF90089556
:1015EE00CF92DF92EF92FF920F931F93CF93DF93E1
:1015FE00EC010091880810918908E0908C08F09019
:10160E008D08C0908A08D0908B0880918E0890919A
:10161E008F0802960E94AA0CC00FD11FE0918E086F
:10162E00F0918F08D383C283C017D10750F4609115
:10163E008E0870918F086E5F7F4FC6010E94480C16
:10164E0014C060918E0870918F086E5F7F4FC70136
:10165E000E94480C8091840890918508C817D9077C
:10166E0020F4D0938508C0938408DF91CF911F9109
:0C167E000F91FF90EF90DF90CF90089547
:10168A00EF92FF920F931F93CF938C010FB6F894AA
:10169A000F92FC01C68D1C16ACF48189811106C01B
:1016AA0011C0F8018189811105C00CC07801F1E1EE
:1016BA00EF0EF11CC7010E946D0481110E94640E95
:1016CA00C15079F78FEFF801868F0F900FBE0FB6D2
:1016DA00F8940F92C58D1C16ACF48085811106C052
:1016EA0011C0F8018085811105C00CC07801F8E0AD
:1016FA00EF0EF11CC7010E946D0481110E94640E55
:10170A00C15079F78FEFF801858F0F900FBECF91F7
:0A171A001F910F91FF90EF900895CA
:101724000F931F93CF93DF93282F362F882361F1D4
:10173400082F10E0E62FF0E08FEF9FEFB8010E9432
:101744009C0D6E177F0718F1239FC0011124813E61
:10175400910504F5D32FC22F4F960E94AE038C013E
:101764000097D1F0D11104C0FC019183808304C09F
:101774004F96F80191838083F801C38FD48F61E081
:10178400C8010E947F0808C000E010E005C000E026
:1017940010E002C000E010E0C801DF91CF911F917A
:0417A4000F91089504
:1017A80089EF90E09093890080938800E0E8F0E06A
:1017B80080818C7F80838BE080938100EFE6F0E06E
:1017C800808182608083A0918E08B0918F08CD912E
:1017D800CDBFDD91DEBFFF91EF91DF91CF91BF913A
:1017E800AF919F918F917F916F915F914F913F91B1
:1017F8002F911F910F91FF90EF90DF90CF90BF90A6
:10180800AF909F908F907F906F905F904F903F9098
:101818002F901F900F900FBE0F90089581E00895AC
:101828000F931F93CF93DF938091A208882339F1F8
:1018380003E518E00FB6F8940F92D8011596ED91CC
:10184800FC911697C681D781CE0102960E94AA0CF8
:101858008091A10881508093A1088091A2088150AD
:101868008093A2080F900FBE8F89988D0E94A407BD
:10187800CE010E94A4078091A2088111DBCFDF91DD
:08188800CF911F910F9108950B
:10189000CF93DF93EB01488159814F3F2FEF5207E0
:1018A00021F4FC01A781B0850DC0DC01139601C0B5
:1018B000DF011296ED91FC9113972081318142173F
:1018C0005307B0F71296ED91FC911397FB83EA83CF
:1018D000D583C483BD83AC831396DC93CE931297D8
:1018E00099878887FC0120812F5F2083DF91CF912A
:0218F000089559
:1018F2000FB6F8940F922091880830918908DC0184
:1019020011964D915C911297E0919D08FC91FE1702
:1019120041F02417350728F0FB011182108281E083
:1019220015C0241B350BDB014D915C912417350743
:1019320048F4FB01421B530B518340830E941E0E4D
:1019420080E004C0FB011182108281E00F900FBE83
:021952000895F6
:10195400CF93DF93FC01A085B185C281D3818481BB
:1019640095819D838C83C481D581828193819B835E
:101974008A8311968D919C911297E817F90731F497
:101984008481958112969C938E931197118610866B
:0C1994008C9181508C93DF91CF910895CD
:1019A000CF93DF93FC0120812223C1F0EC01289A20
:1019B00089918E3229F488EC90E00E94880D06C04F
:1019C0008D3221F488E592E00E94880D289888ECF9
:1019D00090E00E94880D88818111E9CF80E293E038
:0A19E0000E94880DDF91CF91089559
:1019EA00803359F0E2E0F8E06FE278E021E030E09D
:1019FA00A901908198130EC002C040E050E0FA019C
:101A0A00EE0FFF1F4E0F5F1FFA01E150F84F818161
:101A1A00928108952F5F3F4F3396E617F70741F7F4
:061A2A0080E090E0089549
:101A3000219A81E8809380008AE08093810010924F
:101A4000890010928800C5E0D5E008E810E001C0E8
:101A5000D19582E390E00E94880D8C2F90E0F801F0
:101A600091838083CD0F8FEF8C0F8E3F88F7F1CF5E
:101A7000E0918C08F0918D088081811107C08FEF73
:101A80009FEF90938508809384080895E0918C08D7
:101A9000F0918D080580F681E02D808191819093F1
:081AA000850880938408089575
:101AA800CF93DF930F92CDB7DEB74FEF5FEFBE0155
:101AB8006F5F7F4F80918008909181080E94740623
:101AC800813099F789810E94F50C009771F30E9483
:041AD800D00CEBCF74
:101ADC00FC01448D4423A9F050E026813781240F6A
:101AEC00351F37832683848195812817390720F089
:101AFC008081918197838683CB01668177810E9457
:041B0C00340E0895F6
:101B1000CF93DF93EC01892B51F00E945A0E60E0C5
:101B2000CE010E94F70A0E94CC02811102C00E94DD
:081B3000000ADF91CF91089536
:101B3800AA1BBB1B51E107C0AA1FBB1FA617B707EB
:101B480010F0A61BB70B881F991F5A95A9F7809507
:081B58009095BC01CD01089538
:101B6000CF93DF93EB0160918E0870918F08645FD3
:101B70007F4F0E94480C61E0CE010E94F70ADF917E
:041B8000CF91089564
:101B840085E697E00E94D20DC0ECD0E006EC10E0B0
:101B940088818823ECF7F80180810E94520EF8CFE7
:101BA400CF93DF93EC018881882331F021960E9442
:0E1BB400520E89918111FBCFDF91CF910895E0
:101BC200FC010396928381832FEF3FEF34832383BB
:0C1BD20096838583908787831082089596
:101BDE001092C50083E38093C40088E18093C10016
:081BEE0086E08093C200089517
:101BF600EB0180E097E00E94D20DCE010E94D20D4B
:081C06008AE00E94520EFFCF9C
:101C0E00CFE2D8E00E94140C8881823010F00E943E
:081C1E00000A0E946F0EF6CFD0
:101C26000FB6F8940F92FC01928D0F900FBE81E0D3
:061C3600911180E0089509
:101C3C0020919D08FC01208320918808309189080F
:061C4C003283218308959C
:101C5200EC010E94710E0E94700ECE010E94720E63
:061C6200CE010E946D0E90
:101C6800FB01DC01480F591FA417B50719F0219192
:061C78002D93FACF089540
:101C7E00229AC4E085B18C2785B980ED97E00E9449
:041C8E00880DF8CFF6
:101C9200FC01480F591FE417F50711F06193FBCFC0
:021CA2000895A3
:101CA400E0ECF0E0908195FFFDCF8093C6000895AD
:0C1CB40080919A088F5F80939A08089531
:081CC000FC0111861086089555
:081CC80081E080939E0808955D
:061CD0000E94A409189512
:041CD6000C9400006A
:041CDA000E947100F3
:021CDE00089567
:021CE000089565
:021CE200089563
:021CE400089561
:101CE6000A5B4552524F525D20537461636B206FFD
:101CF600766572666C6F7720696E207461736B3AD5
:101D0600200052544F532069732072756E6E696EAF
:101D1600672E2E2E0A00426C696E6B5461736B003F
:101D260050574D5461736B004E756D70616454610C
:101D3600736B004D6F72736500554152544D6F6E53
:101D460069746F72000A5B55415254204D6F6E697B
:101D5600746F7220537461727465645D0A00303169
:0F1D66003233343536373839414243444546002D
:101D7500526F7720002C20436F6C20003A200031F1
:101D850032334134353642373839432A3023442DEE
:101D95002D2D2D2D002E2D2D2D2D002E2E2D2D2DC5
:101DA500002E2E2E2D2D002E2E2E2E2D002E2E2EDB
:101DB5002E2E002D2E2E2E2E002D2D2E2E2E002DCC
:101DC5002D2D2E2E002D2D2D2D2E002E2D002D2EC0
:101DD5002E2E002D2E2D2E002D2E2E002E002D0008
:101DE50030AE0731B40732BA0733C00734C60735FA
:101DF500CC0736D20737D80738DE0739E40741EA7A
:101E05000742ED0743F20744F7072AFB0723FD07BF
:051E150049444C4500AA
:011E1A0003C4
:00000001FF
