:100000000C9449000C94E3080C94E3080C94E30866
:100010000C94E3080C94E3080C94E3080C94E308B4
:100020000C94E3080C94E3080C94E3080C94E008A7
:100030000C94E3080C94E3080C94E3080C94E30894
:100040000C94E3080C94E3080C94E3080C94E30884
:100050000C94E3080C94E3080C94E3080C94E30874
:100060000C94E3080C94E3080100050080050005EA
:10007000760011D6057605BE8005BE05C300124C7C
:1000800005C305E08005E005E100125105E105E842
:10009000800011241FBECFEFD8E0DEBFCDBFE8E661
:1000A000F0E040E017C0B591A591359125910591FB
:1000B00007FD0CC095918591EF01F92FE82F059070
:1000C0000D92A217B307D9F7FE0104C01D92A21723
:1000D000B307E1F7E139F40731F70E942C080C94DB
:0600E000BA08F894FFCFFE
:1000E6004F925F926F927F928F929F92AF92BF9242
:1000F600CF92DF92EF92FF920F93CF93DF934C0153
:100106006B012901642E712CC3010E94AE035C01B0
:10011600892B09F4FDC088E290E00E94AE03EC0151
:10012600892BC1F088E2DE011D928A95E9F7B88E27
:10013600AF8AA30165EA70E0C5010E94C508C30144
:1001460001974F89588D5A01A80EB91EC114D104C2
:1001560029F41EC0C5010E941505DAC0F60180818A
:10016600898F8081882399F0AE01465E5F4F319674
:1001760088E0C80ED11CCF012191DA012D93AD0183
:10018600DC018C91882319F0EC15FD05A1F718A266
:10019600043008F003E00E8B09A36E01B2E0CB0E2B
:1001A600D11CC6010E94DC08CE010C960E94DC0818
:1001B600D987C88784E090E0801B91099D878C874A
:1001C600DB8BCA8BA201B401C5010E948405998309
:1001D6008883E114F10409F49DC0F701D183C0833B
:1001E60099C0D093D405C093D3058091E60581309C
:1001F600E9F586E795E00E9488088FE795E00E947A
:10020600880888E895E00E94880881E995E00E94C0
:10021600880885EB95E00E9488088CEA95E00E94A4
:10022600880883EA95E00E9488088AE995E00E949A
:10023600880885EB95E09093D2058093D1058CEAEA
:1002460095E09093D0058093CF0510C08091E4058A
:1002560081110CC0E091D305F091D40596898E8961
:10026600891720F0D093D405C093D3058091E1057A
:100276008F5F8093E1058E899091E505981710F4BC
:100286008093E50590E0FC01EE0FFF1FEE0FFF1FC8
:10029600EE0FFF1F8E0F9F1FFC01EA58FA4F0180D9
:1002A600F281E02DFD83EC83848195819F838E838B
:1002B600A481B5811396DC92CE921297D582C48220
:1002C600EE89F0E0CF01880F991F880F991F880FDC
:1002D600991FE80FF91FEA58FA4FFB87EA878081D2
:1002E6008F5F80830F900FBE8091E405882361F0B5
:1002F600E091D305F091D40596898E89981730F44C
:100306000E944C0681E016C081E014C081E012C054
:100316008FEF10C00FB6F8940F928091E6058F5FAD
:100326008093E6058091D3059091D405892B09F039
:100336008DCF57CFDF91CF910F91FF90EF90DF9048
:10034600CF90BF90AF909F908F907F906F905F906F
:040356004F90089527
:10035A00EF92FF920F931F93CF93DF938091DF0564
:10036A00811104C1C091CD05D091CE057E018FEFD8
:10037A00E81AF80AF092CE05E092CD05E114F104EC
:10038A00B9F48091D1059091D2052091CF05309191
:10039A00D0053093D2052093D1059093D005809350
:1003AA00CF058091E2058F5F8093E2050E9449089C
:1003BA008091C9059091CA05E816F90610F480E003
:1003CA00B9C080E061E0E091D105F091D205908159
:1003DA00911107C02FEF3FEF3093CA052093C9054B
:1003EA00A9C0E091D105F091D2050580F681E02DF2
:1003FA000680F781E02D22813381E216F30628F484
:10040A003093CA052093C90595C0A285B385248176
:10041A00358146815781E9015D834C832681378185
:10042A0044815581E9015B834A83AF014E5F5F4F87
:10043A0011962D913C9112972417350731F4268194
:10044A00378112963C932E931197138612869C91AC
:10045A0091509C93A489B589109719F126853785FF
:10046A0000891189E9011D830C8320893189068558
:10047A001785E9011B830A8311960D911C91129726
:10048A009F01245F3F4F0217130731F420893189F6
:10049A0012963C932E931197158A148A9C91915027
:1004AA009C9326899091E505921710F42093E5050F
:1004BA0030E0D901AA0FBB1FAA0FBB1FAA0FBB1F8F
:1004CA002A0F3B1FD901AA58BA4F11960D90BC9119
:1004DA00A02DB583A48314962D913C91159737834B
:1004EA00268314962D913C911597E9015B834A83E3
:1004FA0015965C934E931497A689B0E09D01220F3E
:10050A00331F220F331F220F331FA20FB31FAA5804
:10051A00BA4FB387A2879C919F5F9C93A091D30502
:10052A00B091D405268956969C91921708F04BCF24
:10053A00862F49CFE091D305F091D405268930E082
:10054A00F901EE0FFF1FEE0FFF1FEE0FFF1F2E0F19
:10055A003F1FF901EA58FA4F9081923008F081E082
:10056A009091E305992361F081E00AC08091CB055F
:10057A009091CC0501969093CC058093CB0580E0B1
:0E058A00DF91CF911F910F91FF90EF90089598
:100598001F93CF93DF930FB6F8940F928091DF05E6
:1005A80081508093DF058091DF058111CAC0809159
:1005B800E60581119BC0C8C0DB011596ED91FC9141
:1005C80016970680F781E02DA489B58986859785D9
:1005D80020893189EC013D832C8380899189268586
:1005E8003785EC013B832A83CF010C9611962D9118
:1005F8003C9112972817390731F48089918912960E
:100608009C938E931197158A148A8C9181508C93A0
:10061800A285B3858481958126813781EC013D834C
:100628002C838681978124813581EC013B832A8341
:100638009F012E5F3F4F11968D919C9112978217C3
:10064800930731F48681978112969C938E93119724
:10065800138612868C9181508C9386899091E5053A
:10066800981710F48093E50590E0DC01AA0FBB1FF2
:10067800AA0FBB1FAA0FBB1F8A0F9B1FDC01AA581A
:10068800BA4F11960D90BC91A02DB583A4831496F2
:100698008D919C9115979783868314968D919C9143
:1006A8001597EC013B832A8315963C932E93149758
:1006B800A689B0E0CD01880F991F880F991F880F70
:1006C800991FA80FB91FAA58BA4FB387A2878C9150
:1006D8008F5F8C93A091D305B091D40596895696D7
:1006E8008C91891740F44093E30505C0E0E0F0E001
:1006F80063EA75E041E0DB018C9181115DCFEF2B5E
:1007080011F00E944908C091CB05D091CC052097E3
:1007180061F011E00E94AD0181111093E30521976A
:10072800C9F71092CC051092CB058091E305882378
:1007380051F08091D3059091D4050E944C0681E038
:1007480003C080E001C080E00F900FBEDF91CF9121
:040758001F91089550
:10075C000F931F93CF93DF939C01215031092B3FB3
:10076C003F4F18F4EC01249602C0C0E0D0E00E9488
:10077C00D6088091DD059091DE05892B59F540E076
:10078C0051E0A3ECB5E011965C934E9313961C923A
:10079C001E921297CA01A0E0B0E084509C4FAF4F5C
:1007AC00BF4F9C019093DE058093DD05FC01138205
:1007BC0012821182108220503140FA01338322833D
:1007CC00918380833093DA052093D9053093DC052F
:1007DC002093DB051C161D060CF069C08091DB050F
:1007EC009091DC058C179D0708F464C0E091C3055B
:1007FC00F091C40563EC75E002C0BF01F9012281E0
:10080C0033812C173D0728F42081318121153105C6
:10081C00A1F72091DD053091DE05E217F30709F40D
:10082C004CC0DB010D911C9111970C5F1F4F208167
:10083C0031812D933C93228133812C1B3D0B29302C
:10084C00310598F0AF014C0F5D1FDA0113963C9304
:10085C002E931297D383C283DB012D913C91DA0145
:10086C002D933C93DB014D935C9322813381821B4E
:10087C00930B9093DC058093DB054091D905509147
:10088C00DA058417950720F49093DA058093D9053F
:10089C00306833832283118210828091D705909126
:1008AC00D80501969093D8058093D70508C000E031
:1008BC0010E005C000E010E002C000E010E00E9473
:0E08CC00CC02C801DF91CF911F910F910895CA
:1008DA008091DF05882321F081E08093E305089564
:1008EA001092E305E091D305F091D4050788F08DC5
:1008FA00E02D80819181A281B381853A954AA54AEA
:10090A00B54AD9F484819581A681B781853A954AF9
:10091A00A54AB54A91F480859185A285B385853A21
:10092A00954AA54AB54A49F484859585A685B78529
:10093A00853A954AA54AB54A61F06091D305709106
:10094A00D4058091D3059091D405675E7F4F0E94AC
:10095A00A2082091E505822F90E0FC01EE0FFF1F0F
:10096A00EE0FFF1FEE0FFF1FE80FF91FEA58FA4FAD
:10097A003081311111C02150822F90E0FC01EE0F1D
:10098A00FF1FEE0FFF1FEE0FFF1FE80FF91FEA58B8
:10099A00FA4F3081332379F3AC01440F551F440FCA
:1009AA00551F440F551F480F591FFA01EA58FA4FAD
:1009BA00A181B28112966D917C91139772836183A2
:1009CA0047585A4F6417750779F4FC01EE0FFF1F59
:1009DA00EE0FFF1FEE0FFF1FE80FF91FEA58FA4F3D
:1009EA004581568152834183FC01EE0FFF1FEE0FB2
:1009FA00FF1FEE0FFF1F8E0F9F1FFC01EA58FA4FD1
:100A0A000180F281E02D868197819093D4058093AD
:100A1A00D3052093E5058091D3059091D4050895D7
:100A2A00CF93DF93009709F467C0FC0134972281C2
:100A3A00338133230CF060C040815181452B09F08A
:100A4A005BC0EF013F77338322830E94D6084A8135
:100A5A005B818091DB059091DC05840F951F909353
:100A6A00DC058093DB05E3ECF5E001C0FC01808145
:100A7A0091818C179D07D0F322813381BF01620FC8
:100A8A00731FC617D70729F4240F351F3383228310
:100A9A00EF012A813B81DE01A20FB31F8A179B0750
:100AAA00C9F48091DD059091DE05A817B90779F0A0
:100ABA0012968D919C911397280F391F3B832A8395
:100ACA00A081B1818D919C919983888305C0B98356
:100ADA00A88302C099838883EC17FD0711F0D1839C
:100AEA00C0838091D5059091D60501969093D6053D
:0E0AFA008093D5050E94CC02DF91CF91089524
:100B080031E1FC013083319722E220833197A3E35E
:100B1800A083319760833197708331971082319722
:100B280060E8608331971082319762E06083319783
:100B380063E06083319764E06083319765E06083A8
:100B4800319766E06083319767E06083319768E0AA
:100B58006083319769E06083319760E16083319702
:100B68003083319732E13083319733E130833197E5
:100B780034E13083319735E13083319736E1308382
:100B8800319737E13083319738E13083319739E154
:100B98003083319730E23083319731E230833197B7
:100BA8002083319723E22083319740833197508304
:100BB800319726E22083319727E22083319728E274
:100BC8002083319729E22083319720E320833197CE
:080BD80021E3208386970895B4
:100BE0000F920FB6F8940F921F9211242F923F92FA
:100BF0004F925F926F927F928F929F92AF92BF922D
:100C0000CF92DF92EF92FF920F931F932F933F9318
:100C10004F935F936F937F938F939F93AF93BF9304
:100C2000CF93DF93EF93FF93A091D305B091D405B9
:100C30000DB60D920EB60D920E94AD0181110E946B
:100C40006D04A091D305B091D405CD91CDBFDD91B8
:100C5000DEBFFF91EF91DF91CF91BF91AF919F9157
:100C60008F917F916F915F914F913F912F911F9144
:100C70000F91FF90EF90DF90CF90BF90AF909F903B
:100C80008F907F906F905F904F903F902F901F902C
:080C90000F900FBE0F900895B4
:100C98000F920FB6F8940F921F9211242F923F9241
:100CA8004F925F926F927F928F929F92AF92BF9274
:100CB800CF92DF92EF92FF920F931F932F933F9360
:100CC8004F935F936F937F938F939F93AF93BF934C
:100CD800CF93DF93EF93FF93A091D305B091D40501
:100CE8000DB60D920EB60D920E946D04A091D3051B
:100CF800B091D405CD91CDBFDD91DEBFFF91EF91CD
:100D0800DF91CF91BF91AF919F918F917F916F911B
:100D18005F914F913F912F911F910F91FF90EF900D
:100D2800DF90CF90BF90AF909F908F907F906F9003
:100D38005F904F903F902F901F900F900FBE0F9095
:020D480008950C
:100D4A00EF92FF920F93CF93DF93CDB7DEB7289739
:100D5A000FB6F894DEBF0FBECDBF89E48983EFEBEF
:100D6A00F5E0DE01129626EC35E081918D93882319
:100D7A0019F0E217F307C9F70F2EF7ECEF2EF5E09B
:100D8A00FF2EF02D00E020E030E045E5BE016F5F68
:100D9A007F4F8EEA98E00E947300882391F0813099
:100DAA0081F4F8948FEF9FEF9093CA058093C90559
:100DBA0081E08093E4051092CE051092CD050E9441
:100DCA0042078091E00528960FB6F894DEBF0FBE61
:0E0DDA00CDBFDF91CF910F91FF90EF90089564
:100DE800CF92DF92EF92FF920F931F93CF93DF93EF
:100DF800EC010091CD051091CE05E090D105F09061
:100E0800D205C090CF05D090D0058091D3059091A0
:100E1800D40502960E94E707C00FD11FE091D305C1
:100E2800F091D405D383C283C017D10750F46091E1
:100E3800D3057091D4056E5F7F4FC6010E94B60737
:100E480014C06091D3057091D4056E5F7F4FC701C0
:100E58000E94B6078091C9059091CA05C817D9079D
:100E680020F4D093CA05C093C905DF91CF911F9193
:0C0E78000F91FF90EF90DF90CF90089555
:100E84008DE390E09093890080938800E0E8F0E09F
:100E940080818C7F80838BE080938100EFE6F0E09B
:100EA400808182608083A091D305B091D405CD91D7
:100EB400CDBFDD91DEBFFF91EF91DF91CF91BF9167
:100EC400AF919F918F917F916F915F914F913F91DE
:100ED4002F911F910F91FF90EF90DF90CF90BF90D3
:100EE400AF909F908F907F906F905F904F903F90C6
:100EF4002F901F900F900FBE0F90089581E00895DA
:100F04000F931F93CF93DF938091E705882339F1E3
:100F14000AE915E00FB6F8940F92D8011596ED91F1
:100F2400FC911697C681D781CE0102960E94E707ED
:100F34008091E60581508093E6058091E705815014
:100F44008093E7050F900FBE8F89988D0E94150539
:100F5400CE010E9415058091E7058111DBCFDF9159
:080F6400CF911F910F91089538
:100F6C00CF93DF93EB01488159814F3F2FEF52070D
:100F7C0021F4FC01A781B0850DC0DC01139601C0E2
:100F8C00DF011296ED91FC9113972081318142176C
:100F9C005307B0F71296ED91FC911397FB83EA83FC
:100FAC00D583C483BD83AC831396DC93CE93129705
:100FBC0099878887FC0120812F5F2083DF91CF9157
:020FCC00089586
:100FCE00CF93DF93FC01A085B185C281D38184814B
:100FDE0095819D838C83C481D581828193819B83EE
:100FEE008A8311968D919C911297E817F90731F427
:100FFE008481958112969C938E93119711861086FB
:0C100E008C9181508C93DF91CF9108955C
:10101A0082E495E00E947908C0ECD0E00F2EF6EC4D
:10102A00EF2EF12CF02D8881882364F4F7011081CA
:10103A008AE595E00E947908812F0E94CE088AE00D
:0E104A000E94CE0884E690E00E946508ECCF7C
:10105800EF92FF920F930E94960882E295E00E9419
:101068007908E12CF12C01E020E030E040EC66E367
:1010780075E08DE098E00E9473000E94A50680E06C
:0A10880090E00F91FF90EF900895A3
:10109200E091D105F091D2058081811107C08FEFD7
:1010A2009FEF9093CA058093C9050895E091D105F9
:1010B200F091D2050580F681E02D80819181909397
:0810C200CA058093C9050895D9
:1010CA00CF93DF93EC01892B51F00E94D60860E0A0
:1010DA00CE010E94F4060E94CC02811102C00E9435
:0810EA004C06DF91CF9108953F
:1010F200CF93DF93EC018881882331F021960E94FF
:0E110200CE0889918111FBCFDF91CF91089526
:10111000FC010396928381832FEF3FEF3483238377
:0C11200096838583908787831082089552
:10112C001092C50083E38093C40088E18093C100D2
:08113C0086E08093C2000895D3
:10114400EB0180E095E00E947908CE010E947908C5
:081154008AE00E94CE08FFCFE3
:10115C00C6E7D5E00E9482078881823010F00E9499
:08116C004C060E94E708F6CFD3
:10117400EC010E94E9080E94E808CE010E94EA08F6
:06118400CE010E94E50807
:10118A00FC01480F591FE417F50711F06193FBCFD3
:02119A000895B6
:10119C00E0ECF0E0908195FFFDCF8093C6000895C0
:0C11AC008091DF058F5F8093DF050895C0
:0811B800FC0111861086089568
:0611C0000E94F0051895E5
:0411C6000C94000085
:0411CA000E9471000E
:0211CE00089582
:0211D000089580
:0211D20008957E
:0211D40008957C
:1011D6000A5B4552524F525D20537461636B206F18
:1011E600766572666C6F7720696E207461736B3AF0
:1011F600200052544F532069732072756E6E696ECB
:10120600672E2E2E0A00554152544D6F6E69746F2B
:1012160072005B55415254204D6F6E69746F722097
:10122600537461727465645D0A005265636569761C
:1012360065643A2000303132333435363738394137
:061246004243444546004E
:05124C0049444C45007F
:011251000399
:00000001FF
