:100000000C9449000C944E090C944E090C944E0922
:100010000C944E090C944E090C944E090C944E0904
:100020000C944E090C944E090C944E090C944B09F7
:100030000C944E090C944E090C944E090C944E09E4
:100040000C944E090C944E090C944E090C944E09D4
:100050000C944E090C944E090C944E090C944E09C4
:100060000C944E090C944E0901000700800700070C
:10007000890012AC078907D18007D107D600133554
:1000800007D607F38007F307F400133A07F407FBDA
:10009000800011241FBECFEFD8E0DEBFCDBFE8E661
:1000A000F0E040E017C0B591A591359125910591FB
:1000B00007FD0CC095918591EF01F92FE82F059070
:1000C0000D92A217B307D9F7FE0104C01D92A21723
:1000D000B307E1F7E139F40731F70E9482070C9486
:0600E0001B09F894FFCF9C
:1000E6004F925F926F927F928F929F92AF92BF9242
:1000F600CF92DF92EF92FF920F93CF93DF934C0153
:100106006B012901642E712CC3010E94AE035C01B0
:10011600892B09F4FDC088E290E00E94AE03EC0151
:10012600892BC1F088E2DE011D928A95E9F7B88E27
:10013600AF8AA30165EA70E0C5010E943009C301D8
:1001460001974F89588D5A01A80EB91EC114D104C2
:1001560029F41EC0C5010E941505DAC0F60180818A
:10016600898F8081882399F0AE01465E5F4F319674
:1001760088E0C80ED11CCF012191DA012D93AD0183
:10018600DC018C91882319F0EC15FD05A1F718A266
:10019600043008F003E00E8B09A36E01B2E0CB0E2B
:1001A600D11CC6010E944709CE010C960E94470940
:1001B600D987C88784E090E0801B91099D878C874A
:1001C600DB8BCA8BA201B401C5010E948405998309
:1001D6008883E114F10409F49DC0F701D183C0833B
:1001E60099C0D093E707C093E6078091F90781305D
:1001F600E9F589E897E00E94E90882E997E00E941C
:10020600E9088BE997E00E94E90884EA97E00E94F2
:10021600E90888EC97E00E94E9088FEB97E00E94D6
:10022600E90886EB97E00E94E9088DEA97E00E94CC
:10023600E90888EC97E09093E5078093E4078FEB55
:1002460097E09093E3078093E20710C08091F70749
:1002560081110CC0E091E607F091E70796898E8937
:10026600891720F0D093E707C093E6078091F4073B
:100276008F5F8093F4078E899091F807981710F492
:100286008093F80790E0FC01EE0FFF1FEE0FFF1FB3
:10029600EE0FFF1F8E0F9F1FFC01E757F84F0180DF
:1002A600F281E02DFD83EC83848195819F838E838B
:1002B600A481B5811396DC92CE921297D582C48220
:1002C600EE89F0E0CF01880F991F880F991F880FDC
:1002D600991FE80FF91FE757F84FFB87EA878081D8
:1002E6008F5F80830F900FBE8091F707882361F0A0
:1002F600E091E607F091E70796898E89981730F422
:100306000E944C0681E016C081E014C081E012C054
:100316008FEF10C00FB6F8940F928091F9078F5F98
:100326008093F9078091E6079091E707892B09F0FA
:100336008DCF57CFDF91CF910F91FF90EF90DF9048
:10034600CF90BF90AF909F908F907F906F905F906F
:040356004F90089527
:10035A00EF92FF920F931F93CF93DF938091F2074F
:10036A00811104C1C091E007D091E1077E018FEFAE
:10037A00E81AF80AF092E107E092E007E114F104C2
:10038A00B9F48091E4079091E5072091E207309152
:10039A00E3073093E5072093E4079093E3078093FC
:1003AA00E2078091F5078F5F8093F5070E949A080C
:1003BA008091DC079091DD07E816F90610F480E0D9
:1003CA00B9C080E061E0E091E407F091E50790812F
:1003DA00911107C02FEF3FEF3093DD072093DC0721
:1003EA00A9C0E091E407F091E5070580F681E02DC8
:1003FA000680F781E02D22813381E216F30628F484
:10040A003093DD072093DC0795C0A285B38524814C
:10041A00358146815781E9015D834C832681378185
:10042A0044815581E9015B834A83AF014E5F5F4F87
:10043A0011962D913C9112972417350731F4268194
:10044A00378112963C932E931197138612869C91AC
:10045A0091509C93A489B589109719F126853785FF
:10046A0000891189E9011D830C8320893189068558
:10047A001785E9011B830A8311960D911C91129726
:10048A009F01245F3F4F0217130731F420893189F6
:10049A0012963C932E931197158A148A9C91915027
:1004AA009C9326899091F807921710F42093F807E5
:1004BA0030E0D901AA0FBB1FAA0FBB1FAA0FBB1F8F
:1004CA002A0F3B1FD901A757B84F11960D90BC911F
:1004DA00A02DB583A48314962D913C91159737834B
:1004EA00268314962D913C911597E9015B834A83E3
:1004FA0015965C934E931497A689B0E09D01220F3E
:10050A00331F220F331F220F331FA20FB31FA75708
:10051A00B84FB387A2879C919F5F9C93A091E607EF
:10052A00B091E707268956969C91921708F04BCF0F
:10053A00862F49CFE091E607F091E707268930E058
:10054A00F901EE0FFF1FEE0FFF1FEE0FFF1F2E0F19
:10055A003F1FF901E757F84F9081923008F081E088
:10056A009091F607992361F081E00AC08091DE0735
:10057A009091DF0701969093DF078093DE0780E072
:0E058A00DF91CF911F910F91FF90EF90089598
:100598001F93CF93DF930FB6F8940F928091F207D1
:1005A80081508093F2078091F2078111CAC080912F
:1005B800F90781119BC0C8C0DB011596ED91FC912C
:1005C80016970680F781E02DA489B58986859785D9
:1005D80020893189EC013D832C8380899189268586
:1005E8003785EC013B832A83CF010C9611962D9118
:1005F8003C9112972817390731F48089918912960E
:100608009C938E931197158A148A8C9181508C93A0
:10061800A285B3858481958126813781EC013D834C
:100628002C838681978124813581EC013B832A8341
:100638009F012E5F3F4F11968D919C9112978217C3
:10064800930731F48681978112969C938E93119724
:10065800138612868C9181508C9386899091F80725
:10066800981710F48093F80790E0DC01AA0FBB1FDD
:10067800AA0FBB1FAA0FBB1F8A0F9B1FDC01A7571E
:10068800B84F11960D90BC91A02DB583A4831496F4
:100698008D919C9115979783868314968D919C9143
:1006A8001597EC013B832A8315963C932E93149758
:1006B800A689B0E0CD01880F991F880F991F880F70
:1006C800991FA80FB91FA757B84FB387A2878C9156
:1006D8008F5F8C93A091E607B091E70796895696AD
:1006E8008C91891740F44093F60705C0E0E0F0E0EC
:1006F80066EB77E041E0DB018C9181115DCFEF2B58
:1007080011F00E949A08C091DE07D091DF07209768
:1007180061F011E00E94AD0181111093F607219755
:10072800C9F71092DF071092DE078091F607882339
:1007380051F08091E6079091E7070E944C0681E00E
:1007480003C080E001C080E00F900FBEDF91CF9121
:040758001F91089550
:10075C000F931F93CF93DF939C01215031092B3FB3
:10076C003F4F18F4EC01249602C0C0E0D0E00E9488
:10077C0041098091F0079091F107892B59F540E0E0
:10078C0051E0A6EDB7E011965C934E9313961C9234
:10079C001E921297CA01A0E0B0E084509A4FAF4F5E
:1007AC00BF4F9C019093F1078093F007FC011382DB
:1007BC0012821182108220503140FA01338322833D
:1007CC00918380833093ED072093EC073093EF07F0
:1007DC002093EE071C161D060CF069C08091EE07E5
:1007EC009091EF078C179D0708F464C0E091D60731
:1007FC00F091D70766ED77E002C0BF01F9012281C5
:10080C0033812C173D0728F42081318121153105C6
:10081C00A1F72091F0073091F107E217F30709F4E3
:10082C004CC0DB010D911C9111970C5F1F4F208167
:10083C0031812D933C93228133812C1B3D0B29302C
:10084C00310598F0AF014C0F5D1FDA0113963C9304
:10085C002E931297D383C283DB012D913C91DA0145
:10086C002D933C93DB014D935C9322813381821B4E
:10087C00930B9093EF078093EE074091EC07509108
:10088C00ED078417950720F49093ED078093EC0700
:10089C00306833832283118210828091EA07909111
:1008AC00EB0701969093EB078093EA0708C000E0F2
:1008BC0010E005C000E010E002C000E010E00E9473
:0E08CC00CC02C801DF91CF911F910F910895CA
:1008DA008091F207882321F081E08093F60708953A
:1008EA001092F607E091E607F091E7070788F08D86
:1008FA00E02D80819181A281B381853A954AA54AEA
:10090A00B54AD9F484819581A681B781853A954AF9
:10091A00A54AB54A91F480859185A285B385853A21
:10092A00954AA54AB54A49F484859585A685B78529
:10093A00853A954AA54AB54A61F06091E6077091F1
:10094A00E7078091E6079091E707675E7F4F0E946D
:10095A0003092091F807822F90E0FC01EE0FFF1F98
:10096A00EE0FFF1FEE0FFF1FE80FF91FE757F84FB3
:10097A003081311111C02150822F90E0FC01EE0F1D
:10098A00FF1FEE0FFF1FEE0FFF1FE80FF91FE757BC
:10099A00F84F3081332379F3AC01440F551F440FCC
:1009AA00551F440F551F480F591FFA01E757F84FB3
:1009BA00A181B28112966D917C91139772836183A2
:1009CA004457584F6417750779F4FC01EE0FFF1F5F
:1009DA00EE0FFF1FEE0FFF1FE80FF91FE757F84F43
:1009EA004581568152834183FC01EE0FFF1FEE0FB2
:1009FA00FF1FEE0FFF1F8E0F9F1FFC01E757F84FD7
:100A0A000180F281E02D868197819093E707809398
:100A1A00E6072093F8078091E6079091E707089583
:100A2A00CF93DF93009709F467C0FC0134972281C2
:100A3A00338133230CF060C040815181452B09F08A
:100A4A005BC0EF013F77338322830E9441094A81C9
:100A5A005B818091EE079091EF07840F951F909329
:100A6A00EF078093EE07E6EDF7E001C0FC01808115
:100A7A0091818C179D07D0F322813381BF01620FC8
:100A8A00731FC617D70729F4240F351F3383228310
:100A9A00EF012A813B81DE01A20FB31F8A179B0750
:100AAA00C9F48091F0079091F107A817B90779F076
:100ABA0012968D919C911397280F391F3B832A8395
:100ACA00A081B1818D919C919983888305C0B98356
:100ADA00A88302C099838883EC17FD0711F0D1839C
:100AEA00C0838091E8079091E90701969093E907FE
:0E0AFA008093E8070E94CC02DF91CF9108950F
:100B080031E1FC013083319722E220833197A3E35E
:100B1800A083319760833197708331971082319722
:100B280060E8608331971082319762E06083319783
:100B380063E06083319764E06083319765E06083A8
:100B4800319766E06083319767E06083319768E0AA
:100B58006083319769E06083319760E16083319702
:100B68003083319732E13083319733E130833197E5
:100B780034E13083319735E13083319736E1308382
:100B8800319737E13083319738E13083319739E154
:100B98003083319730E23083319731E230833197B7
:100BA8002083319723E22083319740833197508304
:100BB800319726E22083319727E22083319728E274
:100BC8002083319729E22083319720E320833197CE
:080BD80021E3208386970895B4
:100BE0000F920FB6F8940F921F9211242F923F92FA
:100BF0004F925F926F927F928F929F92AF92BF922D
:100C0000CF92DF92EF92FF920F931F932F933F9318
:100C10004F935F936F937F938F939F93AF93BF9304
:100C2000CF93DF93EF93FF93A091E607B091E7078F
:100C30000DB60D920EB60D920E94AD0181110E946B
:100C40006D04A091E607B091E707CD91CDBFDD918E
:100C5000DEBFFF91EF91DF91CF91BF91AF919F9157
:100C60008F917F916F915F914F913F912F911F9144
:100C70000F91FF90EF90DF90CF90BF90AF909F903B
:100C80008F907F906F905F904F903F902F901F902C
:080C90000F900FBE0F900895B4
:100C98000F920FB6F8940F921F9211242F923F9241
:100CA8004F925F926F927F928F929F92AF92BF9274
:100CB800CF92DF92EF92FF920F931F932F933F9360
:100CC8004F935F936F937F938F939F93AF93BF934C
:100CD800CF93DF93EF93FF93A091E607B091E707D7
:100CE8000DB60D920EB60D920E946D04A091E60706
:100CF800B091E707CD91CDBFDD91DEBFFF91EF91B8
:100D0800DF91CF91BF91AF919F918F917F916F911B
:100D18005F914F913F912F911F910F91FF90EF900D
:100D2800DF90CF90BF90AF909F908F907F906F9003
:100D38005F904F903F902F901F900F900FBE0F9095
:020D480008950C
:100D4A00EF92FF920F93CF93DF93CDB7DEB7289739
:100D5A000FB6F894DEBF0FBECDBF89E48983E2EDFA
:100D6A00F7E0DE01129629ED37E081918D93882311
:100D7A0019F0E217F307C9F70F2EFAEDEF2EF7E095
:100D8A00FF2EF02D00E020E030E040E4BE016F5F6E
:100D9A007F4F8FE099E00E947300882391F08130A1
:100DAA0081F4F8948FEF9FEF9093DD078093DC072F
:100DBA0081E08093F7071092E1071092E0070E9402
:100DCA0042078091F30728960FB6F894DEBF0FBE4C
:0E0DDA00CDBFDF91CF910F91FF90EF90089564
:100DE800CF92DF92EF92FF920F931F93CF93DF93EF
:100DF800EC010091E0071091E107E090E407F09022
:100E0800E507C090E207D090E3078091E60790914C
:100E1800E70702960E945408C00FD11FE091E60729
:100E2800F091E707D383C283C017D10750F46091CC
:100E3800E6077091E7076E5F7F4FC6010E9423089F
:100E480014C06091E6077091E7076E5F7F4FC70196
:100E58000E9423088091DC079091DD07C817D90705
:100E680020F4D093DD07C093DC07DF91CF911F9169
:0C0E78000F91FF90EF90DF90CF90089555
:100E84008CE790E09093890080938800E0E8F0E09C
:100E940080818C7F80838BE080938100EFE6F0E09B
:100EA400808182608083A091E607B091E707CD91AD
:100EB400CDBFDD91DEBFFF91EF91DF91CF91BF9167
:100EC400AF919F918F917F916F915F914F913F91DE
:100ED4002F911F910F91FF90EF90DF90CF90BF90D3
:100EE400AF909F908F907F906F905F904F903F90C6
:100EF4002F901F900F900FBE0F90089581E00895DA
:100F0400EF92FF920F930E94F70882E297E00E940B
:100F1400DA08E12CF12C01E020E030E040E866E35F
:100F240077E086E299E00E94730020E030E040E838
:100F340060E477E08AE798E00E94730020E030E004
:100F440040EC68E477E08AEB97E00E94730020E0CD
:100F540030E040EC63E577E08AEC98E00E947300AF
:100F64000E94A50680E090E00F91FF90EF90089515
:100F740084B1806F84B987B1807F87B988B18F606D
:100F840088B9EE24E394F12C00E010E0C701002EB0
:100F940002C0880F991F0A94E2F7809588B9C4E0CB
:100FA400D0E086B190E00C2E02C0959587950A9406
:100FB400E2F780FD04C088EC90E00E94B608219618
:100FC400C830D10571F70F5F1F4F04301105F1F6DA
:0A0FD4008AE090E00E94B608D7CF33
:100FDE000F931F93CF93DF938091FA07882339F1F4
:100FEE000DEA17E00FB6F8940F92D8011596ED9111
:100FFE00FC911697C681D781CE0102960E945408A5
:10100E008091F90781508093F9078091FA078150FA
:10101E008093FA070F900FBE8F89988D0E94150549
:10102E00CE010E9415058091FA078111DBCFDF9169
:08103E00CF911F910F9108955D
:10104600CF93DF93EB01488159814F3F2FEF520732
:1010560021F4FC01A781B0850DC0DC01139601C007
:10106600DF011296ED91FC91139720813181421791
:101076005307B0F71296ED91FC911397FB83EA8321
:10108600D583C483BD83AC831396DC93CE9312972A
:1010960099878887FC0120812F5F2083DF91CF917C
:0210A6000895AB
:1010A800CF93DF93FC01A085B185C281D381848170
:1010B80095819D838C83C481D581828193819B8313
:1010C8008A8311968D919C911297E817F90731F44C
:1010D8008481958112969C938E9311971186108620
:0C10E8008C9181508C93DF91CF91089582
:1010F400219A81E8809380008AE080938100109295
:10110400890010928800C5E0D5E008E810E001C02D
:10111400D19584E190E00E94B6088C2F90E0F8010C
:1011240091838083CD0F8FEF8C0F8E3F88F7F1CFA3
:10113400E091E407F091E5078081811107C08FEF0A
:101144009FEF9093DD078093DC070895E091E40717
:10115400F091E5070580F681E02D808191819093DF
:08116400DD078093DC0708950C
:10116C00CF93DF93EC01892B51F00E94410960E091
:10117C00CE010E94F4060E94CC02811102C00E9492
:08118C004C06DF91CF9108959C
:101194008FE597E00E94DA08C0ECD0E006EC10E09E
:1011A40088818823ECF7F80180810E943909F8CFFF
:1011B400CF93DF93EC018881882331F021960E943C
:0E11C400390989918111FBCFDF91CF910895F8
:1011D200FC010396928381832FEF3FEF34832383B5
:0C11E20096838583908787831082089590
:1011EE001092C50083E38093C40088E18093C10010
:0811FE0086E08093C200089511
:10120600EB0180E097E00E94DA08CE010E94DA083E
:081216008AE00E943909FFCFB4
:10121E00C9E8D7E00E94EF078881823010F00E9463
:08122E004C060E945209F6CFA4
:10123600EC010E9454090E945309CE010E945509EF
:06124600CE010E945009D8
:10124C00209AC1E085B18C2785B984EF91E00E948A
:04125C00B608F8CF09
:10126000FC01480F591FE417F50711F06193FBCFFC
:021270000895DF
:10127200E0ECF0E0908195FFFDCF8093C6000895E9
:0C1282008091F2078F5F8093F2070895BF
:08128E00FC0111861086089591
:061296000E94F00518950E
:04129C000C940000AE
:0412A0000E94710037
:0212A4000895AB
:0212A6000895A9
:0212A8000895A7
:0212AA000895A5
:1012AC000A5B4552524F525D20537461636B206F41
:1012BC00766572666C6F7720696E207461736B3A19
:1012CC00200052544F532069732072756E6E696EF4
:1012DC00672E2E2E0A00426C696E6B5461736B0084
:1012EC0050574D5461736B004E756D706164546151
:1012FC00736B00554152544D6F6E69746F72000AD6
:10130C005B55415254204D6F6E69746F722053744B
:10131C0061727465645D0A003031323334353637AE
:09132C00383941424344454600B2
:0513350049444C450095
:01133A0003AF
:00000001FF
